{"contracts/exchange.sol":{"TokenExchange":{"abi":[{"inputs":[],"stateMutability":"nonpayable","type":"constructor"},{"anonymous":false,"inputs":[{"indexed":true,"internalType":"address","name":"previousOwner","type":"address"},{"indexed":true,"internalType":"address","name":"newOwner","type":"address"}],"name":"OwnershipTransferred","type":"event"},{"inputs":[{"internalType":"uint256","name":"max_exchange_rate","type":"uint256"},{"internalType":"uint256","name":"min_exchange_rate","type":"uint256"}],"name":"addLiquidity","outputs":[],"stateMutability":"payable","type":"function"},{"inputs":[{"internalType":"uint256","name":"amountTokens","type":"uint256"}],"name":"createPool","outputs":[],"stateMutability":"payable","type":"function"},{"inputs":[],"name":"exchange_name","outputs":[{"internalType":"string","name":"","type":"string"}],"stateMutability":"view","type":"function"},{"inputs":[],"name":"getSwapFee","outputs":[{"internalType":"uint256","name":"","type":"uint256"},{"internalType":"uint256","name":"","type":"uint256"}],"stateMutability":"view","type":"function"},{"inputs":[],"name":"owner","outputs":[{"internalType":"address","name":"","type":"address"}],"stateMutability":"view","type":"function"},{"inputs":[{"internalType":"uint256","name":"max_exchange_rate","type":"uint256"},{"internalType":"uint256","name":"min_exchange_rate","type":"uint256"}],"name":"removeAllLiquidity","outputs":[],"stateMutability":"payable","type":"function"},{"inputs":[{"internalType":"uint256","name":"amountETH","type":"uint256"},{"internalType":"uint256","name":"max_exchange_rate","type":"uint256"},{"internalType":"uint256","name":"min_exchange_rate","type":"uint256"}],"name":"removeLiquidity","outputs":[],"stateMutability":"payable","type":"function"},{"inputs":[],"name":"renounceOwnership","outputs":[],"stateMutability":"nonpayable","type":"function"},{"inputs":[{"internalType":"uint256","name":"max_exchange_rate","type":"uint256"}],"name":"swapETHForTokens","outputs":[],"stateMutability":"payable","type":"function"},{"inputs":[{"internalType":"uint256","name":"amountTokens","type":"uint256"},{"internalType":"uint256","name":"max_exchange_rate","type":"uint256"}],"name":"swapTokensForETH","outputs":[],"stateMutability":"payable","type":"function"},{"inputs":[],"name":"token","outputs":[{"internalType":"contract Token","name":"","type":"address"}],"stateMutability":"view","type":"function"},{"inputs":[{"internalType":"address","name":"newOwner","type":"address"}],"name":"transferOwnership","outputs":[],"stateMutability":"nonpayable","type":"function"}],"evm":{"bytecode":{"linkReferences":{},"object":"60806040526040518060400160405280600781526020017f426f62615f457800000000000000000000000000000000000000000000000000815250600190816200004a919062000446565b50600260009054906101000a900473ffffffffffffffffffffffffffffffffffffffff16600360006101000a81548173ffffffffffffffffffffffffffffffffffffffff021916908373ffffffffffffffffffffffffffffffffffffffff16021790555060006004556000600555600060065560006007556005600a556064600b55348015620000d957600080fd5b50620000fa620000ee6200010060201b60201c565b6200010860201b60201c565b6200052d565b600033905090565b60008060009054906101000a900473ffffffffffffffffffffffffffffffffffffffff169050816000806101000a81548173ffffffffffffffffffffffffffffffffffffffff021916908373ffffffffffffffffffffffffffffffffffffffff1602179055508173ffffffffffffffffffffffffffffffffffffffff168173ffffffffffffffffffffffffffffffffffffffff167f8be0079c531659141344cd1fd0a4f28419497f9722a3daafe3b4186f6b6457e060405160405180910390a35050565b600081519050919050565b7f4e487b7100000000000000000000000000000000000000000000000000000000600052604160045260246000fd5b7f4e487b7100000000000000000000000000000000000000000000000000000000600052602260045260246000fd5b600060028204905060018216806200024e57607f821691505b60208210810362000264576200026362000206565b5b50919050565b60008190508160005260206000209050919050565b60006020601f8301049050919050565b600082821b905092915050565b600060088302620002ce7fffffffffffffffffffffffffffffffffffffffffffffffffffffffffffffffff826200028f565b620002da86836200028f565b95508019841693508086168417925050509392505050565b6000819050919050565b6000819050919050565b600062000327620003216200031b84620002f2565b620002fc565b620002f2565b9050919050565b6000819050919050565b620003438362000306565b6200035b62000352826200032e565b8484546200029c565b825550505050565b600090565b6200037262000363565b6200037f81848462000338565b505050565b5b81811015620003a7576200039b60008262000368565b60018101905062000385565b5050565b601f821115620003f657620003c0816200026a565b620003cb846200027f565b81016020851015620003db578190505b620003f3620003ea856200027f565b83018262000384565b50505b505050565b600082821c905092915050565b60006200041b60001984600802620003fb565b1980831691505092915050565b600062000436838362000408565b9150826002028217905092915050565b6200045182620001cc565b67ffffffffffffffff8111156200046d576200046c620001d7565b5b62000479825462000235565b62000486828285620003ab565b600060209050601f831160018114620004be5760008415620004a9578287015190505b620004b5858262000428565b86555062000525565b601f198416620004ce866200026a565b60005b82811015620004f857848901518255600182019150602085019450602081019050620004d1565b8683101562000518578489015162000514601f89168262000408565b8355505b6001600288020188555050505b505050505050565b613175806200053d6000396000f3fe6080604052600436106100a75760003560e01c80639cd441da116100645780639cd441da1461015e578063a22280a61461017a578063d4cadf6814610196578063f2fde38b146101c2578063f694f7d1146101eb578063fc0c546a14610216576100a7565b80632eab2841146100ac57806358ad6de4146100c8578063715018a6146100e45780638259e6a0146100fb578063857620e1146101175780638da5cb5b14610133575b600080fd5b6100c660048036038101906100c19190612030565b610241565b005b6100e260048036038101906100dd919061205d565b610469565b005b3480156100f057600080fd5b506100f9610a41565b005b61011560048036038101906101109190612030565b610a55565b005b610131600480360381019061012c919061209d565b610db6565b005b34801561013f57600080fd5b50610148611403565b6040516101559190612131565b60405180910390f35b6101786004803603810190610173919061205d565b61142c565b005b610194600480360381019061018f919061205d565b6119b4565b005b3480156101a257600080fd5b506101ab611c26565b6040516101b992919061215b565b60405180910390f35b3480156101ce57600080fd5b506101e960048036038101906101e491906121b0565b611c37565b005b3480156101f757600080fd5b50610200611cba565b60405161020d919061226d565b60405180910390f35b34801561022257600080fd5b5061022b611d48565b60405161023891906122ee565b60405180910390f35b8060045460646005546102549190612338565b61025e91906123a9565b111561029f576040517f08c379a00000000000000000000000000000000000000000000000000000000081526004016102969061244c565b60405180910390fd5b6000600b54600a546102b191906123a9565b346102bc9190612338565b905080600760008282546102d0919061246c565b92505081905550600081346005546102e8919061246c565b6102f291906124a0565b9050600081600c5461030491906123a9565b9050600181101561034a576040517f08c379a000000000000000000000000000000000000000000000000000000000815260040161034190612546565b60405180910390fd5b60008160045461035a91906124a0565b905060011515600360009054906101000a900473ffffffffffffffffffffffffffffffffffffffff1673ffffffffffffffffffffffffffffffffffffffff1663a9059cbb33846040518363ffffffff1660e01b81526004016103bd929190612566565b6020604051808303816000875af11580156103dc573d6000803e3d6000fd5b505050506040513d601f19601f8201168201806040525081019061040091906125c7565b151514610442576040517f08c379a000000000000000000000000000000000000000000000000000000000815260040161043990612666565b60405180910390fd5b82600581905550806004600082825461045b91906124a0565b925050819055505050505050565b6007546005600082825461047d919061246c565b9250508190555060065460046000828254610498919061246c565b92505081905550600060078190555060006006819055506000612710600554600860003373ffffffffffffffffffffffffffffffffffffffff1673ffffffffffffffffffffffffffffffffffffffff168152602001908152602001600020546105019190612338565b61050b91906123a9565b90506000612710600454600860003373ffffffffffffffffffffffffffffffffffffffff1673ffffffffffffffffffffffffffffffffffffffff1681526020019081526020016000205461055f9190612338565b61056991906123a9565b905060055482106105af576040517f08c379a00000000000000000000000000000000000000000000000000000000081526004016105a6906126f8565b60405180910390fd5b60045481106105f3576040517f08c379a00000000000000000000000000000000000000000000000000000000081526004016105ea9061278a565b60405180910390fd5b8360045460646005546106069190612338565b61061091906123a9565b1115610651576040517f08c379a00000000000000000000000000000000000000000000000000000000081526004016106489061244c565b60405180910390fd5b8260045460646005546106649190612338565b61066e91906123a9565b10156106af576040517f08c379a00000000000000000000000000000000000000000000000000000000081526004016106a69061281c565b60405180910390fd5b600060055490503373ffffffffffffffffffffffffffffffffffffffff166108fc849081150290604051600060405180830381858888f193505050501580156106fc573d6000803e3d6000fd5b5060011515600360009054906101000a900473ffffffffffffffffffffffffffffffffffffffff1673ffffffffffffffffffffffffffffffffffffffff1663a9059cbb33856040518363ffffffff1660e01b815260040161075e929190612566565b6020604051808303816000875af115801561077d573d6000803e3d6000fd5b505050506040513d601f19601f820116820180604052508101906107a191906125c7565b1515146107e3576040517f08c379a00000000000000000000000000000000000000000000000000000000081526004016107da90612666565b60405180910390fd5b82600560008282546107f591906124a0565b92505081905550816004600082825461080e91906124a0565b925050819055506005546004546108259190612338565b600c81905550600060098054905090506000600980549050905060005b818110156109e9573373ffffffffffffffffffffffffffffffffffffffff16600982815481106108755761087461283c565b5b9060005260206000200160009054906101000a900473ffffffffffffffffffffffffffffffffffffffff1673ffffffffffffffffffffffffffffffffffffffff16036108bf578092505b6005548460086000600985815481106108db576108da61283c565b5b9060005260206000200160009054906101000a900473ffffffffffffffffffffffffffffffffffffffff1673ffffffffffffffffffffffffffffffffffffffff1673ffffffffffffffffffffffffffffffffffffffff1681526020019081526020016000205461094b9190612338565b61095591906123a9565b600860006009848154811061096d5761096c61283c565b5b9060005260206000200160009054906101000a900473ffffffffffffffffffffffffffffffffffffffff1673ffffffffffffffffffffffffffffffffffffffff1673ffffffffffffffffffffffffffffffffffffffff1681526020019081526020016000208190555080806109e19061286b565b915050610842565b506000600860003373ffffffffffffffffffffffffffffffffffffffff1673ffffffffffffffffffffffffffffffffffffffff16815260200190815260200160002081905550610a3882611d6e565b50505050505050565b610a49611eab565b610a536000611f29565b565b610a5d611eab565b600060045414610aa2576040517f08c379a0000000000000000000000000000000000000000000000000000000008152600401610a99906128ff565b60405180910390fd5b600060055414610ae7576040517f08c379a0000000000000000000000000000000000000000000000000000000008152600401610ade9061296b565b60405180910390fd5b60003411610b2a576040517f08c379a0000000000000000000000000000000000000000000000000000000008152600401610b21906129d7565b60405180910390fd5b6000600360009054906101000a900473ffffffffffffffffffffffffffffffffffffffff1673ffffffffffffffffffffffffffffffffffffffff166370a08231336040518263ffffffff1660e01b8152600401610b879190612131565b602060405180830381865afa158015610ba4573d6000803e3d6000fd5b505050506040513d601f19601f82011682018060405250810190610bc89190612a0c565b905080821115610c0d576040517f08c379a0000000000000000000000000000000000000000000000000000000008152600401610c0490612aab565b60405180910390fd5b60008211610c50576040517f08c379a0000000000000000000000000000000000000000000000000000000008152600401610c4790612b17565b60405180910390fd5b600360009054906101000a900473ffffffffffffffffffffffffffffffffffffffff1673ffffffffffffffffffffffffffffffffffffffff166323b872dd3330856040518463ffffffff1660e01b8152600401610caf93929190612b37565b6020604051808303816000875af1158015610cce573d6000803e3d6000fd5b505050506040513d601f19601f82011682018060405250810190610cf291906125c7565b50600360009054906101000a900473ffffffffffffffffffffffffffffffffffffffff1673ffffffffffffffffffffffffffffffffffffffff166370a08231306040518263ffffffff1660e01b8152600401610d4e9190612131565b602060405180830381865afa158015610d6b573d6000803e3d6000fd5b505050506040513d601f19601f82011682018060405250810190610d8f9190612a0c565b60048190555034600581905550600554600454610dac9190612338565b600c819055505050565b60075460056000828254610dca919061246c565b9250508190555060065460046000828254610de5919061246c565b925050819055506000600781905550600060068190555060008311610e3f576040517f08c379a0000000000000000000000000000000000000000000000000000000008152600401610e3690612bba565b60405180910390fd5b6005548310610e83576040517f08c379a0000000000000000000000000000000000000000000000000000000008152600401610e7a906126f8565b60405180910390fd5b816004546064600554610e969190612338565b610ea091906123a9565b1115610ee1576040517f08c379a0000000000000000000000000000000000000000000000000000000008152600401610ed89061244c565b60405180910390fd5b806004546064600554610ef49190612338565b610efe91906123a9565b1015610f3f576040517f08c379a0000000000000000000000000000000000000000000000000000000008152600401610f369061281c565b60405180910390fd5b6000612710600554600860003373ffffffffffffffffffffffffffffffffffffffff1673ffffffffffffffffffffffffffffffffffffffff16815260200190815260200160002054610f919190612338565b610f9b91906123a9565b905080841115610fe0576040517f08c379a0000000000000000000000000000000000000000000000000000000008152600401610fd790612c4c565b60405180910390fd5b60006005549050600060055460045487610ffa9190612338565b61100491906123a9565b90503373ffffffffffffffffffffffffffffffffffffffff166108fc879081150290604051600060405180830381858888f1935050505015801561104c573d6000803e3d6000fd5b5060011515600360009054906101000a900473ffffffffffffffffffffffffffffffffffffffff1673ffffffffffffffffffffffffffffffffffffffff1663a9059cbb33846040518363ffffffff1660e01b81526004016110ae929190612566565b6020604051808303816000875af11580156110cd573d6000803e3d6000fd5b505050506040513d601f19601f820116820180604052508101906110f191906125c7565b151514611133576040517f08c379a000000000000000000000000000000000000000000000000000000000815260040161112a90612666565b60405180910390fd5b856005600082825461114591906124a0565b92505081905550806004600082825461115e91906124a0565b925050819055506005546004546111759190612338565b600c81905550600554612710878561118d91906124a0565b6111979190612338565b6111a191906123a9565b600860003373ffffffffffffffffffffffffffffffffffffffff1673ffffffffffffffffffffffffffffffffffffffff16815260200190815260200160002081905550600060098054905090506000600980549050905060005b818110156113a7573373ffffffffffffffffffffffffffffffffffffffff166009828154811061122e5761122d61283c565b5b9060005260206000200160009054906101000a900473ffffffffffffffffffffffffffffffffffffffff1673ffffffffffffffffffffffffffffffffffffffff160361127c57809250611394565b6005548560086000600985815481106112985761129761283c565b5b9060005260206000200160009054906101000a900473ffffffffffffffffffffffffffffffffffffffff1673ffffffffffffffffffffffffffffffffffffffff1673ffffffffffffffffffffffffffffffffffffffff168152602001908152602001600020546113089190612338565b61131291906123a9565b600860006009848154811061132a5761132961283c565b5b9060005260206000200160009054906101000a900473ffffffffffffffffffffffffffffffffffffffff1673ffffffffffffffffffffffffffffffffffffffff1673ffffffffffffffffffffffffffffffffffffffff168152602001908152602001600020819055505b808061139f9061286b565b9150506111fb565b506000600860003373ffffffffffffffffffffffffffffffffffffffff1673ffffffffffffffffffffffffffffffffffffffff16815260200190815260200160002054036113f9576113f882611d6e565b5b5050505050505050565b60008060009054906101000a900473ffffffffffffffffffffffffffffffffffffffff16905090565b60075460056000828254611440919061246c565b925050819055506006546004600082825461145b919061246c565b9250508190555060006007819055506000600681905550600034116114b5576040517f08c379a00000000000000000000000000000000000000000000000000000000081526004016114ac90612cb8565b60405180910390fd5b8160045460646005546114c89190612338565b6114d291906123a9565b1115611513576040517f08c379a000000000000000000000000000000000000000000000000000000000815260040161150a9061244c565b60405180910390fd5b8060045460646005546115269190612338565b61153091906123a9565b1015611571576040517f08c379a00000000000000000000000000000000000000000000000000000000081526004016115689061281c565b60405180910390fd5b6000600554600454346115849190612338565b61158e91906123a9565b905060011515600360009054906101000a900473ffffffffffffffffffffffffffffffffffffffff1673ffffffffffffffffffffffffffffffffffffffff166323b872dd3330856040518463ffffffff1660e01b81526004016115f393929190612b37565b6020604051808303816000875af1158015611612573d6000803e3d6000fd5b505050506040513d601f19601f8201168201806040525081019061163691906125c7565b151514611678576040517f08c379a000000000000000000000000000000000000000000000000000000000815260040161166f90612d4a565b60405180910390fd5b600060055490503460056000828254611691919061246c565b9250508190555081600460008282546116aa919061246c565b925050819055506005546004546116c19190612338565b600c819055506005546127103461271084600860003373ffffffffffffffffffffffffffffffffffffffff1673ffffffffffffffffffffffffffffffffffffffff1681526020019081526020016000205461171c9190612338565b61172691906123a9565b611730919061246c565b61173a9190612338565b61174491906123a9565b600860003373ffffffffffffffffffffffffffffffffffffffff1673ffffffffffffffffffffffffffffffffffffffff16815260200190815260200160002081905550600080600980549050905060005b81811015611942573373ffffffffffffffffffffffffffffffffffffffff16600982815481106117c8576117c761283c565b5b9060005260206000200160009054906101000a900473ffffffffffffffffffffffffffffffffffffffff1673ffffffffffffffffffffffffffffffffffffffff1603611817576001925061192f565b6005548460086000600985815481106118335761183261283c565b5b9060005260206000200160009054906101000a900473ffffffffffffffffffffffffffffffffffffffff1673ffffffffffffffffffffffffffffffffffffffff1673ffffffffffffffffffffffffffffffffffffffff168152602001908152602001600020546118a39190612338565b6118ad91906123a9565b60086000600984815481106118c5576118c461283c565b5b9060005260206000200160009054906101000a900473ffffffffffffffffffffffffffffffffffffffff1673ffffffffffffffffffffffffffffffffffffffff1673ffffffffffffffffffffffffffffffffffffffff168152602001908152602001600020819055505b808061193a9061286b565b915050611795565b50816119ac576009339080600181540180825580915050600190039060005260206000200160009091909190916101000a81548173ffffffffffffffffffffffffffffffffffffffff021916908373ffffffffffffffffffffffffffffffffffffffff1602179055505b505050505050565b8060055460646004546119c79190612338565b6119d191906123a9565b1115611a12576040517f08c379a0000000000000000000000000000000000000000000000000000000008152600401611a0990612ddc565b60405180910390fd5b6000600b54600a54611a2491906123a9565b83611a2f9190612338565b90508060066000828254611a43919061246c565b9250508190555060008184600454611a5b919061246c565b611a6591906124a0565b9050600081600c54611a7791906123a9565b90506001811015611abd576040517f08c379a0000000000000000000000000000000000000000000000000000000008152600401611ab490612e6e565b60405180910390fd5b600081600554611acd91906124a0565b90503373ffffffffffffffffffffffffffffffffffffffff166108fc829081150290604051600060405180830381858888f19350505050158015611b15573d6000803e3d6000fd5b5060011515600360009054906101000a900473ffffffffffffffffffffffffffffffffffffffff1673ffffffffffffffffffffffffffffffffffffffff166323b872dd33308a6040518463ffffffff1660e01b8152600401611b7993929190612b37565b6020604051808303816000875af1158015611b98573d6000803e3d6000fd5b505050506040513d601f19601f82011682018060405250810190611bbc91906125c7565b151514611bfe576040517f08c379a0000000000000000000000000000000000000000000000000000000008152600401611bf590612f00565b60405180910390fd5b8060056000828254611c1091906124a0565b9250508190555082600481905550505050505050565b600080600a54600b54915091509091565b611c3f611eab565b600073ffffffffffffffffffffffffffffffffffffffff168173ffffffffffffffffffffffffffffffffffffffff1603611cae576040517f08c379a0000000000000000000000000000000000000000000000000000000008152600401611ca590612f92565b60405180910390fd5b611cb781611f29565b50565b60018054611cc790612fe1565b80601f0160208091040260200160405190810160405280929190818152602001828054611cf390612fe1565b8015611d405780601f10611d1557610100808354040283529160200191611d40565b820191906000526020600020905b815481529060010190602001808311611d2357829003601f168201915b505050505081565b600360009054906101000a900473ffffffffffffffffffffffffffffffffffffffff1681565b6009805490508110611db5576040517f08c379a0000000000000000000000000000000000000000000000000000000008152600401611dac90613084565b60405180910390fd5b60096001600980549050611dc991906124a0565b81548110611dda57611dd961283c565b5b9060005260206000200160009054906101000a900473ffffffffffffffffffffffffffffffffffffffff1660098281548110611e1957611e1861283c565b5b9060005260206000200160006101000a81548173ffffffffffffffffffffffffffffffffffffffff021916908373ffffffffffffffffffffffffffffffffffffffff1602179055506009805480611e7357611e726130a4565b5b6001900381819060005260206000200160006101000a81549073ffffffffffffffffffffffffffffffffffffffff0219169055905550565b611eb3611fed565b73ffffffffffffffffffffffffffffffffffffffff16611ed1611403565b73ffffffffffffffffffffffffffffffffffffffff1614611f27576040517f08c379a0000000000000000000000000000000000000000000000000000000008152600401611f1e9061311f565b60405180910390fd5b565b60008060009054906101000a900473ffffffffffffffffffffffffffffffffffffffff169050816000806101000a81548173ffffffffffffffffffffffffffffffffffffffff021916908373ffffffffffffffffffffffffffffffffffffffff1602179055508173ffffffffffffffffffffffffffffffffffffffff168173ffffffffffffffffffffffffffffffffffffffff167f8be0079c531659141344cd1fd0a4f28419497f9722a3daafe3b4186f6b6457e060405160405180910390a35050565b600033905090565b600080fd5b6000819050919050565b61200d81611ffa565b811461201857600080fd5b50565b60008135905061202a81612004565b92915050565b60006020828403121561204657612045611ff5565b5b60006120548482850161201b565b91505092915050565b6000806040838503121561207457612073611ff5565b5b60006120828582860161201b565b92505060206120938582860161201b565b9150509250929050565b6000806000606084860312156120b6576120b5611ff5565b5b60006120c48682870161201b565b93505060206120d58682870161201b565b92505060406120e68682870161201b565b9150509250925092565b600073ffffffffffffffffffffffffffffffffffffffff82169050919050565b600061211b826120f0565b9050919050565b61212b81612110565b82525050565b60006020820190506121466000830184612122565b92915050565b61215581611ffa565b82525050565b6000604082019050612170600083018561214c565b61217d602083018461214c565b9392505050565b61218d81612110565b811461219857600080fd5b50565b6000813590506121aa81612184565b92915050565b6000602082840312156121c6576121c5611ff5565b5b60006121d48482850161219b565b91505092915050565b600081519050919050565b600082825260208201905092915050565b60005b838110156122175780820151818401526020810190506121fc565b60008484015250505050565b6000601f19601f8301169050919050565b600061223f826121dd565b61224981856121e8565b93506122598185602086016121f9565b61226281612223565b840191505092915050565b600060208201905081810360008301526122878184612234565b905092915050565b6000819050919050565b60006122b46122af6122aa846120f0565b61228f565b6120f0565b9050919050565b60006122c682612299565b9050919050565b60006122d8826122bb565b9050919050565b6122e8816122cd565b82525050565b600060208201905061230360008301846122df565b92915050565b7f4e487b7100000000000000000000000000000000000000000000000000000000600052601160045260246000fd5b600061234382611ffa565b915061234e83611ffa565b925082820261235c81611ffa565b9150828204841483151761237357612372612309565b5b5092915050565b7f4e487b7100000000000000000000000000000000000000000000000000000000600052601260045260246000fd5b60006123b482611ffa565b91506123bf83611ffa565b9250826123cf576123ce61237a565b5b828204905092915050565b7f45786365656420746865206d61785f65786368616e67655f72617465206f662060008201527f746f6b656e2e0000000000000000000000000000000000000000000000000000602082015250565b60006124366026836121e8565b9150612441826123da565b604082019050919050565b6000602082019050818103600083015261246581612429565b9050919050565b600061247782611ffa565b915061248283611ffa565b925082820190508082111561249a57612499612309565b5b92915050565b60006124ab82611ffa565b91506124b683611ffa565b92508282039050818111156124ce576124cd612309565b5b92915050565b7f4e6f74206861766520656e6f75676820746f6b656e20696e2074686520706f6f60008201527f6c20746f20737761702e00000000000000000000000000000000000000000000602082015250565b6000612530602a836121e8565b915061253b826124d4565b604082019050919050565b6000602082019050818103600083015261255f81612523565b9050919050565b600060408201905061257b6000830185612122565b612588602083018461214c565b9392505050565b60008115159050919050565b6125a48161258f565b81146125af57600080fd5b50565b6000815190506125c18161259b565b92915050565b6000602082840312156125dd576125dc611ff5565b5b60006125eb848285016125b2565b91505092915050565b7f43616e6e6f74207472616e7366657220746f6b656e20746f207468652075736560008201527f722e000000000000000000000000000000000000000000000000000000000000602082015250565b60006126506022836121e8565b915061265b826125f4565b604082019050919050565b6000602082019050818103600083015261267f81612643565b9050919050565b7f4e6f74206861766520656e6f7567682045544820696e2074686520706f6f6c2060008201527f746f2072656d6f76652e00000000000000000000000000000000000000000000602082015250565b60006126e2602a836121e8565b91506126ed82612686565b604082019050919050565b60006020820190508181036000830152612711816126d5565b9050919050565b7f4e6f74206861766520656e6f75676820746f6b656e20696e2074686520706f6f60008201527f6c20746f2072656d6f76652e0000000000000000000000000000000000000000602082015250565b6000612774602c836121e8565b915061277f82612718565b604082019050919050565b600060208201905081810360008301526127a381612767565b9050919050565b7f46616c6c2062656c6f7720746865206d696e5f65786368616e67655f7261746560008201527f206f6620746f6b656e2e00000000000000000000000000000000000000000000602082015250565b6000612806602a836121e8565b9150612811826127aa565b604082019050919050565b60006020820190508181036000830152612835816127f9565b9050919050565b7f4e487b7100000000000000000000000000000000000000000000000000000000600052603260045260246000fd5b600061287682611ffa565b91507fffffffffffffffffffffffffffffffffffffffffffffffffffffffffffffffff82036128a8576128a7612309565b5b600182019050919050565b7f546f6b656e20726573657276657320776173206e6f7420300000000000000000600082015250565b60006128e96018836121e8565b91506128f4826128b3565b602082019050919050565b60006020820190508181036000830152612918816128dc565b9050919050565b7f45544820726573657276657320776173206e6f7420302e000000000000000000600082015250565b60006129556017836121e8565b91506129608261291f565b602082019050919050565b6000602082019050818103600083015261298481612948565b9050919050565b7f4e6565642065746820746f2063726561746520706f6f6c2e0000000000000000600082015250565b60006129c16018836121e8565b91506129cc8261298b565b602082019050919050565b600060208201905081810360008301526129f0816129b4565b9050919050565b600081519050612a0681612004565b92915050565b600060208284031215612a2257612a21611ff5565b5b6000612a30848285016129f7565b91505092915050565b7f4e6f74206861766520656e6f75676820746f6b656e7320746f2063726561746560008201527f2074686520706f6f6c0000000000000000000000000000000000000000000000602082015250565b6000612a956029836121e8565b9150612aa082612a39565b604082019050919050565b60006020820190508181036000830152612ac481612a88565b9050919050565b7f4e65656420746f6b656e7320746f2063726561746520706f6f6c2e0000000000600082015250565b6000612b01601b836121e8565b9150612b0c82612acb565b602082019050919050565b60006020820190508181036000830152612b3081612af4565b9050919050565b6000606082019050612b4c6000830186612122565b612b596020830185612122565b612b66604083018461214c565b949350505050565b7f496e76616c696420616d6f756e74206f662045544820746f2072656d6f76652e600082015250565b6000612ba46020836121e8565b9150612baf82612b6e565b602082019050919050565b60006020820190508181036000830152612bd381612b97565b9050919050565b7f55736572206e6f74206861766520656e6f7567682045544820746f2072656d6f60008201527f76652e0000000000000000000000000000000000000000000000000000000000602082015250565b6000612c366023836121e8565b9150612c4182612bda565b604082019050919050565b60006020820190508181036000830152612c6581612c29565b9050919050565b7f496e76616c696420616d6f756e74206f662045544820746f206164642e000000600082015250565b6000612ca2601d836121e8565b9150612cad82612c6c565b602082019050919050565b60006020820190508181036000830152612cd181612c95565b9050919050565b7f43616e6e6f74207472616e7366657220746f6b656e2066726f6d20746865207560008201527f7365720000000000000000000000000000000000000000000000000000000000602082015250565b6000612d346023836121e8565b9150612d3f82612cd8565b604082019050919050565b60006020820190508181036000830152612d6381612d27565b9050919050565b7f45786365656420746865206d61785f65786368616e67655f72617465206f662060008201527f4554482e00000000000000000000000000000000000000000000000000000000602082015250565b6000612dc66024836121e8565b9150612dd182612d6a565b604082019050919050565b60006020820190508181036000830152612df581612db9565b9050919050565b7f4e6f74206861766520656e6f7567682045544820696e2074686520706f6f6c2060008201527f746f20737761702e000000000000000000000000000000000000000000000000602082015250565b6000612e586028836121e8565b9150612e6382612dfc565b604082019050919050565b60006020820190508181036000830152612e8781612e4b565b9050919050565b7f43616e6e6f74207472616e7366657220746f6b656e2066726f6d20746865207560008201527f7365722e00000000000000000000000000000000000000000000000000000000602082015250565b6000612eea6024836121e8565b9150612ef582612e8e565b604082019050919050565b60006020820190508181036000830152612f1981612edd565b9050919050565b7f4f776e61626c653a206e6577206f776e657220697320746865207a65726f206160008201527f6464726573730000000000000000000000000000000000000000000000000000602082015250565b6000612f7c6026836121e8565b9150612f8782612f20565b604082019050919050565b60006020820190508181036000830152612fab81612f6f565b9050919050565b7f4e487b7100000000000000000000000000000000000000000000000000000000600052602260045260246000fd5b60006002820490506001821680612ff957607f821691505b60208210810361300c5761300b612fb2565b5b50919050565b7f73706563696669656420696e646578206973206c6172676572207468616e207460008201527f6865206e756d626572206f66206c707300000000000000000000000000000000602082015250565b600061306e6030836121e8565b915061307982613012565b604082019050919050565b6000602082019050818103600083015261309d81613061565b9050919050565b7f4e487b7100000000000000000000000000000000000000000000000000000000600052603160045260246000fd5b7f4f776e61626c653a2063616c6c6572206973206e6f7420746865206f776e6572600082015250565b60006131096020836121e8565b9150613114826130d3565b602082019050919050565b60006020820190508181036000830152613138816130fc565b905091905056fea26469706673582212201663ae239d44decf5a0c912eb978e05b508c4b19aedabcd9cca2b4037456345864736f6c63430008110033","opcodes":"PUSH1 0x80 PUSH1 0x40 MSTORE PUSH1 0x40 MLOAD DUP1 PUSH1 0x40 ADD PUSH1 0x40 MSTORE DUP1 PUSH1 0x7 DUP2 MSTORE PUSH1 0x20 ADD PUSH32 0x426F62615F457800000000000000000000000000000000000000000000000000 DUP2 MSTORE POP PUSH1 0x1 SWAP1 DUP2 PUSH3 0x4A SWAP2 SWAP1 PUSH3 0x446 JUMP JUMPDEST POP PUSH1 0x2 PUSH1 0x0 SWAP1 SLOAD SWAP1 PUSH2 0x100 EXP SWAP1 DIV PUSH20 0xFFFFFFFFFFFFFFFFFFFFFFFFFFFFFFFFFFFFFFFF AND PUSH1 0x3 PUSH1 0x0 PUSH2 0x100 EXP DUP2 SLOAD DUP2 PUSH20 0xFFFFFFFFFFFFFFFFFFFFFFFFFFFFFFFFFFFFFFFF MUL NOT AND SWAP1 DUP4 PUSH20 0xFFFFFFFFFFFFFFFFFFFFFFFFFFFFFFFFFFFFFFFF AND MUL OR SWAP1 SSTORE POP PUSH1 0x0 PUSH1 0x4 SSTORE PUSH1 0x0 PUSH1 0x5 SSTORE PUSH1 0x0 PUSH1 0x6 SSTORE PUSH1 0x0 PUSH1 0x7 SSTORE PUSH1 0x5 PUSH1 0xA SSTORE PUSH1 0x64 PUSH1 0xB SSTORE CALLVALUE DUP1 ISZERO PUSH3 0xD9 JUMPI PUSH1 0x0 DUP1 REVERT JUMPDEST POP PUSH3 0xFA PUSH3 0xEE PUSH3 0x100 PUSH1 0x20 SHL PUSH1 0x20 SHR JUMP JUMPDEST PUSH3 0x108 PUSH1 0x20 SHL PUSH1 0x20 SHR JUMP JUMPDEST PUSH3 0x52D JUMP JUMPDEST PUSH1 0x0 CALLER SWAP1 POP SWAP1 JUMP JUMPDEST PUSH1 0x0 DUP1 PUSH1 0x0 SWAP1 SLOAD SWAP1 PUSH2 0x100 EXP SWAP1 DIV PUSH20 0xFFFFFFFFFFFFFFFFFFFFFFFFFFFFFFFFFFFFFFFF AND SWAP1 POP DUP2 PUSH1 0x0 DUP1 PUSH2 0x100 EXP DUP2 SLOAD DUP2 PUSH20 0xFFFFFFFFFFFFFFFFFFFFFFFFFFFFFFFFFFFFFFFF MUL NOT AND SWAP1 DUP4 PUSH20 0xFFFFFFFFFFFFFFFFFFFFFFFFFFFFFFFFFFFFFFFF AND MUL OR SWAP1 SSTORE POP DUP2 PUSH20 0xFFFFFFFFFFFFFFFFFFFFFFFFFFFFFFFFFFFFFFFF AND DUP2 PUSH20 0xFFFFFFFFFFFFFFFFFFFFFFFFFFFFFFFFFFFFFFFF AND PUSH32 0x8BE0079C531659141344CD1FD0A4F28419497F9722A3DAAFE3B4186F6B6457E0 PUSH1 0x40 MLOAD PUSH1 0x40 MLOAD DUP1 SWAP2 SUB SWAP1 LOG3 POP POP JUMP JUMPDEST PUSH1 0x0 DUP2 MLOAD SWAP1 POP SWAP2 SWAP1 POP JUMP JUMPDEST PUSH32 0x4E487B7100000000000000000000000000000000000000000000000000000000 PUSH1 0x0 MSTORE PUSH1 0x41 PUSH1 0x4 MSTORE PUSH1 0x24 PUSH1 0x0 REVERT JUMPDEST PUSH32 0x4E487B7100000000000000000000000000000000000000000000000000000000 PUSH1 0x0 MSTORE PUSH1 0x22 PUSH1 0x4 MSTORE PUSH1 0x24 PUSH1 0x0 REVERT JUMPDEST PUSH1 0x0 PUSH1 0x2 DUP3 DIV SWAP1 POP PUSH1 0x1 DUP3 AND DUP1 PUSH3 0x24E JUMPI PUSH1 0x7F DUP3 AND SWAP2 POP JUMPDEST PUSH1 0x20 DUP3 LT DUP2 SUB PUSH3 0x264 JUMPI PUSH3 0x263 PUSH3 0x206 JUMP JUMPDEST JUMPDEST POP SWAP2 SWAP1 POP JUMP JUMPDEST PUSH1 0x0 DUP2 SWAP1 POP DUP2 PUSH1 0x0 MSTORE PUSH1 0x20 PUSH1 0x0 KECCAK256 SWAP1 POP SWAP2 SWAP1 POP JUMP JUMPDEST PUSH1 0x0 PUSH1 0x20 PUSH1 0x1F DUP4 ADD DIV SWAP1 POP SWAP2 SWAP1 POP JUMP JUMPDEST PUSH1 0x0 DUP3 DUP3 SHL SWAP1 POP SWAP3 SWAP2 POP POP JUMP JUMPDEST PUSH1 0x0 PUSH1 0x8 DUP4 MUL PUSH3 0x2CE PUSH32 0xFFFFFFFFFFFFFFFFFFFFFFFFFFFFFFFFFFFFFFFFFFFFFFFFFFFFFFFFFFFFFFFF DUP3 PUSH3 0x28F JUMP JUMPDEST PUSH3 0x2DA DUP7 DUP4 PUSH3 0x28F JUMP JUMPDEST SWAP6 POP DUP1 NOT DUP5 AND SWAP4 POP DUP1 DUP7 AND DUP5 OR SWAP3 POP POP POP SWAP4 SWAP3 POP POP POP JUMP JUMPDEST PUSH1 0x0 DUP2 SWAP1 POP SWAP2 SWAP1 POP JUMP JUMPDEST PUSH1 0x0 DUP2 SWAP1 POP SWAP2 SWAP1 POP JUMP JUMPDEST PUSH1 0x0 PUSH3 0x327 PUSH3 0x321 PUSH3 0x31B DUP5 PUSH3 0x2F2 JUMP JUMPDEST PUSH3 0x2FC JUMP JUMPDEST PUSH3 0x2F2 JUMP JUMPDEST SWAP1 POP SWAP2 SWAP1 POP JUMP JUMPDEST PUSH1 0x0 DUP2 SWAP1 POP SWAP2 SWAP1 POP JUMP JUMPDEST PUSH3 0x343 DUP4 PUSH3 0x306 JUMP JUMPDEST PUSH3 0x35B PUSH3 0x352 DUP3 PUSH3 0x32E JUMP JUMPDEST DUP5 DUP5 SLOAD PUSH3 0x29C JUMP JUMPDEST DUP3 SSTORE POP POP POP POP JUMP JUMPDEST PUSH1 0x0 SWAP1 JUMP JUMPDEST PUSH3 0x372 PUSH3 0x363 JUMP JUMPDEST PUSH3 0x37F DUP2 DUP5 DUP5 PUSH3 0x338 JUMP JUMPDEST POP POP POP JUMP JUMPDEST JUMPDEST DUP2 DUP2 LT ISZERO PUSH3 0x3A7 JUMPI PUSH3 0x39B PUSH1 0x0 DUP3 PUSH3 0x368 JUMP JUMPDEST PUSH1 0x1 DUP2 ADD SWAP1 POP PUSH3 0x385 JUMP JUMPDEST POP POP JUMP JUMPDEST PUSH1 0x1F DUP3 GT ISZERO PUSH3 0x3F6 JUMPI PUSH3 0x3C0 DUP2 PUSH3 0x26A JUMP JUMPDEST PUSH3 0x3CB DUP5 PUSH3 0x27F JUMP JUMPDEST DUP2 ADD PUSH1 0x20 DUP6 LT ISZERO PUSH3 0x3DB JUMPI DUP2 SWAP1 POP JUMPDEST PUSH3 0x3F3 PUSH3 0x3EA DUP6 PUSH3 0x27F JUMP JUMPDEST DUP4 ADD DUP3 PUSH3 0x384 JUMP JUMPDEST POP POP JUMPDEST POP POP POP JUMP JUMPDEST PUSH1 0x0 DUP3 DUP3 SHR SWAP1 POP SWAP3 SWAP2 POP POP JUMP JUMPDEST PUSH1 0x0 PUSH3 0x41B PUSH1 0x0 NOT DUP5 PUSH1 0x8 MUL PUSH3 0x3FB JUMP JUMPDEST NOT DUP1 DUP4 AND SWAP2 POP POP SWAP3 SWAP2 POP POP JUMP JUMPDEST PUSH1 0x0 PUSH3 0x436 DUP4 DUP4 PUSH3 0x408 JUMP JUMPDEST SWAP2 POP DUP3 PUSH1 0x2 MUL DUP3 OR SWAP1 POP SWAP3 SWAP2 POP POP JUMP JUMPDEST PUSH3 0x451 DUP3 PUSH3 0x1CC JUMP JUMPDEST PUSH8 0xFFFFFFFFFFFFFFFF DUP2 GT ISZERO PUSH3 0x46D JUMPI PUSH3 0x46C PUSH3 0x1D7 JUMP JUMPDEST JUMPDEST PUSH3 0x479 DUP3 SLOAD PUSH3 0x235 JUMP JUMPDEST PUSH3 0x486 DUP3 DUP3 DUP6 PUSH3 0x3AB JUMP JUMPDEST PUSH1 0x0 PUSH1 0x20 SWAP1 POP PUSH1 0x1F DUP4 GT PUSH1 0x1 DUP2 EQ PUSH3 0x4BE JUMPI PUSH1 0x0 DUP5 ISZERO PUSH3 0x4A9 JUMPI DUP3 DUP8 ADD MLOAD SWAP1 POP JUMPDEST PUSH3 0x4B5 DUP6 DUP3 PUSH3 0x428 JUMP JUMPDEST DUP7 SSTORE POP PUSH3 0x525 JUMP JUMPDEST PUSH1 0x1F NOT DUP5 AND PUSH3 0x4CE DUP7 PUSH3 0x26A JUMP JUMPDEST PUSH1 0x0 JUMPDEST DUP3 DUP2 LT ISZERO PUSH3 0x4F8 JUMPI DUP5 DUP10 ADD MLOAD DUP3 SSTORE PUSH1 0x1 DUP3 ADD SWAP2 POP PUSH1 0x20 DUP6 ADD SWAP5 POP PUSH1 0x20 DUP2 ADD SWAP1 POP PUSH3 0x4D1 JUMP JUMPDEST DUP7 DUP4 LT ISZERO PUSH3 0x518 JUMPI DUP5 DUP10 ADD MLOAD PUSH3 0x514 PUSH1 0x1F DUP10 AND DUP3 PUSH3 0x408 JUMP JUMPDEST DUP4 SSTORE POP JUMPDEST PUSH1 0x1 PUSH1 0x2 DUP9 MUL ADD DUP9 SSTORE POP POP POP JUMPDEST POP POP POP POP POP POP JUMP JUMPDEST PUSH2 0x3175 DUP1 PUSH3 0x53D PUSH1 0x0 CODECOPY PUSH1 0x0 RETURN INVALID PUSH1 0x80 PUSH1 0x40 MSTORE PUSH1 0x4 CALLDATASIZE LT PUSH2 0xA7 JUMPI PUSH1 0x0 CALLDATALOAD PUSH1 0xE0 SHR DUP1 PUSH4 0x9CD441DA GT PUSH2 0x64 JUMPI DUP1 PUSH4 0x9CD441DA EQ PUSH2 0x15E JUMPI DUP1 PUSH4 0xA22280A6 EQ PUSH2 0x17A JUMPI DUP1 PUSH4 0xD4CADF68 EQ PUSH2 0x196 JUMPI DUP1 PUSH4 0xF2FDE38B EQ PUSH2 0x1C2 JUMPI DUP1 PUSH4 0xF694F7D1 EQ PUSH2 0x1EB JUMPI DUP1 PUSH4 0xFC0C546A EQ PUSH2 0x216 JUMPI PUSH2 0xA7 JUMP JUMPDEST DUP1 PUSH4 0x2EAB2841 EQ PUSH2 0xAC JUMPI DUP1 PUSH4 0x58AD6DE4 EQ PUSH2 0xC8 JUMPI DUP1 PUSH4 0x715018A6 EQ PUSH2 0xE4 JUMPI DUP1 PUSH4 0x8259E6A0 EQ PUSH2 0xFB JUMPI DUP1 PUSH4 0x857620E1 EQ PUSH2 0x117 JUMPI DUP1 PUSH4 0x8DA5CB5B EQ PUSH2 0x133 JUMPI JUMPDEST PUSH1 0x0 DUP1 REVERT JUMPDEST PUSH2 0xC6 PUSH1 0x4 DUP1 CALLDATASIZE SUB DUP2 ADD SWAP1 PUSH2 0xC1 SWAP2 SWAP1 PUSH2 0x2030 JUMP JUMPDEST PUSH2 0x241 JUMP JUMPDEST STOP JUMPDEST PUSH2 0xE2 PUSH1 0x4 DUP1 CALLDATASIZE SUB DUP2 ADD SWAP1 PUSH2 0xDD SWAP2 SWAP1 PUSH2 0x205D JUMP JUMPDEST PUSH2 0x469 JUMP JUMPDEST STOP JUMPDEST CALLVALUE DUP1 ISZERO PUSH2 0xF0 JUMPI PUSH1 0x0 DUP1 REVERT JUMPDEST POP PUSH2 0xF9 PUSH2 0xA41 JUMP JUMPDEST STOP JUMPDEST PUSH2 0x115 PUSH1 0x4 DUP1 CALLDATASIZE SUB DUP2 ADD SWAP1 PUSH2 0x110 SWAP2 SWAP1 PUSH2 0x2030 JUMP JUMPDEST PUSH2 0xA55 JUMP JUMPDEST STOP JUMPDEST PUSH2 0x131 PUSH1 0x4 DUP1 CALLDATASIZE SUB DUP2 ADD SWAP1 PUSH2 0x12C SWAP2 SWAP1 PUSH2 0x209D JUMP JUMPDEST PUSH2 0xDB6 JUMP JUMPDEST STOP JUMPDEST CALLVALUE DUP1 ISZERO PUSH2 0x13F JUMPI PUSH1 0x0 DUP1 REVERT JUMPDEST POP PUSH2 0x148 PUSH2 0x1403 JUMP JUMPDEST PUSH1 0x40 MLOAD PUSH2 0x155 SWAP2 SWAP1 PUSH2 0x2131 JUMP JUMPDEST PUSH1 0x40 MLOAD DUP1 SWAP2 SUB SWAP1 RETURN JUMPDEST PUSH2 0x178 PUSH1 0x4 DUP1 CALLDATASIZE SUB DUP2 ADD SWAP1 PUSH2 0x173 SWAP2 SWAP1 PUSH2 0x205D JUMP JUMPDEST PUSH2 0x142C JUMP JUMPDEST STOP JUMPDEST PUSH2 0x194 PUSH1 0x4 DUP1 CALLDATASIZE SUB DUP2 ADD SWAP1 PUSH2 0x18F SWAP2 SWAP1 PUSH2 0x205D JUMP JUMPDEST PUSH2 0x19B4 JUMP JUMPDEST STOP JUMPDEST CALLVALUE DUP1 ISZERO PUSH2 0x1A2 JUMPI PUSH1 0x0 DUP1 REVERT JUMPDEST POP PUSH2 0x1AB PUSH2 0x1C26 JUMP JUMPDEST PUSH1 0x40 MLOAD PUSH2 0x1B9 SWAP3 SWAP2 SWAP1 PUSH2 0x215B JUMP JUMPDEST PUSH1 0x40 MLOAD DUP1 SWAP2 SUB SWAP1 RETURN JUMPDEST CALLVALUE DUP1 ISZERO PUSH2 0x1CE JUMPI PUSH1 0x0 DUP1 REVERT JUMPDEST POP PUSH2 0x1E9 PUSH1 0x4 DUP1 CALLDATASIZE SUB DUP2 ADD SWAP1 PUSH2 0x1E4 SWAP2 SWAP1 PUSH2 0x21B0 JUMP JUMPDEST PUSH2 0x1C37 JUMP JUMPDEST STOP JUMPDEST CALLVALUE DUP1 ISZERO PUSH2 0x1F7 JUMPI PUSH1 0x0 DUP1 REVERT JUMPDEST POP PUSH2 0x200 PUSH2 0x1CBA JUMP JUMPDEST PUSH1 0x40 MLOAD PUSH2 0x20D SWAP2 SWAP1 PUSH2 0x226D JUMP JUMPDEST PUSH1 0x40 MLOAD DUP1 SWAP2 SUB SWAP1 RETURN JUMPDEST CALLVALUE DUP1 ISZERO PUSH2 0x222 JUMPI PUSH1 0x0 DUP1 REVERT JUMPDEST POP PUSH2 0x22B PUSH2 0x1D48 JUMP JUMPDEST PUSH1 0x40 MLOAD PUSH2 0x238 SWAP2 SWAP1 PUSH2 0x22EE JUMP JUMPDEST PUSH1 0x40 MLOAD DUP1 SWAP2 SUB SWAP1 RETURN JUMPDEST DUP1 PUSH1 0x4 SLOAD PUSH1 0x64 PUSH1 0x5 SLOAD PUSH2 0x254 SWAP2 SWAP1 PUSH2 0x2338 JUMP JUMPDEST PUSH2 0x25E SWAP2 SWAP1 PUSH2 0x23A9 JUMP JUMPDEST GT ISZERO PUSH2 0x29F JUMPI PUSH1 0x40 MLOAD PUSH32 0x8C379A000000000000000000000000000000000000000000000000000000000 DUP2 MSTORE PUSH1 0x4 ADD PUSH2 0x296 SWAP1 PUSH2 0x244C JUMP JUMPDEST PUSH1 0x40 MLOAD DUP1 SWAP2 SUB SWAP1 REVERT JUMPDEST PUSH1 0x0 PUSH1 0xB SLOAD PUSH1 0xA SLOAD PUSH2 0x2B1 SWAP2 SWAP1 PUSH2 0x23A9 JUMP JUMPDEST CALLVALUE PUSH2 0x2BC SWAP2 SWAP1 PUSH2 0x2338 JUMP JUMPDEST SWAP1 POP DUP1 PUSH1 0x7 PUSH1 0x0 DUP3 DUP3 SLOAD PUSH2 0x2D0 SWAP2 SWAP1 PUSH2 0x246C JUMP JUMPDEST SWAP3 POP POP DUP2 SWAP1 SSTORE POP PUSH1 0x0 DUP2 CALLVALUE PUSH1 0x5 SLOAD PUSH2 0x2E8 SWAP2 SWAP1 PUSH2 0x246C JUMP JUMPDEST PUSH2 0x2F2 SWAP2 SWAP1 PUSH2 0x24A0 JUMP JUMPDEST SWAP1 POP PUSH1 0x0 DUP2 PUSH1 0xC SLOAD PUSH2 0x304 SWAP2 SWAP1 PUSH2 0x23A9 JUMP JUMPDEST SWAP1 POP PUSH1 0x1 DUP2 LT ISZERO PUSH2 0x34A JUMPI PUSH1 0x40 MLOAD PUSH32 0x8C379A000000000000000000000000000000000000000000000000000000000 DUP2 MSTORE PUSH1 0x4 ADD PUSH2 0x341 SWAP1 PUSH2 0x2546 JUMP JUMPDEST PUSH1 0x40 MLOAD DUP1 SWAP2 SUB SWAP1 REVERT JUMPDEST PUSH1 0x0 DUP2 PUSH1 0x4 SLOAD PUSH2 0x35A SWAP2 SWAP1 PUSH2 0x24A0 JUMP JUMPDEST SWAP1 POP PUSH1 0x1 ISZERO ISZERO PUSH1 0x3 PUSH1 0x0 SWAP1 SLOAD SWAP1 PUSH2 0x100 EXP SWAP1 DIV PUSH20 0xFFFFFFFFFFFFFFFFFFFFFFFFFFFFFFFFFFFFFFFF AND PUSH20 0xFFFFFFFFFFFFFFFFFFFFFFFFFFFFFFFFFFFFFFFF AND PUSH4 0xA9059CBB CALLER DUP5 PUSH1 0x40 MLOAD DUP4 PUSH4 0xFFFFFFFF AND PUSH1 0xE0 SHL DUP2 MSTORE PUSH1 0x4 ADD PUSH2 0x3BD SWAP3 SWAP2 SWAP1 PUSH2 0x2566 JUMP JUMPDEST PUSH1 0x20 PUSH1 0x40 MLOAD DUP1 DUP4 SUB DUP2 PUSH1 0x0 DUP8 GAS CALL ISZERO DUP1 ISZERO PUSH2 0x3DC JUMPI RETURNDATASIZE PUSH1 0x0 DUP1 RETURNDATACOPY RETURNDATASIZE PUSH1 0x0 REVERT JUMPDEST POP POP POP POP PUSH1 0x40 MLOAD RETURNDATASIZE PUSH1 0x1F NOT PUSH1 0x1F DUP3 ADD AND DUP3 ADD DUP1 PUSH1 0x40 MSTORE POP DUP2 ADD SWAP1 PUSH2 0x400 SWAP2 SWAP1 PUSH2 0x25C7 JUMP JUMPDEST ISZERO ISZERO EQ PUSH2 0x442 JUMPI PUSH1 0x40 MLOAD PUSH32 0x8C379A000000000000000000000000000000000000000000000000000000000 DUP2 MSTORE PUSH1 0x4 ADD PUSH2 0x439 SWAP1 PUSH2 0x2666 JUMP JUMPDEST PUSH1 0x40 MLOAD DUP1 SWAP2 SUB SWAP1 REVERT JUMPDEST DUP3 PUSH1 0x5 DUP2 SWAP1 SSTORE POP DUP1 PUSH1 0x4 PUSH1 0x0 DUP3 DUP3 SLOAD PUSH2 0x45B SWAP2 SWAP1 PUSH2 0x24A0 JUMP JUMPDEST SWAP3 POP POP DUP2 SWAP1 SSTORE POP POP POP POP POP POP JUMP JUMPDEST PUSH1 0x7 SLOAD PUSH1 0x5 PUSH1 0x0 DUP3 DUP3 SLOAD PUSH2 0x47D SWAP2 SWAP1 PUSH2 0x246C JUMP JUMPDEST SWAP3 POP POP DUP2 SWAP1 SSTORE POP PUSH1 0x6 SLOAD PUSH1 0x4 PUSH1 0x0 DUP3 DUP3 SLOAD PUSH2 0x498 SWAP2 SWAP1 PUSH2 0x246C JUMP JUMPDEST SWAP3 POP POP DUP2 SWAP1 SSTORE POP PUSH1 0x0 PUSH1 0x7 DUP2 SWAP1 SSTORE POP PUSH1 0x0 PUSH1 0x6 DUP2 SWAP1 SSTORE POP PUSH1 0x0 PUSH2 0x2710 PUSH1 0x5 SLOAD PUSH1 0x8 PUSH1 0x0 CALLER PUSH20 0xFFFFFFFFFFFFFFFFFFFFFFFFFFFFFFFFFFFFFFFF AND PUSH20 0xFFFFFFFFFFFFFFFFFFFFFFFFFFFFFFFFFFFFFFFF AND DUP2 MSTORE PUSH1 0x20 ADD SWAP1 DUP2 MSTORE PUSH1 0x20 ADD PUSH1 0x0 KECCAK256 SLOAD PUSH2 0x501 SWAP2 SWAP1 PUSH2 0x2338 JUMP JUMPDEST PUSH2 0x50B SWAP2 SWAP1 PUSH2 0x23A9 JUMP JUMPDEST SWAP1 POP PUSH1 0x0 PUSH2 0x2710 PUSH1 0x4 SLOAD PUSH1 0x8 PUSH1 0x0 CALLER PUSH20 0xFFFFFFFFFFFFFFFFFFFFFFFFFFFFFFFFFFFFFFFF AND PUSH20 0xFFFFFFFFFFFFFFFFFFFFFFFFFFFFFFFFFFFFFFFF AND DUP2 MSTORE PUSH1 0x20 ADD SWAP1 DUP2 MSTORE PUSH1 0x20 ADD PUSH1 0x0 KECCAK256 SLOAD PUSH2 0x55F SWAP2 SWAP1 PUSH2 0x2338 JUMP JUMPDEST PUSH2 0x569 SWAP2 SWAP1 PUSH2 0x23A9 JUMP JUMPDEST SWAP1 POP PUSH1 0x5 SLOAD DUP3 LT PUSH2 0x5AF JUMPI PUSH1 0x40 MLOAD PUSH32 0x8C379A000000000000000000000000000000000000000000000000000000000 DUP2 MSTORE PUSH1 0x4 ADD PUSH2 0x5A6 SWAP1 PUSH2 0x26F8 JUMP JUMPDEST PUSH1 0x40 MLOAD DUP1 SWAP2 SUB SWAP1 REVERT JUMPDEST PUSH1 0x4 SLOAD DUP2 LT PUSH2 0x5F3 JUMPI PUSH1 0x40 MLOAD PUSH32 0x8C379A000000000000000000000000000000000000000000000000000000000 DUP2 MSTORE PUSH1 0x4 ADD PUSH2 0x5EA SWAP1 PUSH2 0x278A JUMP JUMPDEST PUSH1 0x40 MLOAD DUP1 SWAP2 SUB SWAP1 REVERT JUMPDEST DUP4 PUSH1 0x4 SLOAD PUSH1 0x64 PUSH1 0x5 SLOAD PUSH2 0x606 SWAP2 SWAP1 PUSH2 0x2338 JUMP JUMPDEST PUSH2 0x610 SWAP2 SWAP1 PUSH2 0x23A9 JUMP JUMPDEST GT ISZERO PUSH2 0x651 JUMPI PUSH1 0x40 MLOAD PUSH32 0x8C379A000000000000000000000000000000000000000000000000000000000 DUP2 MSTORE PUSH1 0x4 ADD PUSH2 0x648 SWAP1 PUSH2 0x244C JUMP JUMPDEST PUSH1 0x40 MLOAD DUP1 SWAP2 SUB SWAP1 REVERT JUMPDEST DUP3 PUSH1 0x4 SLOAD PUSH1 0x64 PUSH1 0x5 SLOAD PUSH2 0x664 SWAP2 SWAP1 PUSH2 0x2338 JUMP JUMPDEST PUSH2 0x66E SWAP2 SWAP1 PUSH2 0x23A9 JUMP JUMPDEST LT ISZERO PUSH2 0x6AF JUMPI PUSH1 0x40 MLOAD PUSH32 0x8C379A000000000000000000000000000000000000000000000000000000000 DUP2 MSTORE PUSH1 0x4 ADD PUSH2 0x6A6 SWAP1 PUSH2 0x281C JUMP JUMPDEST PUSH1 0x40 MLOAD DUP1 SWAP2 SUB SWAP1 REVERT JUMPDEST PUSH1 0x0 PUSH1 0x5 SLOAD SWAP1 POP CALLER PUSH20 0xFFFFFFFFFFFFFFFFFFFFFFFFFFFFFFFFFFFFFFFF AND PUSH2 0x8FC DUP5 SWAP1 DUP2 ISZERO MUL SWAP1 PUSH1 0x40 MLOAD PUSH1 0x0 PUSH1 0x40 MLOAD DUP1 DUP4 SUB DUP2 DUP6 DUP9 DUP9 CALL SWAP4 POP POP POP POP ISZERO DUP1 ISZERO PUSH2 0x6FC JUMPI RETURNDATASIZE PUSH1 0x0 DUP1 RETURNDATACOPY RETURNDATASIZE PUSH1 0x0 REVERT JUMPDEST POP PUSH1 0x1 ISZERO ISZERO PUSH1 0x3 PUSH1 0x0 SWAP1 SLOAD SWAP1 PUSH2 0x100 EXP SWAP1 DIV PUSH20 0xFFFFFFFFFFFFFFFFFFFFFFFFFFFFFFFFFFFFFFFF AND PUSH20 0xFFFFFFFFFFFFFFFFFFFFFFFFFFFFFFFFFFFFFFFF AND PUSH4 0xA9059CBB CALLER DUP6 PUSH1 0x40 MLOAD DUP4 PUSH4 0xFFFFFFFF AND PUSH1 0xE0 SHL DUP2 MSTORE PUSH1 0x4 ADD PUSH2 0x75E SWAP3 SWAP2 SWAP1 PUSH2 0x2566 JUMP JUMPDEST PUSH1 0x20 PUSH1 0x40 MLOAD DUP1 DUP4 SUB DUP2 PUSH1 0x0 DUP8 GAS CALL ISZERO DUP1 ISZERO PUSH2 0x77D JUMPI RETURNDATASIZE PUSH1 0x0 DUP1 RETURNDATACOPY RETURNDATASIZE PUSH1 0x0 REVERT JUMPDEST POP POP POP POP PUSH1 0x40 MLOAD RETURNDATASIZE PUSH1 0x1F NOT PUSH1 0x1F DUP3 ADD AND DUP3 ADD DUP1 PUSH1 0x40 MSTORE POP DUP2 ADD SWAP1 PUSH2 0x7A1 SWAP2 SWAP1 PUSH2 0x25C7 JUMP JUMPDEST ISZERO ISZERO EQ PUSH2 0x7E3 JUMPI PUSH1 0x40 MLOAD PUSH32 0x8C379A000000000000000000000000000000000000000000000000000000000 DUP2 MSTORE PUSH1 0x4 ADD PUSH2 0x7DA SWAP1 PUSH2 0x2666 JUMP JUMPDEST PUSH1 0x40 MLOAD DUP1 SWAP2 SUB SWAP1 REVERT JUMPDEST DUP3 PUSH1 0x5 PUSH1 0x0 DUP3 DUP3 SLOAD PUSH2 0x7F5 SWAP2 SWAP1 PUSH2 0x24A0 JUMP JUMPDEST SWAP3 POP POP DUP2 SWAP1 SSTORE POP DUP2 PUSH1 0x4 PUSH1 0x0 DUP3 DUP3 SLOAD PUSH2 0x80E SWAP2 SWAP1 PUSH2 0x24A0 JUMP JUMPDEST SWAP3 POP POP DUP2 SWAP1 SSTORE POP PUSH1 0x5 SLOAD PUSH1 0x4 SLOAD PUSH2 0x825 SWAP2 SWAP1 PUSH2 0x2338 JUMP JUMPDEST PUSH1 0xC DUP2 SWAP1 SSTORE POP PUSH1 0x0 PUSH1 0x9 DUP1 SLOAD SWAP1 POP SWAP1 POP PUSH1 0x0 PUSH1 0x9 DUP1 SLOAD SWAP1 POP SWAP1 POP PUSH1 0x0 JUMPDEST DUP2 DUP2 LT ISZERO PUSH2 0x9E9 JUMPI CALLER PUSH20 0xFFFFFFFFFFFFFFFFFFFFFFFFFFFFFFFFFFFFFFFF AND PUSH1 0x9 DUP3 DUP2 SLOAD DUP2 LT PUSH2 0x875 JUMPI PUSH2 0x874 PUSH2 0x283C JUMP JUMPDEST JUMPDEST SWAP1 PUSH1 0x0 MSTORE PUSH1 0x20 PUSH1 0x0 KECCAK256 ADD PUSH1 0x0 SWAP1 SLOAD SWAP1 PUSH2 0x100 EXP SWAP1 DIV PUSH20 0xFFFFFFFFFFFFFFFFFFFFFFFFFFFFFFFFFFFFFFFF AND PUSH20 0xFFFFFFFFFFFFFFFFFFFFFFFFFFFFFFFFFFFFFFFF AND SUB PUSH2 0x8BF JUMPI DUP1 SWAP3 POP JUMPDEST PUSH1 0x5 SLOAD DUP5 PUSH1 0x8 PUSH1 0x0 PUSH1 0x9 DUP6 DUP2 SLOAD DUP2 LT PUSH2 0x8DB JUMPI PUSH2 0x8DA PUSH2 0x283C JUMP JUMPDEST JUMPDEST SWAP1 PUSH1 0x0 MSTORE PUSH1 0x20 PUSH1 0x0 KECCAK256 ADD PUSH1 0x0 SWAP1 SLOAD SWAP1 PUSH2 0x100 EXP SWAP1 DIV PUSH20 0xFFFFFFFFFFFFFFFFFFFFFFFFFFFFFFFFFFFFFFFF AND PUSH20 0xFFFFFFFFFFFFFFFFFFFFFFFFFFFFFFFFFFFFFFFF AND PUSH20 0xFFFFFFFFFFFFFFFFFFFFFFFFFFFFFFFFFFFFFFFF AND DUP2 MSTORE PUSH1 0x20 ADD SWAP1 DUP2 MSTORE PUSH1 0x20 ADD PUSH1 0x0 KECCAK256 SLOAD PUSH2 0x94B SWAP2 SWAP1 PUSH2 0x2338 JUMP JUMPDEST PUSH2 0x955 SWAP2 SWAP1 PUSH2 0x23A9 JUMP JUMPDEST PUSH1 0x8 PUSH1 0x0 PUSH1 0x9 DUP5 DUP2 SLOAD DUP2 LT PUSH2 0x96D JUMPI PUSH2 0x96C PUSH2 0x283C JUMP JUMPDEST JUMPDEST SWAP1 PUSH1 0x0 MSTORE PUSH1 0x20 PUSH1 0x0 KECCAK256 ADD PUSH1 0x0 SWAP1 SLOAD SWAP1 PUSH2 0x100 EXP SWAP1 DIV PUSH20 0xFFFFFFFFFFFFFFFFFFFFFFFFFFFFFFFFFFFFFFFF AND PUSH20 0xFFFFFFFFFFFFFFFFFFFFFFFFFFFFFFFFFFFFFFFF AND PUSH20 0xFFFFFFFFFFFFFFFFFFFFFFFFFFFFFFFFFFFFFFFF AND DUP2 MSTORE PUSH1 0x20 ADD SWAP1 DUP2 MSTORE PUSH1 0x20 ADD PUSH1 0x0 KECCAK256 DUP2 SWAP1 SSTORE POP DUP1 DUP1 PUSH2 0x9E1 SWAP1 PUSH2 0x286B JUMP JUMPDEST SWAP2 POP POP PUSH2 0x842 JUMP JUMPDEST POP PUSH1 0x0 PUSH1 0x8 PUSH1 0x0 CALLER PUSH20 0xFFFFFFFFFFFFFFFFFFFFFFFFFFFFFFFFFFFFFFFF AND PUSH20 0xFFFFFFFFFFFFFFFFFFFFFFFFFFFFFFFFFFFFFFFF AND DUP2 MSTORE PUSH1 0x20 ADD SWAP1 DUP2 MSTORE PUSH1 0x20 ADD PUSH1 0x0 KECCAK256 DUP2 SWAP1 SSTORE POP PUSH2 0xA38 DUP3 PUSH2 0x1D6E JUMP JUMPDEST POP POP POP POP POP POP POP JUMP JUMPDEST PUSH2 0xA49 PUSH2 0x1EAB JUMP JUMPDEST PUSH2 0xA53 PUSH1 0x0 PUSH2 0x1F29 JUMP JUMPDEST JUMP JUMPDEST PUSH2 0xA5D PUSH2 0x1EAB JUMP JUMPDEST PUSH1 0x0 PUSH1 0x4 SLOAD EQ PUSH2 0xAA2 JUMPI PUSH1 0x40 MLOAD PUSH32 0x8C379A000000000000000000000000000000000000000000000000000000000 DUP2 MSTORE PUSH1 0x4 ADD PUSH2 0xA99 SWAP1 PUSH2 0x28FF JUMP JUMPDEST PUSH1 0x40 MLOAD DUP1 SWAP2 SUB SWAP1 REVERT JUMPDEST PUSH1 0x0 PUSH1 0x5 SLOAD EQ PUSH2 0xAE7 JUMPI PUSH1 0x40 MLOAD PUSH32 0x8C379A000000000000000000000000000000000000000000000000000000000 DUP2 MSTORE PUSH1 0x4 ADD PUSH2 0xADE SWAP1 PUSH2 0x296B JUMP JUMPDEST PUSH1 0x40 MLOAD DUP1 SWAP2 SUB SWAP1 REVERT JUMPDEST PUSH1 0x0 CALLVALUE GT PUSH2 0xB2A JUMPI PUSH1 0x40 MLOAD PUSH32 0x8C379A000000000000000000000000000000000000000000000000000000000 DUP2 MSTORE PUSH1 0x4 ADD PUSH2 0xB21 SWAP1 PUSH2 0x29D7 JUMP JUMPDEST PUSH1 0x40 MLOAD DUP1 SWAP2 SUB SWAP1 REVERT JUMPDEST PUSH1 0x0 PUSH1 0x3 PUSH1 0x0 SWAP1 SLOAD SWAP1 PUSH2 0x100 EXP SWAP1 DIV PUSH20 0xFFFFFFFFFFFFFFFFFFFFFFFFFFFFFFFFFFFFFFFF AND PUSH20 0xFFFFFFFFFFFFFFFFFFFFFFFFFFFFFFFFFFFFFFFF AND PUSH4 0x70A08231 CALLER PUSH1 0x40 MLOAD DUP3 PUSH4 0xFFFFFFFF AND PUSH1 0xE0 SHL DUP2 MSTORE PUSH1 0x4 ADD PUSH2 0xB87 SWAP2 SWAP1 PUSH2 0x2131 JUMP JUMPDEST PUSH1 0x20 PUSH1 0x40 MLOAD DUP1 DUP4 SUB DUP2 DUP7 GAS STATICCALL ISZERO DUP1 ISZERO PUSH2 0xBA4 JUMPI RETURNDATASIZE PUSH1 0x0 DUP1 RETURNDATACOPY RETURNDATASIZE PUSH1 0x0 REVERT JUMPDEST POP POP POP POP PUSH1 0x40 MLOAD RETURNDATASIZE PUSH1 0x1F NOT PUSH1 0x1F DUP3 ADD AND DUP3 ADD DUP1 PUSH1 0x40 MSTORE POP DUP2 ADD SWAP1 PUSH2 0xBC8 SWAP2 SWAP1 PUSH2 0x2A0C JUMP JUMPDEST SWAP1 POP DUP1 DUP3 GT ISZERO PUSH2 0xC0D JUMPI PUSH1 0x40 MLOAD PUSH32 0x8C379A000000000000000000000000000000000000000000000000000000000 DUP2 MSTORE PUSH1 0x4 ADD PUSH2 0xC04 SWAP1 PUSH2 0x2AAB JUMP JUMPDEST PUSH1 0x40 MLOAD DUP1 SWAP2 SUB SWAP1 REVERT JUMPDEST PUSH1 0x0 DUP3 GT PUSH2 0xC50 JUMPI PUSH1 0x40 MLOAD PUSH32 0x8C379A000000000000000000000000000000000000000000000000000000000 DUP2 MSTORE PUSH1 0x4 ADD PUSH2 0xC47 SWAP1 PUSH2 0x2B17 JUMP JUMPDEST PUSH1 0x40 MLOAD DUP1 SWAP2 SUB SWAP1 REVERT JUMPDEST PUSH1 0x3 PUSH1 0x0 SWAP1 SLOAD SWAP1 PUSH2 0x100 EXP SWAP1 DIV PUSH20 0xFFFFFFFFFFFFFFFFFFFFFFFFFFFFFFFFFFFFFFFF AND PUSH20 0xFFFFFFFFFFFFFFFFFFFFFFFFFFFFFFFFFFFFFFFF AND PUSH4 0x23B872DD CALLER ADDRESS DUP6 PUSH1 0x40 MLOAD DUP5 PUSH4 0xFFFFFFFF AND PUSH1 0xE0 SHL DUP2 MSTORE PUSH1 0x4 ADD PUSH2 0xCAF SWAP4 SWAP3 SWAP2 SWAP1 PUSH2 0x2B37 JUMP JUMPDEST PUSH1 0x20 PUSH1 0x40 MLOAD DUP1 DUP4 SUB DUP2 PUSH1 0x0 DUP8 GAS CALL ISZERO DUP1 ISZERO PUSH2 0xCCE JUMPI RETURNDATASIZE PUSH1 0x0 DUP1 RETURNDATACOPY RETURNDATASIZE PUSH1 0x0 REVERT JUMPDEST POP POP POP POP PUSH1 0x40 MLOAD RETURNDATASIZE PUSH1 0x1F NOT PUSH1 0x1F DUP3 ADD AND DUP3 ADD DUP1 PUSH1 0x40 MSTORE POP DUP2 ADD SWAP1 PUSH2 0xCF2 SWAP2 SWAP1 PUSH2 0x25C7 JUMP JUMPDEST POP PUSH1 0x3 PUSH1 0x0 SWAP1 SLOAD SWAP1 PUSH2 0x100 EXP SWAP1 DIV PUSH20 0xFFFFFFFFFFFFFFFFFFFFFFFFFFFFFFFFFFFFFFFF AND PUSH20 0xFFFFFFFFFFFFFFFFFFFFFFFFFFFFFFFFFFFFFFFF AND PUSH4 0x70A08231 ADDRESS PUSH1 0x40 MLOAD DUP3 PUSH4 0xFFFFFFFF AND PUSH1 0xE0 SHL DUP2 MSTORE PUSH1 0x4 ADD PUSH2 0xD4E SWAP2 SWAP1 PUSH2 0x2131 JUMP JUMPDEST PUSH1 0x20 PUSH1 0x40 MLOAD DUP1 DUP4 SUB DUP2 DUP7 GAS STATICCALL ISZERO DUP1 ISZERO PUSH2 0xD6B JUMPI RETURNDATASIZE PUSH1 0x0 DUP1 RETURNDATACOPY RETURNDATASIZE PUSH1 0x0 REVERT JUMPDEST POP POP POP POP PUSH1 0x40 MLOAD RETURNDATASIZE PUSH1 0x1F NOT PUSH1 0x1F DUP3 ADD AND DUP3 ADD DUP1 PUSH1 0x40 MSTORE POP DUP2 ADD SWAP1 PUSH2 0xD8F SWAP2 SWAP1 PUSH2 0x2A0C JUMP JUMPDEST PUSH1 0x4 DUP2 SWAP1 SSTORE POP CALLVALUE PUSH1 0x5 DUP2 SWAP1 SSTORE POP PUSH1 0x5 SLOAD PUSH1 0x4 SLOAD PUSH2 0xDAC SWAP2 SWAP1 PUSH2 0x2338 JUMP JUMPDEST PUSH1 0xC DUP2 SWAP1 SSTORE POP POP POP JUMP JUMPDEST PUSH1 0x7 SLOAD PUSH1 0x5 PUSH1 0x0 DUP3 DUP3 SLOAD PUSH2 0xDCA SWAP2 SWAP1 PUSH2 0x246C JUMP JUMPDEST SWAP3 POP POP DUP2 SWAP1 SSTORE POP PUSH1 0x6 SLOAD PUSH1 0x4 PUSH1 0x0 DUP3 DUP3 SLOAD PUSH2 0xDE5 SWAP2 SWAP1 PUSH2 0x246C JUMP JUMPDEST SWAP3 POP POP DUP2 SWAP1 SSTORE POP PUSH1 0x0 PUSH1 0x7 DUP2 SWAP1 SSTORE POP PUSH1 0x0 PUSH1 0x6 DUP2 SWAP1 SSTORE POP PUSH1 0x0 DUP4 GT PUSH2 0xE3F JUMPI PUSH1 0x40 MLOAD PUSH32 0x8C379A000000000000000000000000000000000000000000000000000000000 DUP2 MSTORE PUSH1 0x4 ADD PUSH2 0xE36 SWAP1 PUSH2 0x2BBA JUMP JUMPDEST PUSH1 0x40 MLOAD DUP1 SWAP2 SUB SWAP1 REVERT JUMPDEST PUSH1 0x5 SLOAD DUP4 LT PUSH2 0xE83 JUMPI PUSH1 0x40 MLOAD PUSH32 0x8C379A000000000000000000000000000000000000000000000000000000000 DUP2 MSTORE PUSH1 0x4 ADD PUSH2 0xE7A SWAP1 PUSH2 0x26F8 JUMP JUMPDEST PUSH1 0x40 MLOAD DUP1 SWAP2 SUB SWAP1 REVERT JUMPDEST DUP2 PUSH1 0x4 SLOAD PUSH1 0x64 PUSH1 0x5 SLOAD PUSH2 0xE96 SWAP2 SWAP1 PUSH2 0x2338 JUMP JUMPDEST PUSH2 0xEA0 SWAP2 SWAP1 PUSH2 0x23A9 JUMP JUMPDEST GT ISZERO PUSH2 0xEE1 JUMPI PUSH1 0x40 MLOAD PUSH32 0x8C379A000000000000000000000000000000000000000000000000000000000 DUP2 MSTORE PUSH1 0x4 ADD PUSH2 0xED8 SWAP1 PUSH2 0x244C JUMP JUMPDEST PUSH1 0x40 MLOAD DUP1 SWAP2 SUB SWAP1 REVERT JUMPDEST DUP1 PUSH1 0x4 SLOAD PUSH1 0x64 PUSH1 0x5 SLOAD PUSH2 0xEF4 SWAP2 SWAP1 PUSH2 0x2338 JUMP JUMPDEST PUSH2 0xEFE SWAP2 SWAP1 PUSH2 0x23A9 JUMP JUMPDEST LT ISZERO PUSH2 0xF3F JUMPI PUSH1 0x40 MLOAD PUSH32 0x8C379A000000000000000000000000000000000000000000000000000000000 DUP2 MSTORE PUSH1 0x4 ADD PUSH2 0xF36 SWAP1 PUSH2 0x281C JUMP JUMPDEST PUSH1 0x40 MLOAD DUP1 SWAP2 SUB SWAP1 REVERT JUMPDEST PUSH1 0x0 PUSH2 0x2710 PUSH1 0x5 SLOAD PUSH1 0x8 PUSH1 0x0 CALLER PUSH20 0xFFFFFFFFFFFFFFFFFFFFFFFFFFFFFFFFFFFFFFFF AND PUSH20 0xFFFFFFFFFFFFFFFFFFFFFFFFFFFFFFFFFFFFFFFF AND DUP2 MSTORE PUSH1 0x20 ADD SWAP1 DUP2 MSTORE PUSH1 0x20 ADD PUSH1 0x0 KECCAK256 SLOAD PUSH2 0xF91 SWAP2 SWAP1 PUSH2 0x2338 JUMP JUMPDEST PUSH2 0xF9B SWAP2 SWAP1 PUSH2 0x23A9 JUMP JUMPDEST SWAP1 POP DUP1 DUP5 GT ISZERO PUSH2 0xFE0 JUMPI PUSH1 0x40 MLOAD PUSH32 0x8C379A000000000000000000000000000000000000000000000000000000000 DUP2 MSTORE PUSH1 0x4 ADD PUSH2 0xFD7 SWAP1 PUSH2 0x2C4C JUMP JUMPDEST PUSH1 0x40 MLOAD DUP1 SWAP2 SUB SWAP1 REVERT JUMPDEST PUSH1 0x0 PUSH1 0x5 SLOAD SWAP1 POP PUSH1 0x0 PUSH1 0x5 SLOAD PUSH1 0x4 SLOAD DUP8 PUSH2 0xFFA SWAP2 SWAP1 PUSH2 0x2338 JUMP JUMPDEST PUSH2 0x1004 SWAP2 SWAP1 PUSH2 0x23A9 JUMP JUMPDEST SWAP1 POP CALLER PUSH20 0xFFFFFFFFFFFFFFFFFFFFFFFFFFFFFFFFFFFFFFFF AND PUSH2 0x8FC DUP8 SWAP1 DUP2 ISZERO MUL SWAP1 PUSH1 0x40 MLOAD PUSH1 0x0 PUSH1 0x40 MLOAD DUP1 DUP4 SUB DUP2 DUP6 DUP9 DUP9 CALL SWAP4 POP POP POP POP ISZERO DUP1 ISZERO PUSH2 0x104C JUMPI RETURNDATASIZE PUSH1 0x0 DUP1 RETURNDATACOPY RETURNDATASIZE PUSH1 0x0 REVERT JUMPDEST POP PUSH1 0x1 ISZERO ISZERO PUSH1 0x3 PUSH1 0x0 SWAP1 SLOAD SWAP1 PUSH2 0x100 EXP SWAP1 DIV PUSH20 0xFFFFFFFFFFFFFFFFFFFFFFFFFFFFFFFFFFFFFFFF AND PUSH20 0xFFFFFFFFFFFFFFFFFFFFFFFFFFFFFFFFFFFFFFFF AND PUSH4 0xA9059CBB CALLER DUP5 PUSH1 0x40 MLOAD DUP4 PUSH4 0xFFFFFFFF AND PUSH1 0xE0 SHL DUP2 MSTORE PUSH1 0x4 ADD PUSH2 0x10AE SWAP3 SWAP2 SWAP1 PUSH2 0x2566 JUMP JUMPDEST PUSH1 0x20 PUSH1 0x40 MLOAD DUP1 DUP4 SUB DUP2 PUSH1 0x0 DUP8 GAS CALL ISZERO DUP1 ISZERO PUSH2 0x10CD JUMPI RETURNDATASIZE PUSH1 0x0 DUP1 RETURNDATACOPY RETURNDATASIZE PUSH1 0x0 REVERT JUMPDEST POP POP POP POP PUSH1 0x40 MLOAD RETURNDATASIZE PUSH1 0x1F NOT PUSH1 0x1F DUP3 ADD AND DUP3 ADD DUP1 PUSH1 0x40 MSTORE POP DUP2 ADD SWAP1 PUSH2 0x10F1 SWAP2 SWAP1 PUSH2 0x25C7 JUMP JUMPDEST ISZERO ISZERO EQ PUSH2 0x1133 JUMPI PUSH1 0x40 MLOAD PUSH32 0x8C379A000000000000000000000000000000000000000000000000000000000 DUP2 MSTORE PUSH1 0x4 ADD PUSH2 0x112A SWAP1 PUSH2 0x2666 JUMP JUMPDEST PUSH1 0x40 MLOAD DUP1 SWAP2 SUB SWAP1 REVERT JUMPDEST DUP6 PUSH1 0x5 PUSH1 0x0 DUP3 DUP3 SLOAD PUSH2 0x1145 SWAP2 SWAP1 PUSH2 0x24A0 JUMP JUMPDEST SWAP3 POP POP DUP2 SWAP1 SSTORE POP DUP1 PUSH1 0x4 PUSH1 0x0 DUP3 DUP3 SLOAD PUSH2 0x115E SWAP2 SWAP1 PUSH2 0x24A0 JUMP JUMPDEST SWAP3 POP POP DUP2 SWAP1 SSTORE POP PUSH1 0x5 SLOAD PUSH1 0x4 SLOAD PUSH2 0x1175 SWAP2 SWAP1 PUSH2 0x2338 JUMP JUMPDEST PUSH1 0xC DUP2 SWAP1 SSTORE POP PUSH1 0x5 SLOAD PUSH2 0x2710 DUP8 DUP6 PUSH2 0x118D SWAP2 SWAP1 PUSH2 0x24A0 JUMP JUMPDEST PUSH2 0x1197 SWAP2 SWAP1 PUSH2 0x2338 JUMP JUMPDEST PUSH2 0x11A1 SWAP2 SWAP1 PUSH2 0x23A9 JUMP JUMPDEST PUSH1 0x8 PUSH1 0x0 CALLER PUSH20 0xFFFFFFFFFFFFFFFFFFFFFFFFFFFFFFFFFFFFFFFF AND PUSH20 0xFFFFFFFFFFFFFFFFFFFFFFFFFFFFFFFFFFFFFFFF AND DUP2 MSTORE PUSH1 0x20 ADD SWAP1 DUP2 MSTORE PUSH1 0x20 ADD PUSH1 0x0 KECCAK256 DUP2 SWAP1 SSTORE POP PUSH1 0x0 PUSH1 0x9 DUP1 SLOAD SWAP1 POP SWAP1 POP PUSH1 0x0 PUSH1 0x9 DUP1 SLOAD SWAP1 POP SWAP1 POP PUSH1 0x0 JUMPDEST DUP2 DUP2 LT ISZERO PUSH2 0x13A7 JUMPI CALLER PUSH20 0xFFFFFFFFFFFFFFFFFFFFFFFFFFFFFFFFFFFFFFFF AND PUSH1 0x9 DUP3 DUP2 SLOAD DUP2 LT PUSH2 0x122E JUMPI PUSH2 0x122D PUSH2 0x283C JUMP JUMPDEST JUMPDEST SWAP1 PUSH1 0x0 MSTORE PUSH1 0x20 PUSH1 0x0 KECCAK256 ADD PUSH1 0x0 SWAP1 SLOAD SWAP1 PUSH2 0x100 EXP SWAP1 DIV PUSH20 0xFFFFFFFFFFFFFFFFFFFFFFFFFFFFFFFFFFFFFFFF AND PUSH20 0xFFFFFFFFFFFFFFFFFFFFFFFFFFFFFFFFFFFFFFFF AND SUB PUSH2 0x127C JUMPI DUP1 SWAP3 POP PUSH2 0x1394 JUMP JUMPDEST PUSH1 0x5 SLOAD DUP6 PUSH1 0x8 PUSH1 0x0 PUSH1 0x9 DUP6 DUP2 SLOAD DUP2 LT PUSH2 0x1298 JUMPI PUSH2 0x1297 PUSH2 0x283C JUMP JUMPDEST JUMPDEST SWAP1 PUSH1 0x0 MSTORE PUSH1 0x20 PUSH1 0x0 KECCAK256 ADD PUSH1 0x0 SWAP1 SLOAD SWAP1 PUSH2 0x100 EXP SWAP1 DIV PUSH20 0xFFFFFFFFFFFFFFFFFFFFFFFFFFFFFFFFFFFFFFFF AND PUSH20 0xFFFFFFFFFFFFFFFFFFFFFFFFFFFFFFFFFFFFFFFF AND PUSH20 0xFFFFFFFFFFFFFFFFFFFFFFFFFFFFFFFFFFFFFFFF AND DUP2 MSTORE PUSH1 0x20 ADD SWAP1 DUP2 MSTORE PUSH1 0x20 ADD PUSH1 0x0 KECCAK256 SLOAD PUSH2 0x1308 SWAP2 SWAP1 PUSH2 0x2338 JUMP JUMPDEST PUSH2 0x1312 SWAP2 SWAP1 PUSH2 0x23A9 JUMP JUMPDEST PUSH1 0x8 PUSH1 0x0 PUSH1 0x9 DUP5 DUP2 SLOAD DUP2 LT PUSH2 0x132A JUMPI PUSH2 0x1329 PUSH2 0x283C JUMP JUMPDEST JUMPDEST SWAP1 PUSH1 0x0 MSTORE PUSH1 0x20 PUSH1 0x0 KECCAK256 ADD PUSH1 0x0 SWAP1 SLOAD SWAP1 PUSH2 0x100 EXP SWAP1 DIV PUSH20 0xFFFFFFFFFFFFFFFFFFFFFFFFFFFFFFFFFFFFFFFF AND PUSH20 0xFFFFFFFFFFFFFFFFFFFFFFFFFFFFFFFFFFFFFFFF AND PUSH20 0xFFFFFFFFFFFFFFFFFFFFFFFFFFFFFFFFFFFFFFFF AND DUP2 MSTORE PUSH1 0x20 ADD SWAP1 DUP2 MSTORE PUSH1 0x20 ADD PUSH1 0x0 KECCAK256 DUP2 SWAP1 SSTORE POP JUMPDEST DUP1 DUP1 PUSH2 0x139F SWAP1 PUSH2 0x286B JUMP JUMPDEST SWAP2 POP POP PUSH2 0x11FB JUMP JUMPDEST POP PUSH1 0x0 PUSH1 0x8 PUSH1 0x0 CALLER PUSH20 0xFFFFFFFFFFFFFFFFFFFFFFFFFFFFFFFFFFFFFFFF AND PUSH20 0xFFFFFFFFFFFFFFFFFFFFFFFFFFFFFFFFFFFFFFFF AND DUP2 MSTORE PUSH1 0x20 ADD SWAP1 DUP2 MSTORE PUSH1 0x20 ADD PUSH1 0x0 KECCAK256 SLOAD SUB PUSH2 0x13F9 JUMPI PUSH2 0x13F8 DUP3 PUSH2 0x1D6E JUMP JUMPDEST JUMPDEST POP POP POP POP POP POP POP POP JUMP JUMPDEST PUSH1 0x0 DUP1 PUSH1 0x0 SWAP1 SLOAD SWAP1 PUSH2 0x100 EXP SWAP1 DIV PUSH20 0xFFFFFFFFFFFFFFFFFFFFFFFFFFFFFFFFFFFFFFFF AND SWAP1 POP SWAP1 JUMP JUMPDEST PUSH1 0x7 SLOAD PUSH1 0x5 PUSH1 0x0 DUP3 DUP3 SLOAD PUSH2 0x1440 SWAP2 SWAP1 PUSH2 0x246C JUMP JUMPDEST SWAP3 POP POP DUP2 SWAP1 SSTORE POP PUSH1 0x6 SLOAD PUSH1 0x4 PUSH1 0x0 DUP3 DUP3 SLOAD PUSH2 0x145B SWAP2 SWAP1 PUSH2 0x246C JUMP JUMPDEST SWAP3 POP POP DUP2 SWAP1 SSTORE POP PUSH1 0x0 PUSH1 0x7 DUP2 SWAP1 SSTORE POP PUSH1 0x0 PUSH1 0x6 DUP2 SWAP1 SSTORE POP PUSH1 0x0 CALLVALUE GT PUSH2 0x14B5 JUMPI PUSH1 0x40 MLOAD PUSH32 0x8C379A000000000000000000000000000000000000000000000000000000000 DUP2 MSTORE PUSH1 0x4 ADD PUSH2 0x14AC SWAP1 PUSH2 0x2CB8 JUMP JUMPDEST PUSH1 0x40 MLOAD DUP1 SWAP2 SUB SWAP1 REVERT JUMPDEST DUP2 PUSH1 0x4 SLOAD PUSH1 0x64 PUSH1 0x5 SLOAD PUSH2 0x14C8 SWAP2 SWAP1 PUSH2 0x2338 JUMP JUMPDEST PUSH2 0x14D2 SWAP2 SWAP1 PUSH2 0x23A9 JUMP JUMPDEST GT ISZERO PUSH2 0x1513 JUMPI PUSH1 0x40 MLOAD PUSH32 0x8C379A000000000000000000000000000000000000000000000000000000000 DUP2 MSTORE PUSH1 0x4 ADD PUSH2 0x150A SWAP1 PUSH2 0x244C JUMP JUMPDEST PUSH1 0x40 MLOAD DUP1 SWAP2 SUB SWAP1 REVERT JUMPDEST DUP1 PUSH1 0x4 SLOAD PUSH1 0x64 PUSH1 0x5 SLOAD PUSH2 0x1526 SWAP2 SWAP1 PUSH2 0x2338 JUMP JUMPDEST PUSH2 0x1530 SWAP2 SWAP1 PUSH2 0x23A9 JUMP JUMPDEST LT ISZERO PUSH2 0x1571 JUMPI PUSH1 0x40 MLOAD PUSH32 0x8C379A000000000000000000000000000000000000000000000000000000000 DUP2 MSTORE PUSH1 0x4 ADD PUSH2 0x1568 SWAP1 PUSH2 0x281C JUMP JUMPDEST PUSH1 0x40 MLOAD DUP1 SWAP2 SUB SWAP1 REVERT JUMPDEST PUSH1 0x0 PUSH1 0x5 SLOAD PUSH1 0x4 SLOAD CALLVALUE PUSH2 0x1584 SWAP2 SWAP1 PUSH2 0x2338 JUMP JUMPDEST PUSH2 0x158E SWAP2 SWAP1 PUSH2 0x23A9 JUMP JUMPDEST SWAP1 POP PUSH1 0x1 ISZERO ISZERO PUSH1 0x3 PUSH1 0x0 SWAP1 SLOAD SWAP1 PUSH2 0x100 EXP SWAP1 DIV PUSH20 0xFFFFFFFFFFFFFFFFFFFFFFFFFFFFFFFFFFFFFFFF AND PUSH20 0xFFFFFFFFFFFFFFFFFFFFFFFFFFFFFFFFFFFFFFFF AND PUSH4 0x23B872DD CALLER ADDRESS DUP6 PUSH1 0x40 MLOAD DUP5 PUSH4 0xFFFFFFFF AND PUSH1 0xE0 SHL DUP2 MSTORE PUSH1 0x4 ADD PUSH2 0x15F3 SWAP4 SWAP3 SWAP2 SWAP1 PUSH2 0x2B37 JUMP JUMPDEST PUSH1 0x20 PUSH1 0x40 MLOAD DUP1 DUP4 SUB DUP2 PUSH1 0x0 DUP8 GAS CALL ISZERO DUP1 ISZERO PUSH2 0x1612 JUMPI RETURNDATASIZE PUSH1 0x0 DUP1 RETURNDATACOPY RETURNDATASIZE PUSH1 0x0 REVERT JUMPDEST POP POP POP POP PUSH1 0x40 MLOAD RETURNDATASIZE PUSH1 0x1F NOT PUSH1 0x1F DUP3 ADD AND DUP3 ADD DUP1 PUSH1 0x40 MSTORE POP DUP2 ADD SWAP1 PUSH2 0x1636 SWAP2 SWAP1 PUSH2 0x25C7 JUMP JUMPDEST ISZERO ISZERO EQ PUSH2 0x1678 JUMPI PUSH1 0x40 MLOAD PUSH32 0x8C379A000000000000000000000000000000000000000000000000000000000 DUP2 MSTORE PUSH1 0x4 ADD PUSH2 0x166F SWAP1 PUSH2 0x2D4A JUMP JUMPDEST PUSH1 0x40 MLOAD DUP1 SWAP2 SUB SWAP1 REVERT JUMPDEST PUSH1 0x0 PUSH1 0x5 SLOAD SWAP1 POP CALLVALUE PUSH1 0x5 PUSH1 0x0 DUP3 DUP3 SLOAD PUSH2 0x1691 SWAP2 SWAP1 PUSH2 0x246C JUMP JUMPDEST SWAP3 POP POP DUP2 SWAP1 SSTORE POP DUP2 PUSH1 0x4 PUSH1 0x0 DUP3 DUP3 SLOAD PUSH2 0x16AA SWAP2 SWAP1 PUSH2 0x246C JUMP JUMPDEST SWAP3 POP POP DUP2 SWAP1 SSTORE POP PUSH1 0x5 SLOAD PUSH1 0x4 SLOAD PUSH2 0x16C1 SWAP2 SWAP1 PUSH2 0x2338 JUMP JUMPDEST PUSH1 0xC DUP2 SWAP1 SSTORE POP PUSH1 0x5 SLOAD PUSH2 0x2710 CALLVALUE PUSH2 0x2710 DUP5 PUSH1 0x8 PUSH1 0x0 CALLER PUSH20 0xFFFFFFFFFFFFFFFFFFFFFFFFFFFFFFFFFFFFFFFF AND PUSH20 0xFFFFFFFFFFFFFFFFFFFFFFFFFFFFFFFFFFFFFFFF AND DUP2 MSTORE PUSH1 0x20 ADD SWAP1 DUP2 MSTORE PUSH1 0x20 ADD PUSH1 0x0 KECCAK256 SLOAD PUSH2 0x171C SWAP2 SWAP1 PUSH2 0x2338 JUMP JUMPDEST PUSH2 0x1726 SWAP2 SWAP1 PUSH2 0x23A9 JUMP JUMPDEST PUSH2 0x1730 SWAP2 SWAP1 PUSH2 0x246C JUMP JUMPDEST PUSH2 0x173A SWAP2 SWAP1 PUSH2 0x2338 JUMP JUMPDEST PUSH2 0x1744 SWAP2 SWAP1 PUSH2 0x23A9 JUMP JUMPDEST PUSH1 0x8 PUSH1 0x0 CALLER PUSH20 0xFFFFFFFFFFFFFFFFFFFFFFFFFFFFFFFFFFFFFFFF AND PUSH20 0xFFFFFFFFFFFFFFFFFFFFFFFFFFFFFFFFFFFFFFFF AND DUP2 MSTORE PUSH1 0x20 ADD SWAP1 DUP2 MSTORE PUSH1 0x20 ADD PUSH1 0x0 KECCAK256 DUP2 SWAP1 SSTORE POP PUSH1 0x0 DUP1 PUSH1 0x9 DUP1 SLOAD SWAP1 POP SWAP1 POP PUSH1 0x0 JUMPDEST DUP2 DUP2 LT ISZERO PUSH2 0x1942 JUMPI CALLER PUSH20 0xFFFFFFFFFFFFFFFFFFFFFFFFFFFFFFFFFFFFFFFF AND PUSH1 0x9 DUP3 DUP2 SLOAD DUP2 LT PUSH2 0x17C8 JUMPI PUSH2 0x17C7 PUSH2 0x283C JUMP JUMPDEST JUMPDEST SWAP1 PUSH1 0x0 MSTORE PUSH1 0x20 PUSH1 0x0 KECCAK256 ADD PUSH1 0x0 SWAP1 SLOAD SWAP1 PUSH2 0x100 EXP SWAP1 DIV PUSH20 0xFFFFFFFFFFFFFFFFFFFFFFFFFFFFFFFFFFFFFFFF AND PUSH20 0xFFFFFFFFFFFFFFFFFFFFFFFFFFFFFFFFFFFFFFFF AND SUB PUSH2 0x1817 JUMPI PUSH1 0x1 SWAP3 POP PUSH2 0x192F JUMP JUMPDEST PUSH1 0x5 SLOAD DUP5 PUSH1 0x8 PUSH1 0x0 PUSH1 0x9 DUP6 DUP2 SLOAD DUP2 LT PUSH2 0x1833 JUMPI PUSH2 0x1832 PUSH2 0x283C JUMP JUMPDEST JUMPDEST SWAP1 PUSH1 0x0 MSTORE PUSH1 0x20 PUSH1 0x0 KECCAK256 ADD PUSH1 0x0 SWAP1 SLOAD SWAP1 PUSH2 0x100 EXP SWAP1 DIV PUSH20 0xFFFFFFFFFFFFFFFFFFFFFFFFFFFFFFFFFFFFFFFF AND PUSH20 0xFFFFFFFFFFFFFFFFFFFFFFFFFFFFFFFFFFFFFFFF AND PUSH20 0xFFFFFFFFFFFFFFFFFFFFFFFFFFFFFFFFFFFFFFFF AND DUP2 MSTORE PUSH1 0x20 ADD SWAP1 DUP2 MSTORE PUSH1 0x20 ADD PUSH1 0x0 KECCAK256 SLOAD PUSH2 0x18A3 SWAP2 SWAP1 PUSH2 0x2338 JUMP JUMPDEST PUSH2 0x18AD SWAP2 SWAP1 PUSH2 0x23A9 JUMP JUMPDEST PUSH1 0x8 PUSH1 0x0 PUSH1 0x9 DUP5 DUP2 SLOAD DUP2 LT PUSH2 0x18C5 JUMPI PUSH2 0x18C4 PUSH2 0x283C JUMP JUMPDEST JUMPDEST SWAP1 PUSH1 0x0 MSTORE PUSH1 0x20 PUSH1 0x0 KECCAK256 ADD PUSH1 0x0 SWAP1 SLOAD SWAP1 PUSH2 0x100 EXP SWAP1 DIV PUSH20 0xFFFFFFFFFFFFFFFFFFFFFFFFFFFFFFFFFFFFFFFF AND PUSH20 0xFFFFFFFFFFFFFFFFFFFFFFFFFFFFFFFFFFFFFFFF AND PUSH20 0xFFFFFFFFFFFFFFFFFFFFFFFFFFFFFFFFFFFFFFFF AND DUP2 MSTORE PUSH1 0x20 ADD SWAP1 DUP2 MSTORE PUSH1 0x20 ADD PUSH1 0x0 KECCAK256 DUP2 SWAP1 SSTORE POP JUMPDEST DUP1 DUP1 PUSH2 0x193A SWAP1 PUSH2 0x286B JUMP JUMPDEST SWAP2 POP POP PUSH2 0x1795 JUMP JUMPDEST POP DUP2 PUSH2 0x19AC JUMPI PUSH1 0x9 CALLER SWAP1 DUP1 PUSH1 0x1 DUP2 SLOAD ADD DUP1 DUP3 SSTORE DUP1 SWAP2 POP POP PUSH1 0x1 SWAP1 SUB SWAP1 PUSH1 0x0 MSTORE PUSH1 0x20 PUSH1 0x0 KECCAK256 ADD PUSH1 0x0 SWAP1 SWAP2 SWAP1 SWAP2 SWAP1 SWAP2 PUSH2 0x100 EXP DUP2 SLOAD DUP2 PUSH20 0xFFFFFFFFFFFFFFFFFFFFFFFFFFFFFFFFFFFFFFFF MUL NOT AND SWAP1 DUP4 PUSH20 0xFFFFFFFFFFFFFFFFFFFFFFFFFFFFFFFFFFFFFFFF AND MUL OR SWAP1 SSTORE POP JUMPDEST POP POP POP POP POP POP JUMP JUMPDEST DUP1 PUSH1 0x5 SLOAD PUSH1 0x64 PUSH1 0x4 SLOAD PUSH2 0x19C7 SWAP2 SWAP1 PUSH2 0x2338 JUMP JUMPDEST PUSH2 0x19D1 SWAP2 SWAP1 PUSH2 0x23A9 JUMP JUMPDEST GT ISZERO PUSH2 0x1A12 JUMPI PUSH1 0x40 MLOAD PUSH32 0x8C379A000000000000000000000000000000000000000000000000000000000 DUP2 MSTORE PUSH1 0x4 ADD PUSH2 0x1A09 SWAP1 PUSH2 0x2DDC JUMP JUMPDEST PUSH1 0x40 MLOAD DUP1 SWAP2 SUB SWAP1 REVERT JUMPDEST PUSH1 0x0 PUSH1 0xB SLOAD PUSH1 0xA SLOAD PUSH2 0x1A24 SWAP2 SWAP1 PUSH2 0x23A9 JUMP JUMPDEST DUP4 PUSH2 0x1A2F SWAP2 SWAP1 PUSH2 0x2338 JUMP JUMPDEST SWAP1 POP DUP1 PUSH1 0x6 PUSH1 0x0 DUP3 DUP3 SLOAD PUSH2 0x1A43 SWAP2 SWAP1 PUSH2 0x246C JUMP JUMPDEST SWAP3 POP POP DUP2 SWAP1 SSTORE POP PUSH1 0x0 DUP2 DUP5 PUSH1 0x4 SLOAD PUSH2 0x1A5B SWAP2 SWAP1 PUSH2 0x246C JUMP JUMPDEST PUSH2 0x1A65 SWAP2 SWAP1 PUSH2 0x24A0 JUMP JUMPDEST SWAP1 POP PUSH1 0x0 DUP2 PUSH1 0xC SLOAD PUSH2 0x1A77 SWAP2 SWAP1 PUSH2 0x23A9 JUMP JUMPDEST SWAP1 POP PUSH1 0x1 DUP2 LT ISZERO PUSH2 0x1ABD JUMPI PUSH1 0x40 MLOAD PUSH32 0x8C379A000000000000000000000000000000000000000000000000000000000 DUP2 MSTORE PUSH1 0x4 ADD PUSH2 0x1AB4 SWAP1 PUSH2 0x2E6E JUMP JUMPDEST PUSH1 0x40 MLOAD DUP1 SWAP2 SUB SWAP1 REVERT JUMPDEST PUSH1 0x0 DUP2 PUSH1 0x5 SLOAD PUSH2 0x1ACD SWAP2 SWAP1 PUSH2 0x24A0 JUMP JUMPDEST SWAP1 POP CALLER PUSH20 0xFFFFFFFFFFFFFFFFFFFFFFFFFFFFFFFFFFFFFFFF AND PUSH2 0x8FC DUP3 SWAP1 DUP2 ISZERO MUL SWAP1 PUSH1 0x40 MLOAD PUSH1 0x0 PUSH1 0x40 MLOAD DUP1 DUP4 SUB DUP2 DUP6 DUP9 DUP9 CALL SWAP4 POP POP POP POP ISZERO DUP1 ISZERO PUSH2 0x1B15 JUMPI RETURNDATASIZE PUSH1 0x0 DUP1 RETURNDATACOPY RETURNDATASIZE PUSH1 0x0 REVERT JUMPDEST POP PUSH1 0x1 ISZERO ISZERO PUSH1 0x3 PUSH1 0x0 SWAP1 SLOAD SWAP1 PUSH2 0x100 EXP SWAP1 DIV PUSH20 0xFFFFFFFFFFFFFFFFFFFFFFFFFFFFFFFFFFFFFFFF AND PUSH20 0xFFFFFFFFFFFFFFFFFFFFFFFFFFFFFFFFFFFFFFFF AND PUSH4 0x23B872DD CALLER ADDRESS DUP11 PUSH1 0x40 MLOAD DUP5 PUSH4 0xFFFFFFFF AND PUSH1 0xE0 SHL DUP2 MSTORE PUSH1 0x4 ADD PUSH2 0x1B79 SWAP4 SWAP3 SWAP2 SWAP1 PUSH2 0x2B37 JUMP JUMPDEST PUSH1 0x20 PUSH1 0x40 MLOAD DUP1 DUP4 SUB DUP2 PUSH1 0x0 DUP8 GAS CALL ISZERO DUP1 ISZERO PUSH2 0x1B98 JUMPI RETURNDATASIZE PUSH1 0x0 DUP1 RETURNDATACOPY RETURNDATASIZE PUSH1 0x0 REVERT JUMPDEST POP POP POP POP PUSH1 0x40 MLOAD RETURNDATASIZE PUSH1 0x1F NOT PUSH1 0x1F DUP3 ADD AND DUP3 ADD DUP1 PUSH1 0x40 MSTORE POP DUP2 ADD SWAP1 PUSH2 0x1BBC SWAP2 SWAP1 PUSH2 0x25C7 JUMP JUMPDEST ISZERO ISZERO EQ PUSH2 0x1BFE JUMPI PUSH1 0x40 MLOAD PUSH32 0x8C379A000000000000000000000000000000000000000000000000000000000 DUP2 MSTORE PUSH1 0x4 ADD PUSH2 0x1BF5 SWAP1 PUSH2 0x2F00 JUMP JUMPDEST PUSH1 0x40 MLOAD DUP1 SWAP2 SUB SWAP1 REVERT JUMPDEST DUP1 PUSH1 0x5 PUSH1 0x0 DUP3 DUP3 SLOAD PUSH2 0x1C10 SWAP2 SWAP1 PUSH2 0x24A0 JUMP JUMPDEST SWAP3 POP POP DUP2 SWAP1 SSTORE POP DUP3 PUSH1 0x4 DUP2 SWAP1 SSTORE POP POP POP POP POP POP POP JUMP JUMPDEST PUSH1 0x0 DUP1 PUSH1 0xA SLOAD PUSH1 0xB SLOAD SWAP2 POP SWAP2 POP SWAP1 SWAP2 JUMP JUMPDEST PUSH2 0x1C3F PUSH2 0x1EAB JUMP JUMPDEST PUSH1 0x0 PUSH20 0xFFFFFFFFFFFFFFFFFFFFFFFFFFFFFFFFFFFFFFFF AND DUP2 PUSH20 0xFFFFFFFFFFFFFFFFFFFFFFFFFFFFFFFFFFFFFFFF AND SUB PUSH2 0x1CAE JUMPI PUSH1 0x40 MLOAD PUSH32 0x8C379A000000000000000000000000000000000000000000000000000000000 DUP2 MSTORE PUSH1 0x4 ADD PUSH2 0x1CA5 SWAP1 PUSH2 0x2F92 JUMP JUMPDEST PUSH1 0x40 MLOAD DUP1 SWAP2 SUB SWAP1 REVERT JUMPDEST PUSH2 0x1CB7 DUP2 PUSH2 0x1F29 JUMP JUMPDEST POP JUMP JUMPDEST PUSH1 0x1 DUP1 SLOAD PUSH2 0x1CC7 SWAP1 PUSH2 0x2FE1 JUMP JUMPDEST DUP1 PUSH1 0x1F ADD PUSH1 0x20 DUP1 SWAP2 DIV MUL PUSH1 0x20 ADD PUSH1 0x40 MLOAD SWAP1 DUP2 ADD PUSH1 0x40 MSTORE DUP1 SWAP3 SWAP2 SWAP1 DUP2 DUP2 MSTORE PUSH1 0x20 ADD DUP3 DUP1 SLOAD PUSH2 0x1CF3 SWAP1 PUSH2 0x2FE1 JUMP JUMPDEST DUP1 ISZERO PUSH2 0x1D40 JUMPI DUP1 PUSH1 0x1F LT PUSH2 0x1D15 JUMPI PUSH2 0x100 DUP1 DUP4 SLOAD DIV MUL DUP4 MSTORE SWAP2 PUSH1 0x20 ADD SWAP2 PUSH2 0x1D40 JUMP JUMPDEST DUP3 ADD SWAP2 SWAP1 PUSH1 0x0 MSTORE PUSH1 0x20 PUSH1 0x0 KECCAK256 SWAP1 JUMPDEST DUP2 SLOAD DUP2 MSTORE SWAP1 PUSH1 0x1 ADD SWAP1 PUSH1 0x20 ADD DUP1 DUP4 GT PUSH2 0x1D23 JUMPI DUP3 SWAP1 SUB PUSH1 0x1F AND DUP3 ADD SWAP2 JUMPDEST POP POP POP POP POP DUP2 JUMP JUMPDEST PUSH1 0x3 PUSH1 0x0 SWAP1 SLOAD SWAP1 PUSH2 0x100 EXP SWAP1 DIV PUSH20 0xFFFFFFFFFFFFFFFFFFFFFFFFFFFFFFFFFFFFFFFF AND DUP2 JUMP JUMPDEST PUSH1 0x9 DUP1 SLOAD SWAP1 POP DUP2 LT PUSH2 0x1DB5 JUMPI PUSH1 0x40 MLOAD PUSH32 0x8C379A000000000000000000000000000000000000000000000000000000000 DUP2 MSTORE PUSH1 0x4 ADD PUSH2 0x1DAC SWAP1 PUSH2 0x3084 JUMP JUMPDEST PUSH1 0x40 MLOAD DUP1 SWAP2 SUB SWAP1 REVERT JUMPDEST PUSH1 0x9 PUSH1 0x1 PUSH1 0x9 DUP1 SLOAD SWAP1 POP PUSH2 0x1DC9 SWAP2 SWAP1 PUSH2 0x24A0 JUMP JUMPDEST DUP2 SLOAD DUP2 LT PUSH2 0x1DDA JUMPI PUSH2 0x1DD9 PUSH2 0x283C JUMP JUMPDEST JUMPDEST SWAP1 PUSH1 0x0 MSTORE PUSH1 0x20 PUSH1 0x0 KECCAK256 ADD PUSH1 0x0 SWAP1 SLOAD SWAP1 PUSH2 0x100 EXP SWAP1 DIV PUSH20 0xFFFFFFFFFFFFFFFFFFFFFFFFFFFFFFFFFFFFFFFF AND PUSH1 0x9 DUP3 DUP2 SLOAD DUP2 LT PUSH2 0x1E19 JUMPI PUSH2 0x1E18 PUSH2 0x283C JUMP JUMPDEST JUMPDEST SWAP1 PUSH1 0x0 MSTORE PUSH1 0x20 PUSH1 0x0 KECCAK256 ADD PUSH1 0x0 PUSH2 0x100 EXP DUP2 SLOAD DUP2 PUSH20 0xFFFFFFFFFFFFFFFFFFFFFFFFFFFFFFFFFFFFFFFF MUL NOT AND SWAP1 DUP4 PUSH20 0xFFFFFFFFFFFFFFFFFFFFFFFFFFFFFFFFFFFFFFFF AND MUL OR SWAP1 SSTORE POP PUSH1 0x9 DUP1 SLOAD DUP1 PUSH2 0x1E73 JUMPI PUSH2 0x1E72 PUSH2 0x30A4 JUMP JUMPDEST JUMPDEST PUSH1 0x1 SWAP1 SUB DUP2 DUP2 SWAP1 PUSH1 0x0 MSTORE PUSH1 0x20 PUSH1 0x0 KECCAK256 ADD PUSH1 0x0 PUSH2 0x100 EXP DUP2 SLOAD SWAP1 PUSH20 0xFFFFFFFFFFFFFFFFFFFFFFFFFFFFFFFFFFFFFFFF MUL NOT AND SWAP1 SSTORE SWAP1 SSTORE POP JUMP JUMPDEST PUSH2 0x1EB3 PUSH2 0x1FED JUMP JUMPDEST PUSH20 0xFFFFFFFFFFFFFFFFFFFFFFFFFFFFFFFFFFFFFFFF AND PUSH2 0x1ED1 PUSH2 0x1403 JUMP JUMPDEST PUSH20 0xFFFFFFFFFFFFFFFFFFFFFFFFFFFFFFFFFFFFFFFF AND EQ PUSH2 0x1F27 JUMPI PUSH1 0x40 MLOAD PUSH32 0x8C379A000000000000000000000000000000000000000000000000000000000 DUP2 MSTORE PUSH1 0x4 ADD PUSH2 0x1F1E SWAP1 PUSH2 0x311F JUMP JUMPDEST PUSH1 0x40 MLOAD DUP1 SWAP2 SUB SWAP1 REVERT JUMPDEST JUMP JUMPDEST PUSH1 0x0 DUP1 PUSH1 0x0 SWAP1 SLOAD SWAP1 PUSH2 0x100 EXP SWAP1 DIV PUSH20 0xFFFFFFFFFFFFFFFFFFFFFFFFFFFFFFFFFFFFFFFF AND SWAP1 POP DUP2 PUSH1 0x0 DUP1 PUSH2 0x100 EXP DUP2 SLOAD DUP2 PUSH20 0xFFFFFFFFFFFFFFFFFFFFFFFFFFFFFFFFFFFFFFFF MUL NOT AND SWAP1 DUP4 PUSH20 0xFFFFFFFFFFFFFFFFFFFFFFFFFFFFFFFFFFFFFFFF AND MUL OR SWAP1 SSTORE POP DUP2 PUSH20 0xFFFFFFFFFFFFFFFFFFFFFFFFFFFFFFFFFFFFFFFF AND DUP2 PUSH20 0xFFFFFFFFFFFFFFFFFFFFFFFFFFFFFFFFFFFFFFFF AND PUSH32 0x8BE0079C531659141344CD1FD0A4F28419497F9722A3DAAFE3B4186F6B6457E0 PUSH1 0x40 MLOAD PUSH1 0x40 MLOAD DUP1 SWAP2 SUB SWAP1 LOG3 POP POP JUMP JUMPDEST PUSH1 0x0 CALLER SWAP1 POP SWAP1 JUMP JUMPDEST PUSH1 0x0 DUP1 REVERT JUMPDEST PUSH1 0x0 DUP2 SWAP1 POP SWAP2 SWAP1 POP JUMP JUMPDEST PUSH2 0x200D DUP2 PUSH2 0x1FFA JUMP JUMPDEST DUP2 EQ PUSH2 0x2018 JUMPI PUSH1 0x0 DUP1 REVERT JUMPDEST POP JUMP JUMPDEST PUSH1 0x0 DUP2 CALLDATALOAD SWAP1 POP PUSH2 0x202A DUP2 PUSH2 0x2004 JUMP JUMPDEST SWAP3 SWAP2 POP POP JUMP JUMPDEST PUSH1 0x0 PUSH1 0x20 DUP3 DUP5 SUB SLT ISZERO PUSH2 0x2046 JUMPI PUSH2 0x2045 PUSH2 0x1FF5 JUMP JUMPDEST JUMPDEST PUSH1 0x0 PUSH2 0x2054 DUP5 DUP3 DUP6 ADD PUSH2 0x201B JUMP JUMPDEST SWAP2 POP POP SWAP3 SWAP2 POP POP JUMP JUMPDEST PUSH1 0x0 DUP1 PUSH1 0x40 DUP4 DUP6 SUB SLT ISZERO PUSH2 0x2074 JUMPI PUSH2 0x2073 PUSH2 0x1FF5 JUMP JUMPDEST JUMPDEST PUSH1 0x0 PUSH2 0x2082 DUP6 DUP3 DUP7 ADD PUSH2 0x201B JUMP JUMPDEST SWAP3 POP POP PUSH1 0x20 PUSH2 0x2093 DUP6 DUP3 DUP7 ADD PUSH2 0x201B JUMP JUMPDEST SWAP2 POP POP SWAP3 POP SWAP3 SWAP1 POP JUMP JUMPDEST PUSH1 0x0 DUP1 PUSH1 0x0 PUSH1 0x60 DUP5 DUP7 SUB SLT ISZERO PUSH2 0x20B6 JUMPI PUSH2 0x20B5 PUSH2 0x1FF5 JUMP JUMPDEST JUMPDEST PUSH1 0x0 PUSH2 0x20C4 DUP7 DUP3 DUP8 ADD PUSH2 0x201B JUMP JUMPDEST SWAP4 POP POP PUSH1 0x20 PUSH2 0x20D5 DUP7 DUP3 DUP8 ADD PUSH2 0x201B JUMP JUMPDEST SWAP3 POP POP PUSH1 0x40 PUSH2 0x20E6 DUP7 DUP3 DUP8 ADD PUSH2 0x201B JUMP JUMPDEST SWAP2 POP POP SWAP3 POP SWAP3 POP SWAP3 JUMP JUMPDEST PUSH1 0x0 PUSH20 0xFFFFFFFFFFFFFFFFFFFFFFFFFFFFFFFFFFFFFFFF DUP3 AND SWAP1 POP SWAP2 SWAP1 POP JUMP JUMPDEST PUSH1 0x0 PUSH2 0x211B DUP3 PUSH2 0x20F0 JUMP JUMPDEST SWAP1 POP SWAP2 SWAP1 POP JUMP JUMPDEST PUSH2 0x212B DUP2 PUSH2 0x2110 JUMP JUMPDEST DUP3 MSTORE POP POP JUMP JUMPDEST PUSH1 0x0 PUSH1 0x20 DUP3 ADD SWAP1 POP PUSH2 0x2146 PUSH1 0x0 DUP4 ADD DUP5 PUSH2 0x2122 JUMP JUMPDEST SWAP3 SWAP2 POP POP JUMP JUMPDEST PUSH2 0x2155 DUP2 PUSH2 0x1FFA JUMP JUMPDEST DUP3 MSTORE POP POP JUMP JUMPDEST PUSH1 0x0 PUSH1 0x40 DUP3 ADD SWAP1 POP PUSH2 0x2170 PUSH1 0x0 DUP4 ADD DUP6 PUSH2 0x214C JUMP JUMPDEST PUSH2 0x217D PUSH1 0x20 DUP4 ADD DUP5 PUSH2 0x214C JUMP JUMPDEST SWAP4 SWAP3 POP POP POP JUMP JUMPDEST PUSH2 0x218D DUP2 PUSH2 0x2110 JUMP JUMPDEST DUP2 EQ PUSH2 0x2198 JUMPI PUSH1 0x0 DUP1 REVERT JUMPDEST POP JUMP JUMPDEST PUSH1 0x0 DUP2 CALLDATALOAD SWAP1 POP PUSH2 0x21AA DUP2 PUSH2 0x2184 JUMP JUMPDEST SWAP3 SWAP2 POP POP JUMP JUMPDEST PUSH1 0x0 PUSH1 0x20 DUP3 DUP5 SUB SLT ISZERO PUSH2 0x21C6 JUMPI PUSH2 0x21C5 PUSH2 0x1FF5 JUMP JUMPDEST JUMPDEST PUSH1 0x0 PUSH2 0x21D4 DUP5 DUP3 DUP6 ADD PUSH2 0x219B JUMP JUMPDEST SWAP2 POP POP SWAP3 SWAP2 POP POP JUMP JUMPDEST PUSH1 0x0 DUP2 MLOAD SWAP1 POP SWAP2 SWAP1 POP JUMP JUMPDEST PUSH1 0x0 DUP3 DUP3 MSTORE PUSH1 0x20 DUP3 ADD SWAP1 POP SWAP3 SWAP2 POP POP JUMP JUMPDEST PUSH1 0x0 JUMPDEST DUP4 DUP2 LT ISZERO PUSH2 0x2217 JUMPI DUP1 DUP3 ADD MLOAD DUP2 DUP5 ADD MSTORE PUSH1 0x20 DUP2 ADD SWAP1 POP PUSH2 0x21FC JUMP JUMPDEST PUSH1 0x0 DUP5 DUP5 ADD MSTORE POP POP POP POP JUMP JUMPDEST PUSH1 0x0 PUSH1 0x1F NOT PUSH1 0x1F DUP4 ADD AND SWAP1 POP SWAP2 SWAP1 POP JUMP JUMPDEST PUSH1 0x0 PUSH2 0x223F DUP3 PUSH2 0x21DD JUMP JUMPDEST PUSH2 0x2249 DUP2 DUP6 PUSH2 0x21E8 JUMP JUMPDEST SWAP4 POP PUSH2 0x2259 DUP2 DUP6 PUSH1 0x20 DUP7 ADD PUSH2 0x21F9 JUMP JUMPDEST PUSH2 0x2262 DUP2 PUSH2 0x2223 JUMP JUMPDEST DUP5 ADD SWAP2 POP POP SWAP3 SWAP2 POP POP JUMP JUMPDEST PUSH1 0x0 PUSH1 0x20 DUP3 ADD SWAP1 POP DUP2 DUP2 SUB PUSH1 0x0 DUP4 ADD MSTORE PUSH2 0x2287 DUP2 DUP5 PUSH2 0x2234 JUMP JUMPDEST SWAP1 POP SWAP3 SWAP2 POP POP JUMP JUMPDEST PUSH1 0x0 DUP2 SWAP1 POP SWAP2 SWAP1 POP JUMP JUMPDEST PUSH1 0x0 PUSH2 0x22B4 PUSH2 0x22AF PUSH2 0x22AA DUP5 PUSH2 0x20F0 JUMP JUMPDEST PUSH2 0x228F JUMP JUMPDEST PUSH2 0x20F0 JUMP JUMPDEST SWAP1 POP SWAP2 SWAP1 POP JUMP JUMPDEST PUSH1 0x0 PUSH2 0x22C6 DUP3 PUSH2 0x2299 JUMP JUMPDEST SWAP1 POP SWAP2 SWAP1 POP JUMP JUMPDEST PUSH1 0x0 PUSH2 0x22D8 DUP3 PUSH2 0x22BB JUMP JUMPDEST SWAP1 POP SWAP2 SWAP1 POP JUMP JUMPDEST PUSH2 0x22E8 DUP2 PUSH2 0x22CD JUMP JUMPDEST DUP3 MSTORE POP POP JUMP JUMPDEST PUSH1 0x0 PUSH1 0x20 DUP3 ADD SWAP1 POP PUSH2 0x2303 PUSH1 0x0 DUP4 ADD DUP5 PUSH2 0x22DF JUMP JUMPDEST SWAP3 SWAP2 POP POP JUMP JUMPDEST PUSH32 0x4E487B7100000000000000000000000000000000000000000000000000000000 PUSH1 0x0 MSTORE PUSH1 0x11 PUSH1 0x4 MSTORE PUSH1 0x24 PUSH1 0x0 REVERT JUMPDEST PUSH1 0x0 PUSH2 0x2343 DUP3 PUSH2 0x1FFA JUMP JUMPDEST SWAP2 POP PUSH2 0x234E DUP4 PUSH2 0x1FFA JUMP JUMPDEST SWAP3 POP DUP3 DUP3 MUL PUSH2 0x235C DUP2 PUSH2 0x1FFA JUMP JUMPDEST SWAP2 POP DUP3 DUP3 DIV DUP5 EQ DUP4 ISZERO OR PUSH2 0x2373 JUMPI PUSH2 0x2372 PUSH2 0x2309 JUMP JUMPDEST JUMPDEST POP SWAP3 SWAP2 POP POP JUMP JUMPDEST PUSH32 0x4E487B7100000000000000000000000000000000000000000000000000000000 PUSH1 0x0 MSTORE PUSH1 0x12 PUSH1 0x4 MSTORE PUSH1 0x24 PUSH1 0x0 REVERT JUMPDEST PUSH1 0x0 PUSH2 0x23B4 DUP3 PUSH2 0x1FFA JUMP JUMPDEST SWAP2 POP PUSH2 0x23BF DUP4 PUSH2 0x1FFA JUMP JUMPDEST SWAP3 POP DUP3 PUSH2 0x23CF JUMPI PUSH2 0x23CE PUSH2 0x237A JUMP JUMPDEST JUMPDEST DUP3 DUP3 DIV SWAP1 POP SWAP3 SWAP2 POP POP JUMP JUMPDEST PUSH32 0x45786365656420746865206D61785F65786368616E67655F72617465206F6620 PUSH1 0x0 DUP3 ADD MSTORE PUSH32 0x746F6B656E2E0000000000000000000000000000000000000000000000000000 PUSH1 0x20 DUP3 ADD MSTORE POP JUMP JUMPDEST PUSH1 0x0 PUSH2 0x2436 PUSH1 0x26 DUP4 PUSH2 0x21E8 JUMP JUMPDEST SWAP2 POP PUSH2 0x2441 DUP3 PUSH2 0x23DA JUMP JUMPDEST PUSH1 0x40 DUP3 ADD SWAP1 POP SWAP2 SWAP1 POP JUMP JUMPDEST PUSH1 0x0 PUSH1 0x20 DUP3 ADD SWAP1 POP DUP2 DUP2 SUB PUSH1 0x0 DUP4 ADD MSTORE PUSH2 0x2465 DUP2 PUSH2 0x2429 JUMP JUMPDEST SWAP1 POP SWAP2 SWAP1 POP JUMP JUMPDEST PUSH1 0x0 PUSH2 0x2477 DUP3 PUSH2 0x1FFA JUMP JUMPDEST SWAP2 POP PUSH2 0x2482 DUP4 PUSH2 0x1FFA JUMP JUMPDEST SWAP3 POP DUP3 DUP3 ADD SWAP1 POP DUP1 DUP3 GT ISZERO PUSH2 0x249A JUMPI PUSH2 0x2499 PUSH2 0x2309 JUMP JUMPDEST JUMPDEST SWAP3 SWAP2 POP POP JUMP JUMPDEST PUSH1 0x0 PUSH2 0x24AB DUP3 PUSH2 0x1FFA JUMP JUMPDEST SWAP2 POP PUSH2 0x24B6 DUP4 PUSH2 0x1FFA JUMP JUMPDEST SWAP3 POP DUP3 DUP3 SUB SWAP1 POP DUP2 DUP2 GT ISZERO PUSH2 0x24CE JUMPI PUSH2 0x24CD PUSH2 0x2309 JUMP JUMPDEST JUMPDEST SWAP3 SWAP2 POP POP JUMP JUMPDEST PUSH32 0x4E6F74206861766520656E6F75676820746F6B656E20696E2074686520706F6F PUSH1 0x0 DUP3 ADD MSTORE PUSH32 0x6C20746F20737761702E00000000000000000000000000000000000000000000 PUSH1 0x20 DUP3 ADD MSTORE POP JUMP JUMPDEST PUSH1 0x0 PUSH2 0x2530 PUSH1 0x2A DUP4 PUSH2 0x21E8 JUMP JUMPDEST SWAP2 POP PUSH2 0x253B DUP3 PUSH2 0x24D4 JUMP JUMPDEST PUSH1 0x40 DUP3 ADD SWAP1 POP SWAP2 SWAP1 POP JUMP JUMPDEST PUSH1 0x0 PUSH1 0x20 DUP3 ADD SWAP1 POP DUP2 DUP2 SUB PUSH1 0x0 DUP4 ADD MSTORE PUSH2 0x255F DUP2 PUSH2 0x2523 JUMP JUMPDEST SWAP1 POP SWAP2 SWAP1 POP JUMP JUMPDEST PUSH1 0x0 PUSH1 0x40 DUP3 ADD SWAP1 POP PUSH2 0x257B PUSH1 0x0 DUP4 ADD DUP6 PUSH2 0x2122 JUMP JUMPDEST PUSH2 0x2588 PUSH1 0x20 DUP4 ADD DUP5 PUSH2 0x214C JUMP JUMPDEST SWAP4 SWAP3 POP POP POP JUMP JUMPDEST PUSH1 0x0 DUP2 ISZERO ISZERO SWAP1 POP SWAP2 SWAP1 POP JUMP JUMPDEST PUSH2 0x25A4 DUP2 PUSH2 0x258F JUMP JUMPDEST DUP2 EQ PUSH2 0x25AF JUMPI PUSH1 0x0 DUP1 REVERT JUMPDEST POP JUMP JUMPDEST PUSH1 0x0 DUP2 MLOAD SWAP1 POP PUSH2 0x25C1 DUP2 PUSH2 0x259B JUMP JUMPDEST SWAP3 SWAP2 POP POP JUMP JUMPDEST PUSH1 0x0 PUSH1 0x20 DUP3 DUP5 SUB SLT ISZERO PUSH2 0x25DD JUMPI PUSH2 0x25DC PUSH2 0x1FF5 JUMP JUMPDEST JUMPDEST PUSH1 0x0 PUSH2 0x25EB DUP5 DUP3 DUP6 ADD PUSH2 0x25B2 JUMP JUMPDEST SWAP2 POP POP SWAP3 SWAP2 POP POP JUMP JUMPDEST PUSH32 0x43616E6E6F74207472616E7366657220746F6B656E20746F2074686520757365 PUSH1 0x0 DUP3 ADD MSTORE PUSH32 0x722E000000000000000000000000000000000000000000000000000000000000 PUSH1 0x20 DUP3 ADD MSTORE POP JUMP JUMPDEST PUSH1 0x0 PUSH2 0x2650 PUSH1 0x22 DUP4 PUSH2 0x21E8 JUMP JUMPDEST SWAP2 POP PUSH2 0x265B DUP3 PUSH2 0x25F4 JUMP JUMPDEST PUSH1 0x40 DUP3 ADD SWAP1 POP SWAP2 SWAP1 POP JUMP JUMPDEST PUSH1 0x0 PUSH1 0x20 DUP3 ADD SWAP1 POP DUP2 DUP2 SUB PUSH1 0x0 DUP4 ADD MSTORE PUSH2 0x267F DUP2 PUSH2 0x2643 JUMP JUMPDEST SWAP1 POP SWAP2 SWAP1 POP JUMP JUMPDEST PUSH32 0x4E6F74206861766520656E6F7567682045544820696E2074686520706F6F6C20 PUSH1 0x0 DUP3 ADD MSTORE PUSH32 0x746F2072656D6F76652E00000000000000000000000000000000000000000000 PUSH1 0x20 DUP3 ADD MSTORE POP JUMP JUMPDEST PUSH1 0x0 PUSH2 0x26E2 PUSH1 0x2A DUP4 PUSH2 0x21E8 JUMP JUMPDEST SWAP2 POP PUSH2 0x26ED DUP3 PUSH2 0x2686 JUMP JUMPDEST PUSH1 0x40 DUP3 ADD SWAP1 POP SWAP2 SWAP1 POP JUMP JUMPDEST PUSH1 0x0 PUSH1 0x20 DUP3 ADD SWAP1 POP DUP2 DUP2 SUB PUSH1 0x0 DUP4 ADD MSTORE PUSH2 0x2711 DUP2 PUSH2 0x26D5 JUMP JUMPDEST SWAP1 POP SWAP2 SWAP1 POP JUMP JUMPDEST PUSH32 0x4E6F74206861766520656E6F75676820746F6B656E20696E2074686520706F6F PUSH1 0x0 DUP3 ADD MSTORE PUSH32 0x6C20746F2072656D6F76652E0000000000000000000000000000000000000000 PUSH1 0x20 DUP3 ADD MSTORE POP JUMP JUMPDEST PUSH1 0x0 PUSH2 0x2774 PUSH1 0x2C DUP4 PUSH2 0x21E8 JUMP JUMPDEST SWAP2 POP PUSH2 0x277F DUP3 PUSH2 0x2718 JUMP JUMPDEST PUSH1 0x40 DUP3 ADD SWAP1 POP SWAP2 SWAP1 POP JUMP JUMPDEST PUSH1 0x0 PUSH1 0x20 DUP3 ADD SWAP1 POP DUP2 DUP2 SUB PUSH1 0x0 DUP4 ADD MSTORE PUSH2 0x27A3 DUP2 PUSH2 0x2767 JUMP JUMPDEST SWAP1 POP SWAP2 SWAP1 POP JUMP JUMPDEST PUSH32 0x46616C6C2062656C6F7720746865206D696E5F65786368616E67655F72617465 PUSH1 0x0 DUP3 ADD MSTORE PUSH32 0x206F6620746F6B656E2E00000000000000000000000000000000000000000000 PUSH1 0x20 DUP3 ADD MSTORE POP JUMP JUMPDEST PUSH1 0x0 PUSH2 0x2806 PUSH1 0x2A DUP4 PUSH2 0x21E8 JUMP JUMPDEST SWAP2 POP PUSH2 0x2811 DUP3 PUSH2 0x27AA JUMP JUMPDEST PUSH1 0x40 DUP3 ADD SWAP1 POP SWAP2 SWAP1 POP JUMP JUMPDEST PUSH1 0x0 PUSH1 0x20 DUP3 ADD SWAP1 POP DUP2 DUP2 SUB PUSH1 0x0 DUP4 ADD MSTORE PUSH2 0x2835 DUP2 PUSH2 0x27F9 JUMP JUMPDEST SWAP1 POP SWAP2 SWAP1 POP JUMP JUMPDEST PUSH32 0x4E487B7100000000000000000000000000000000000000000000000000000000 PUSH1 0x0 MSTORE PUSH1 0x32 PUSH1 0x4 MSTORE PUSH1 0x24 PUSH1 0x0 REVERT JUMPDEST PUSH1 0x0 PUSH2 0x2876 DUP3 PUSH2 0x1FFA JUMP JUMPDEST SWAP2 POP PUSH32 0xFFFFFFFFFFFFFFFFFFFFFFFFFFFFFFFFFFFFFFFFFFFFFFFFFFFFFFFFFFFFFFFF DUP3 SUB PUSH2 0x28A8 JUMPI PUSH2 0x28A7 PUSH2 0x2309 JUMP JUMPDEST JUMPDEST PUSH1 0x1 DUP3 ADD SWAP1 POP SWAP2 SWAP1 POP JUMP JUMPDEST PUSH32 0x546F6B656E20726573657276657320776173206E6F7420300000000000000000 PUSH1 0x0 DUP3 ADD MSTORE POP JUMP JUMPDEST PUSH1 0x0 PUSH2 0x28E9 PUSH1 0x18 DUP4 PUSH2 0x21E8 JUMP JUMPDEST SWAP2 POP PUSH2 0x28F4 DUP3 PUSH2 0x28B3 JUMP JUMPDEST PUSH1 0x20 DUP3 ADD SWAP1 POP SWAP2 SWAP1 POP JUMP JUMPDEST PUSH1 0x0 PUSH1 0x20 DUP3 ADD SWAP1 POP DUP2 DUP2 SUB PUSH1 0x0 DUP4 ADD MSTORE PUSH2 0x2918 DUP2 PUSH2 0x28DC JUMP JUMPDEST SWAP1 POP SWAP2 SWAP1 POP JUMP JUMPDEST PUSH32 0x45544820726573657276657320776173206E6F7420302E000000000000000000 PUSH1 0x0 DUP3 ADD MSTORE POP JUMP JUMPDEST PUSH1 0x0 PUSH2 0x2955 PUSH1 0x17 DUP4 PUSH2 0x21E8 JUMP JUMPDEST SWAP2 POP PUSH2 0x2960 DUP3 PUSH2 0x291F JUMP JUMPDEST PUSH1 0x20 DUP3 ADD SWAP1 POP SWAP2 SWAP1 POP JUMP JUMPDEST PUSH1 0x0 PUSH1 0x20 DUP3 ADD SWAP1 POP DUP2 DUP2 SUB PUSH1 0x0 DUP4 ADD MSTORE PUSH2 0x2984 DUP2 PUSH2 0x2948 JUMP JUMPDEST SWAP1 POP SWAP2 SWAP1 POP JUMP JUMPDEST PUSH32 0x4E6565642065746820746F2063726561746520706F6F6C2E0000000000000000 PUSH1 0x0 DUP3 ADD MSTORE POP JUMP JUMPDEST PUSH1 0x0 PUSH2 0x29C1 PUSH1 0x18 DUP4 PUSH2 0x21E8 JUMP JUMPDEST SWAP2 POP PUSH2 0x29CC DUP3 PUSH2 0x298B JUMP JUMPDEST PUSH1 0x20 DUP3 ADD SWAP1 POP SWAP2 SWAP1 POP JUMP JUMPDEST PUSH1 0x0 PUSH1 0x20 DUP3 ADD SWAP1 POP DUP2 DUP2 SUB PUSH1 0x0 DUP4 ADD MSTORE PUSH2 0x29F0 DUP2 PUSH2 0x29B4 JUMP JUMPDEST SWAP1 POP SWAP2 SWAP1 POP JUMP JUMPDEST PUSH1 0x0 DUP2 MLOAD SWAP1 POP PUSH2 0x2A06 DUP2 PUSH2 0x2004 JUMP JUMPDEST SWAP3 SWAP2 POP POP JUMP JUMPDEST PUSH1 0x0 PUSH1 0x20 DUP3 DUP5 SUB SLT ISZERO PUSH2 0x2A22 JUMPI PUSH2 0x2A21 PUSH2 0x1FF5 JUMP JUMPDEST JUMPDEST PUSH1 0x0 PUSH2 0x2A30 DUP5 DUP3 DUP6 ADD PUSH2 0x29F7 JUMP JUMPDEST SWAP2 POP POP SWAP3 SWAP2 POP POP JUMP JUMPDEST PUSH32 0x4E6F74206861766520656E6F75676820746F6B656E7320746F20637265617465 PUSH1 0x0 DUP3 ADD MSTORE PUSH32 0x2074686520706F6F6C0000000000000000000000000000000000000000000000 PUSH1 0x20 DUP3 ADD MSTORE POP JUMP JUMPDEST PUSH1 0x0 PUSH2 0x2A95 PUSH1 0x29 DUP4 PUSH2 0x21E8 JUMP JUMPDEST SWAP2 POP PUSH2 0x2AA0 DUP3 PUSH2 0x2A39 JUMP JUMPDEST PUSH1 0x40 DUP3 ADD SWAP1 POP SWAP2 SWAP1 POP JUMP JUMPDEST PUSH1 0x0 PUSH1 0x20 DUP3 ADD SWAP1 POP DUP2 DUP2 SUB PUSH1 0x0 DUP4 ADD MSTORE PUSH2 0x2AC4 DUP2 PUSH2 0x2A88 JUMP JUMPDEST SWAP1 POP SWAP2 SWAP1 POP JUMP JUMPDEST PUSH32 0x4E65656420746F6B656E7320746F2063726561746520706F6F6C2E0000000000 PUSH1 0x0 DUP3 ADD MSTORE POP JUMP JUMPDEST PUSH1 0x0 PUSH2 0x2B01 PUSH1 0x1B DUP4 PUSH2 0x21E8 JUMP JUMPDEST SWAP2 POP PUSH2 0x2B0C DUP3 PUSH2 0x2ACB JUMP JUMPDEST PUSH1 0x20 DUP3 ADD SWAP1 POP SWAP2 SWAP1 POP JUMP JUMPDEST PUSH1 0x0 PUSH1 0x20 DUP3 ADD SWAP1 POP DUP2 DUP2 SUB PUSH1 0x0 DUP4 ADD MSTORE PUSH2 0x2B30 DUP2 PUSH2 0x2AF4 JUMP JUMPDEST SWAP1 POP SWAP2 SWAP1 POP JUMP JUMPDEST PUSH1 0x0 PUSH1 0x60 DUP3 ADD SWAP1 POP PUSH2 0x2B4C PUSH1 0x0 DUP4 ADD DUP7 PUSH2 0x2122 JUMP JUMPDEST PUSH2 0x2B59 PUSH1 0x20 DUP4 ADD DUP6 PUSH2 0x2122 JUMP JUMPDEST PUSH2 0x2B66 PUSH1 0x40 DUP4 ADD DUP5 PUSH2 0x214C JUMP JUMPDEST SWAP5 SWAP4 POP POP POP POP JUMP JUMPDEST PUSH32 0x496E76616C696420616D6F756E74206F662045544820746F2072656D6F76652E PUSH1 0x0 DUP3 ADD MSTORE POP JUMP JUMPDEST PUSH1 0x0 PUSH2 0x2BA4 PUSH1 0x20 DUP4 PUSH2 0x21E8 JUMP JUMPDEST SWAP2 POP PUSH2 0x2BAF DUP3 PUSH2 0x2B6E JUMP JUMPDEST PUSH1 0x20 DUP3 ADD SWAP1 POP SWAP2 SWAP1 POP JUMP JUMPDEST PUSH1 0x0 PUSH1 0x20 DUP3 ADD SWAP1 POP DUP2 DUP2 SUB PUSH1 0x0 DUP4 ADD MSTORE PUSH2 0x2BD3 DUP2 PUSH2 0x2B97 JUMP JUMPDEST SWAP1 POP SWAP2 SWAP1 POP JUMP JUMPDEST PUSH32 0x55736572206E6F74206861766520656E6F7567682045544820746F2072656D6F PUSH1 0x0 DUP3 ADD MSTORE PUSH32 0x76652E0000000000000000000000000000000000000000000000000000000000 PUSH1 0x20 DUP3 ADD MSTORE POP JUMP JUMPDEST PUSH1 0x0 PUSH2 0x2C36 PUSH1 0x23 DUP4 PUSH2 0x21E8 JUMP JUMPDEST SWAP2 POP PUSH2 0x2C41 DUP3 PUSH2 0x2BDA JUMP JUMPDEST PUSH1 0x40 DUP3 ADD SWAP1 POP SWAP2 SWAP1 POP JUMP JUMPDEST PUSH1 0x0 PUSH1 0x20 DUP3 ADD SWAP1 POP DUP2 DUP2 SUB PUSH1 0x0 DUP4 ADD MSTORE PUSH2 0x2C65 DUP2 PUSH2 0x2C29 JUMP JUMPDEST SWAP1 POP SWAP2 SWAP1 POP JUMP JUMPDEST PUSH32 0x496E76616C696420616D6F756E74206F662045544820746F206164642E000000 PUSH1 0x0 DUP3 ADD MSTORE POP JUMP JUMPDEST PUSH1 0x0 PUSH2 0x2CA2 PUSH1 0x1D DUP4 PUSH2 0x21E8 JUMP JUMPDEST SWAP2 POP PUSH2 0x2CAD DUP3 PUSH2 0x2C6C JUMP JUMPDEST PUSH1 0x20 DUP3 ADD SWAP1 POP SWAP2 SWAP1 POP JUMP JUMPDEST PUSH1 0x0 PUSH1 0x20 DUP3 ADD SWAP1 POP DUP2 DUP2 SUB PUSH1 0x0 DUP4 ADD MSTORE PUSH2 0x2CD1 DUP2 PUSH2 0x2C95 JUMP JUMPDEST SWAP1 POP SWAP2 SWAP1 POP JUMP JUMPDEST PUSH32 0x43616E6E6F74207472616E7366657220746F6B656E2066726F6D207468652075 PUSH1 0x0 DUP3 ADD MSTORE PUSH32 0x7365720000000000000000000000000000000000000000000000000000000000 PUSH1 0x20 DUP3 ADD MSTORE POP JUMP JUMPDEST PUSH1 0x0 PUSH2 0x2D34 PUSH1 0x23 DUP4 PUSH2 0x21E8 JUMP JUMPDEST SWAP2 POP PUSH2 0x2D3F DUP3 PUSH2 0x2CD8 JUMP JUMPDEST PUSH1 0x40 DUP3 ADD SWAP1 POP SWAP2 SWAP1 POP JUMP JUMPDEST PUSH1 0x0 PUSH1 0x20 DUP3 ADD SWAP1 POP DUP2 DUP2 SUB PUSH1 0x0 DUP4 ADD MSTORE PUSH2 0x2D63 DUP2 PUSH2 0x2D27 JUMP JUMPDEST SWAP1 POP SWAP2 SWAP1 POP JUMP JUMPDEST PUSH32 0x45786365656420746865206D61785F65786368616E67655F72617465206F6620 PUSH1 0x0 DUP3 ADD MSTORE PUSH32 0x4554482E00000000000000000000000000000000000000000000000000000000 PUSH1 0x20 DUP3 ADD MSTORE POP JUMP JUMPDEST PUSH1 0x0 PUSH2 0x2DC6 PUSH1 0x24 DUP4 PUSH2 0x21E8 JUMP JUMPDEST SWAP2 POP PUSH2 0x2DD1 DUP3 PUSH2 0x2D6A JUMP JUMPDEST PUSH1 0x40 DUP3 ADD SWAP1 POP SWAP2 SWAP1 POP JUMP JUMPDEST PUSH1 0x0 PUSH1 0x20 DUP3 ADD SWAP1 POP DUP2 DUP2 SUB PUSH1 0x0 DUP4 ADD MSTORE PUSH2 0x2DF5 DUP2 PUSH2 0x2DB9 JUMP JUMPDEST SWAP1 POP SWAP2 SWAP1 POP JUMP JUMPDEST PUSH32 0x4E6F74206861766520656E6F7567682045544820696E2074686520706F6F6C20 PUSH1 0x0 DUP3 ADD MSTORE PUSH32 0x746F20737761702E000000000000000000000000000000000000000000000000 PUSH1 0x20 DUP3 ADD MSTORE POP JUMP JUMPDEST PUSH1 0x0 PUSH2 0x2E58 PUSH1 0x28 DUP4 PUSH2 0x21E8 JUMP JUMPDEST SWAP2 POP PUSH2 0x2E63 DUP3 PUSH2 0x2DFC JUMP JUMPDEST PUSH1 0x40 DUP3 ADD SWAP1 POP SWAP2 SWAP1 POP JUMP JUMPDEST PUSH1 0x0 PUSH1 0x20 DUP3 ADD SWAP1 POP DUP2 DUP2 SUB PUSH1 0x0 DUP4 ADD MSTORE PUSH2 0x2E87 DUP2 PUSH2 0x2E4B JUMP JUMPDEST SWAP1 POP SWAP2 SWAP1 POP JUMP JUMPDEST PUSH32 0x43616E6E6F74207472616E7366657220746F6B656E2066726F6D207468652075 PUSH1 0x0 DUP3 ADD MSTORE PUSH32 0x7365722E00000000000000000000000000000000000000000000000000000000 PUSH1 0x20 DUP3 ADD MSTORE POP JUMP JUMPDEST PUSH1 0x0 PUSH2 0x2EEA PUSH1 0x24 DUP4 PUSH2 0x21E8 JUMP JUMPDEST SWAP2 POP PUSH2 0x2EF5 DUP3 PUSH2 0x2E8E JUMP JUMPDEST PUSH1 0x40 DUP3 ADD SWAP1 POP SWAP2 SWAP1 POP JUMP JUMPDEST PUSH1 0x0 PUSH1 0x20 DUP3 ADD SWAP1 POP DUP2 DUP2 SUB PUSH1 0x0 DUP4 ADD MSTORE PUSH2 0x2F19 DUP2 PUSH2 0x2EDD JUMP JUMPDEST SWAP1 POP SWAP2 SWAP1 POP JUMP JUMPDEST PUSH32 0x4F776E61626C653A206E6577206F776E657220697320746865207A65726F2061 PUSH1 0x0 DUP3 ADD MSTORE PUSH32 0x6464726573730000000000000000000000000000000000000000000000000000 PUSH1 0x20 DUP3 ADD MSTORE POP JUMP JUMPDEST PUSH1 0x0 PUSH2 0x2F7C PUSH1 0x26 DUP4 PUSH2 0x21E8 JUMP JUMPDEST SWAP2 POP PUSH2 0x2F87 DUP3 PUSH2 0x2F20 JUMP JUMPDEST PUSH1 0x40 DUP3 ADD SWAP1 POP SWAP2 SWAP1 POP JUMP JUMPDEST PUSH1 0x0 PUSH1 0x20 DUP3 ADD SWAP1 POP DUP2 DUP2 SUB PUSH1 0x0 DUP4 ADD MSTORE PUSH2 0x2FAB DUP2 PUSH2 0x2F6F JUMP JUMPDEST SWAP1 POP SWAP2 SWAP1 POP JUMP JUMPDEST PUSH32 0x4E487B7100000000000000000000000000000000000000000000000000000000 PUSH1 0x0 MSTORE PUSH1 0x22 PUSH1 0x4 MSTORE PUSH1 0x24 PUSH1 0x0 REVERT JUMPDEST PUSH1 0x0 PUSH1 0x2 DUP3 DIV SWAP1 POP PUSH1 0x1 DUP3 AND DUP1 PUSH2 0x2FF9 JUMPI PUSH1 0x7F DUP3 AND SWAP2 POP JUMPDEST PUSH1 0x20 DUP3 LT DUP2 SUB PUSH2 0x300C JUMPI PUSH2 0x300B PUSH2 0x2FB2 JUMP JUMPDEST JUMPDEST POP SWAP2 SWAP1 POP JUMP JUMPDEST PUSH32 0x73706563696669656420696E646578206973206C6172676572207468616E2074 PUSH1 0x0 DUP3 ADD MSTORE PUSH32 0x6865206E756D626572206F66206C707300000000000000000000000000000000 PUSH1 0x20 DUP3 ADD MSTORE POP JUMP JUMPDEST PUSH1 0x0 PUSH2 0x306E PUSH1 0x30 DUP4 PUSH2 0x21E8 JUMP JUMPDEST SWAP2 POP PUSH2 0x3079 DUP3 PUSH2 0x3012 JUMP JUMPDEST PUSH1 0x40 DUP3 ADD SWAP1 POP SWAP2 SWAP1 POP JUMP JUMPDEST PUSH1 0x0 PUSH1 0x20 DUP3 ADD SWAP1 POP DUP2 DUP2 SUB PUSH1 0x0 DUP4 ADD MSTORE PUSH2 0x309D DUP2 PUSH2 0x3061 JUMP JUMPDEST SWAP1 POP SWAP2 SWAP1 POP JUMP JUMPDEST PUSH32 0x4E487B7100000000000000000000000000000000000000000000000000000000 PUSH1 0x0 MSTORE PUSH1 0x31 PUSH1 0x4 MSTORE PUSH1 0x24 PUSH1 0x0 REVERT JUMPDEST PUSH32 0x4F776E61626C653A2063616C6C6572206973206E6F7420746865206F776E6572 PUSH1 0x0 DUP3 ADD MSTORE POP JUMP JUMPDEST PUSH1 0x0 PUSH2 0x3109 PUSH1 0x20 DUP4 PUSH2 0x21E8 JUMP JUMPDEST SWAP2 POP PUSH2 0x3114 DUP3 PUSH2 0x30D3 JUMP JUMPDEST PUSH1 0x20 DUP3 ADD SWAP1 POP SWAP2 SWAP1 POP JUMP JUMPDEST PUSH1 0x0 PUSH1 0x20 DUP3 ADD SWAP1 POP DUP2 DUP2 SUB PUSH1 0x0 DUP4 ADD MSTORE PUSH2 0x3138 DUP2 PUSH2 0x30FC JUMP JUMPDEST SWAP1 POP SWAP2 SWAP1 POP JUMP INVALID LOG2 PUSH5 0x6970667358 0x22 SLT KECCAK256 AND PUSH4 0xAE239D44 0xDE 0xCF GAS 0xC SWAP2 0x2E 0xB9 PUSH25 0xE05B508C4B19AEDABCD9CCA2B4037456345864736F6C634300 ADDMOD GT STOP CALLER "},"methodIdentifiers":{"addLiquidity(uint256,uint256)":"9cd441da","createPool(uint256)":"8259e6a0","exchange_name()":"f694f7d1","getSwapFee()":"d4cadf68","owner()":"8da5cb5b","removeAllLiquidity(uint256,uint256)":"58ad6de4","removeLiquidity(uint256,uint256,uint256)":"857620e1","renounceOwnership()":"715018a6","swapETHForTokens(uint256)":"2eab2841","swapTokensForETH(uint256,uint256)":"a22280a6","token()":"fc0c546a","transferOwnership(address)":"f2fde38b"}}}}}