{
  "_format": "hh-sol-artifact-1",
  "contractName": "TokenExchange",
  "sourceName": "contracts/exchange.sol",
  "abi": [
    {
      "inputs": [],
      "stateMutability": "nonpayable",
      "type": "constructor"
    },
    {
      "anonymous": false,
      "inputs": [
        {
          "indexed": true,
          "internalType": "address",
          "name": "previousOwner",
          "type": "address"
        },
        {
          "indexed": true,
          "internalType": "address",
          "name": "newOwner",
          "type": "address"
        }
      ],
      "name": "OwnershipTransferred",
      "type": "event"
    },
    {
      "inputs": [
        {
          "internalType": "uint256",
          "name": "max_exchange_rate",
          "type": "uint256"
        },
        {
          "internalType": "uint256",
          "name": "min_exchange_rate",
          "type": "uint256"
        }
      ],
      "name": "addLiquidity",
      "outputs": [],
      "stateMutability": "payable",
      "type": "function"
    },
    {
      "inputs": [
        {
          "internalType": "uint256",
          "name": "amountTokens",
          "type": "uint256"
        }
      ],
      "name": "createPool",
      "outputs": [],
      "stateMutability": "payable",
      "type": "function"
    },
    {
      "inputs": [],
      "name": "exchange_name",
      "outputs": [
        {
          "internalType": "string",
          "name": "",
          "type": "string"
        }
      ],
      "stateMutability": "view",
      "type": "function"
    },
    {
      "inputs": [],
      "name": "getSwapFee",
      "outputs": [
        {
          "internalType": "uint256",
          "name": "",
          "type": "uint256"
        },
        {
          "internalType": "uint256",
          "name": "",
          "type": "uint256"
        }
      ],
      "stateMutability": "view",
      "type": "function"
    },
    {
      "inputs": [],
      "name": "owner",
      "outputs": [
        {
          "internalType": "address",
          "name": "",
          "type": "address"
        }
      ],
      "stateMutability": "view",
      "type": "function"
    },
    {
      "inputs": [
        {
          "internalType": "uint256",
          "name": "max_exchange_rate",
          "type": "uint256"
        },
        {
          "internalType": "uint256",
          "name": "min_exchange_rate",
          "type": "uint256"
        }
      ],
      "name": "removeAllLiquidity",
      "outputs": [],
      "stateMutability": "payable",
      "type": "function"
    },
    {
      "inputs": [
        {
          "internalType": "uint256",
          "name": "amountETH",
          "type": "uint256"
        },
        {
          "internalType": "uint256",
          "name": "max_exchange_rate",
          "type": "uint256"
        },
        {
          "internalType": "uint256",
          "name": "min_exchange_rate",
          "type": "uint256"
        }
      ],
      "name": "removeLiquidity",
      "outputs": [],
      "stateMutability": "payable",
      "type": "function"
    },
    {
      "inputs": [],
      "name": "renounceOwnership",
      "outputs": [],
      "stateMutability": "nonpayable",
      "type": "function"
    },
    {
      "inputs": [
        {
          "internalType": "uint256",
          "name": "max_exchange_rate",
          "type": "uint256"
        }
      ],
      "name": "swapETHForTokens",
      "outputs": [],
      "stateMutability": "payable",
      "type": "function"
    },
    {
      "inputs": [
        {
          "internalType": "uint256",
          "name": "amountTokens",
          "type": "uint256"
        },
        {
          "internalType": "uint256",
          "name": "max_exchange_rate",
          "type": "uint256"
        }
      ],
      "name": "swapTokensForETH",
      "outputs": [],
      "stateMutability": "payable",
      "type": "function"
    },
    {
      "inputs": [],
      "name": "token",
      "outputs": [
        {
          "internalType": "contract Token",
          "name": "",
          "type": "address"
        }
      ],
      "stateMutability": "view",
      "type": "function"
    },
    {
      "inputs": [
        {
          "internalType": "address",
          "name": "newOwner",
          "type": "address"
        }
      ],
      "name": "transferOwnership",
      "outputs": [],
      "stateMutability": "nonpayable",
      "type": "function"
    }
  ],
  "bytecode": "0x60806040526040518060400160405280600781526020017f426f62615f457800000000000000000000000000000000000000000000000000815250600190816200004a91906200049b565b5073d3873fdf150b3fffb447d3701dfd234df452f367600260006101000a81548173ffffffffffffffffffffffffffffffffffffffff021916908373ffffffffffffffffffffffffffffffffffffffff160217905550600260009054906101000a900473ffffffffffffffffffffffffffffffffffffffff16600360006101000a81548173ffffffffffffffffffffffffffffffffffffffff021916908373ffffffffffffffffffffffffffffffffffffffff16021790555060006004556000600555600060065560006007556005600a556064600b553480156200012e57600080fd5b506200014f620001436200015560201b60201c565b6200015d60201b60201c565b62000582565b600033905090565b60008060009054906101000a900473ffffffffffffffffffffffffffffffffffffffff169050816000806101000a81548173ffffffffffffffffffffffffffffffffffffffff021916908373ffffffffffffffffffffffffffffffffffffffff1602179055508173ffffffffffffffffffffffffffffffffffffffff168173ffffffffffffffffffffffffffffffffffffffff167f8be0079c531659141344cd1fd0a4f28419497f9722a3daafe3b4186f6b6457e060405160405180910390a35050565b600081519050919050565b7f4e487b7100000000000000000000000000000000000000000000000000000000600052604160045260246000fd5b7f4e487b7100000000000000000000000000000000000000000000000000000000600052602260045260246000fd5b60006002820490506001821680620002a357607f821691505b602082108103620002b957620002b86200025b565b5b50919050565b60008190508160005260206000209050919050565b60006020601f8301049050919050565b600082821b905092915050565b600060088302620003237fffffffffffffffffffffffffffffffffffffffffffffffffffffffffffffffff82620002e4565b6200032f8683620002e4565b95508019841693508086168417925050509392505050565b6000819050919050565b6000819050919050565b60006200037c62000376620003708462000347565b62000351565b62000347565b9050919050565b6000819050919050565b62000398836200035b565b620003b0620003a78262000383565b848454620002f1565b825550505050565b600090565b620003c7620003b8565b620003d48184846200038d565b505050565b5b81811015620003fc57620003f0600082620003bd565b600181019050620003da565b5050565b601f8211156200044b576200041581620002bf565b6200042084620002d4565b8101602085101562000430578190505b620004486200043f85620002d4565b830182620003d9565b50505b505050565b600082821c905092915050565b6000620004706000198460080262000450565b1980831691505092915050565b60006200048b83836200045d565b9150826002028217905092915050565b620004a68262000221565b67ffffffffffffffff811115620004c257620004c16200022c565b5b620004ce82546200028a565b620004db82828562000400565b600060209050601f831160018114620005135760008415620004fe578287015190505b6200050a85826200047d565b8655506200057a565b601f1984166200052386620002bf565b60005b828110156200054d5784890151825560018201915060208501945060208101905062000526565b868310156200056d578489015162000569601f8916826200045d565b8355505b6001600288020188555050505b505050505050565b61317a80620005926000396000f3fe6080604052600436106100a75760003560e01c80639cd441da116100645780639cd441da1461015e578063a22280a61461017a578063d4cadf6814610196578063f2fde38b146101c2578063f694f7d1146101eb578063fc0c546a14610216576100a7565b80632eab2841146100ac57806358ad6de4146100c8578063715018a6146100e45780638259e6a0146100fb578063857620e1146101175780638da5cb5b14610133575b600080fd5b6100c660048036038101906100c19190612035565b610241565b005b6100e260048036038101906100dd9190612062565b610469565b005b3480156100f057600080fd5b506100f9610a46565b005b61011560048036038101906101109190612035565b610a5a565b005b610131600480360381019061012c91906120a2565b610dbb565b005b34801561013f57600080fd5b50610148611408565b6040516101559190612136565b60405180910390f35b61017860048036038101906101739190612062565b611431565b005b610194600480360381019061018f9190612062565b6119b9565b005b3480156101a257600080fd5b506101ab611c2b565b6040516101b9929190612160565b60405180910390f35b3480156101ce57600080fd5b506101e960048036038101906101e491906121b5565b611c3c565b005b3480156101f757600080fd5b50610200611cbf565b60405161020d9190612272565b60405180910390f35b34801561022257600080fd5b5061022b611d4d565b60405161023891906122f3565b60405180910390f35b806004546064600554610254919061233d565b61025e91906123ae565b111561029f576040517f08c379a000000000000000000000000000000000000000000000000000000000815260040161029690612451565b60405180910390fd5b6000600b54600a54346102b2919061233d565b6102bc91906123ae565b905080600760008282546102d09190612471565b92505081905550600081346005546102e89190612471565b6102f291906124a5565b9050600081600c5461030491906123ae565b9050600181101561034a576040517f08c379a00000000000000000000000000000000000000000000000000000000081526004016103419061254b565b60405180910390fd5b60008160045461035a91906124a5565b905060011515600360009054906101000a900473ffffffffffffffffffffffffffffffffffffffff1673ffffffffffffffffffffffffffffffffffffffff1663a9059cbb33846040518363ffffffff1660e01b81526004016103bd92919061256b565b6020604051808303816000875af11580156103dc573d6000803e3d6000fd5b505050506040513d601f19601f8201168201806040525081019061040091906125cc565b151514610442576040517f08c379a00000000000000000000000000000000000000000000000000000000081526004016104399061266b565b60405180910390fd5b82600581905550806004600082825461045b91906124a5565b925050819055505050505050565b6007546005600082825461047d9190612471565b92505081905550600654600460008282546104989190612471565b92505081905550600060078190555060006006819055506000612710600554600860003373ffffffffffffffffffffffffffffffffffffffff1673ffffffffffffffffffffffffffffffffffffffff16815260200190815260200160002054610501919061233d565b61050b91906123ae565b90506000612710600454600860003373ffffffffffffffffffffffffffffffffffffffff1673ffffffffffffffffffffffffffffffffffffffff1681526020019081526020016000205461055f919061233d565b61056991906123ae565b905060055482106105af576040517f08c379a00000000000000000000000000000000000000000000000000000000081526004016105a6906126fd565b60405180910390fd5b60045481106105f3576040517f08c379a00000000000000000000000000000000000000000000000000000000081526004016105ea9061278f565b60405180910390fd5b836004546064600554610606919061233d565b61061091906123ae565b1115610651576040517f08c379a000000000000000000000000000000000000000000000000000000000815260040161064890612451565b60405180910390fd5b826004546064600554610664919061233d565b61066e91906123ae565b10156106af576040517f08c379a00000000000000000000000000000000000000000000000000000000081526004016106a690612821565b60405180910390fd5b600060055490503373ffffffffffffffffffffffffffffffffffffffff166108fc849081150290604051600060405180830381858888f193505050501580156106fc573d6000803e3d6000fd5b5060011515600360009054906101000a900473ffffffffffffffffffffffffffffffffffffffff1673ffffffffffffffffffffffffffffffffffffffff1663a9059cbb33856040518363ffffffff1660e01b815260040161075e92919061256b565b6020604051808303816000875af115801561077d573d6000803e3d6000fd5b505050506040513d601f19601f820116820180604052508101906107a191906125cc565b1515146107e3576040517f08c379a00000000000000000000000000000000000000000000000000000000081526004016107da9061266b565b60405180910390fd5b82600560008282546107f591906124a5565b92505081905550816004600082825461080e91906124a5565b92505081905550600554600454610825919061233d565b600c81905550600060098054905090506000600980549050905060005b818110156109ee573373ffffffffffffffffffffffffffffffffffffffff166009828154811061087557610874612841565b5b9060005260206000200160009054906101000a900473ffffffffffffffffffffffffffffffffffffffff1673ffffffffffffffffffffffffffffffffffffffff16036108c3578092506109db565b6005548460086000600985815481106108df576108de612841565b5b9060005260206000200160009054906101000a900473ffffffffffffffffffffffffffffffffffffffff1673ffffffffffffffffffffffffffffffffffffffff1673ffffffffffffffffffffffffffffffffffffffff1681526020019081526020016000205461094f919061233d565b61095991906123ae565b600860006009848154811061097157610970612841565b5b9060005260206000200160009054906101000a900473ffffffffffffffffffffffffffffffffffffffff1673ffffffffffffffffffffffffffffffffffffffff1673ffffffffffffffffffffffffffffffffffffffff168152602001908152602001600020819055505b80806109e690612870565b915050610842565b506000600860003373ffffffffffffffffffffffffffffffffffffffff1673ffffffffffffffffffffffffffffffffffffffff16815260200190815260200160002081905550610a3d82611d73565b50505050505050565b610a4e611eb0565b610a586000611f2e565b565b610a62611eb0565b600060045414610aa7576040517f08c379a0000000000000000000000000000000000000000000000000000000008152600401610a9e90612904565b60405180910390fd5b600060055414610aec576040517f08c379a0000000000000000000000000000000000000000000000000000000008152600401610ae390612970565b60405180910390fd5b60003411610b2f576040517f08c379a0000000000000000000000000000000000000000000000000000000008152600401610b26906129dc565b60405180910390fd5b6000600360009054906101000a900473ffffffffffffffffffffffffffffffffffffffff1673ffffffffffffffffffffffffffffffffffffffff166370a08231336040518263ffffffff1660e01b8152600401610b8c9190612136565b602060405180830381865afa158015610ba9573d6000803e3d6000fd5b505050506040513d601f19601f82011682018060405250810190610bcd9190612a11565b905080821115610c12576040517f08c379a0000000000000000000000000000000000000000000000000000000008152600401610c0990612ab0565b60405180910390fd5b60008211610c55576040517f08c379a0000000000000000000000000000000000000000000000000000000008152600401610c4c90612b1c565b60405180910390fd5b600360009054906101000a900473ffffffffffffffffffffffffffffffffffffffff1673ffffffffffffffffffffffffffffffffffffffff166323b872dd3330856040518463ffffffff1660e01b8152600401610cb493929190612b3c565b6020604051808303816000875af1158015610cd3573d6000803e3d6000fd5b505050506040513d601f19601f82011682018060405250810190610cf791906125cc565b50600360009054906101000a900473ffffffffffffffffffffffffffffffffffffffff1673ffffffffffffffffffffffffffffffffffffffff166370a08231306040518263ffffffff1660e01b8152600401610d539190612136565b602060405180830381865afa158015610d70573d6000803e3d6000fd5b505050506040513d601f19601f82011682018060405250810190610d949190612a11565b60048190555034600581905550600554600454610db1919061233d565b600c819055505050565b60075460056000828254610dcf9190612471565b9250508190555060065460046000828254610dea9190612471565b925050819055506000600781905550600060068190555060008311610e44576040517f08c379a0000000000000000000000000000000000000000000000000000000008152600401610e3b90612bbf565b60405180910390fd5b6005548310610e88576040517f08c379a0000000000000000000000000000000000000000000000000000000008152600401610e7f906126fd565b60405180910390fd5b816004546064600554610e9b919061233d565b610ea591906123ae565b1115610ee6576040517f08c379a0000000000000000000000000000000000000000000000000000000008152600401610edd90612451565b60405180910390fd5b806004546064600554610ef9919061233d565b610f0391906123ae565b1015610f44576040517f08c379a0000000000000000000000000000000000000000000000000000000008152600401610f3b90612821565b60405180910390fd5b6000612710600554600860003373ffffffffffffffffffffffffffffffffffffffff1673ffffffffffffffffffffffffffffffffffffffff16815260200190815260200160002054610f96919061233d565b610fa091906123ae565b905080841115610fe5576040517f08c379a0000000000000000000000000000000000000000000000000000000008152600401610fdc90612c51565b60405180910390fd5b60006005549050600060055460045487610fff919061233d565b61100991906123ae565b90503373ffffffffffffffffffffffffffffffffffffffff166108fc879081150290604051600060405180830381858888f19350505050158015611051573d6000803e3d6000fd5b5060011515600360009054906101000a900473ffffffffffffffffffffffffffffffffffffffff1673ffffffffffffffffffffffffffffffffffffffff1663a9059cbb33846040518363ffffffff1660e01b81526004016110b392919061256b565b6020604051808303816000875af11580156110d2573d6000803e3d6000fd5b505050506040513d601f19601f820116820180604052508101906110f691906125cc565b151514611138576040517f08c379a000000000000000000000000000000000000000000000000000000000815260040161112f9061266b565b60405180910390fd5b856005600082825461114a91906124a5565b92505081905550806004600082825461116391906124a5565b9250508190555060055460045461117a919061233d565b600c81905550600554612710878561119291906124a5565b61119c919061233d565b6111a691906123ae565b600860003373ffffffffffffffffffffffffffffffffffffffff1673ffffffffffffffffffffffffffffffffffffffff16815260200190815260200160002081905550600060098054905090506000600980549050905060005b818110156113ac573373ffffffffffffffffffffffffffffffffffffffff166009828154811061123357611232612841565b5b9060005260206000200160009054906101000a900473ffffffffffffffffffffffffffffffffffffffff1673ffffffffffffffffffffffffffffffffffffffff160361128157809250611399565b60055485600860006009858154811061129d5761129c612841565b5b9060005260206000200160009054906101000a900473ffffffffffffffffffffffffffffffffffffffff1673ffffffffffffffffffffffffffffffffffffffff1673ffffffffffffffffffffffffffffffffffffffff1681526020019081526020016000205461130d919061233d565b61131791906123ae565b600860006009848154811061132f5761132e612841565b5b9060005260206000200160009054906101000a900473ffffffffffffffffffffffffffffffffffffffff1673ffffffffffffffffffffffffffffffffffffffff1673ffffffffffffffffffffffffffffffffffffffff168152602001908152602001600020819055505b80806113a490612870565b915050611200565b506000600860003373ffffffffffffffffffffffffffffffffffffffff1673ffffffffffffffffffffffffffffffffffffffff16815260200190815260200160002054036113fe576113fd82611d73565b5b5050505050505050565b60008060009054906101000a900473ffffffffffffffffffffffffffffffffffffffff16905090565b600754600560008282546114459190612471565b92505081905550600654600460008282546114609190612471565b9250508190555060006007819055506000600681905550600034116114ba576040517f08c379a00000000000000000000000000000000000000000000000000000000081526004016114b190612cbd565b60405180910390fd5b8160045460646005546114cd919061233d565b6114d791906123ae565b1115611518576040517f08c379a000000000000000000000000000000000000000000000000000000000815260040161150f90612451565b60405180910390fd5b80600454606460055461152b919061233d565b61153591906123ae565b1015611576576040517f08c379a000000000000000000000000000000000000000000000000000000000815260040161156d90612821565b60405180910390fd5b600060055460045434611589919061233d565b61159391906123ae565b905060011515600360009054906101000a900473ffffffffffffffffffffffffffffffffffffffff1673ffffffffffffffffffffffffffffffffffffffff166323b872dd3330856040518463ffffffff1660e01b81526004016115f893929190612b3c565b6020604051808303816000875af1158015611617573d6000803e3d6000fd5b505050506040513d601f19601f8201168201806040525081019061163b91906125cc565b15151461167d576040517f08c379a000000000000000000000000000000000000000000000000000000000815260040161167490612d4f565b60405180910390fd5b6000600554905034600560008282546116969190612471565b9250508190555081600460008282546116af9190612471565b925050819055506005546004546116c6919061233d565b600c819055506005546127103461271084600860003373ffffffffffffffffffffffffffffffffffffffff1673ffffffffffffffffffffffffffffffffffffffff16815260200190815260200160002054611721919061233d565b61172b91906123ae565b6117359190612471565b61173f919061233d565b61174991906123ae565b600860003373ffffffffffffffffffffffffffffffffffffffff1673ffffffffffffffffffffffffffffffffffffffff16815260200190815260200160002081905550600080600980549050905060005b81811015611947573373ffffffffffffffffffffffffffffffffffffffff16600982815481106117cd576117cc612841565b5b9060005260206000200160009054906101000a900473ffffffffffffffffffffffffffffffffffffffff1673ffffffffffffffffffffffffffffffffffffffff160361181c5760019250611934565b60055484600860006009858154811061183857611837612841565b5b9060005260206000200160009054906101000a900473ffffffffffffffffffffffffffffffffffffffff1673ffffffffffffffffffffffffffffffffffffffff1673ffffffffffffffffffffffffffffffffffffffff168152602001908152602001600020546118a8919061233d565b6118b291906123ae565b60086000600984815481106118ca576118c9612841565b5b9060005260206000200160009054906101000a900473ffffffffffffffffffffffffffffffffffffffff1673ffffffffffffffffffffffffffffffffffffffff1673ffffffffffffffffffffffffffffffffffffffff168152602001908152602001600020819055505b808061193f90612870565b91505061179a565b50816119b1576009339080600181540180825580915050600190039060005260206000200160009091909190916101000a81548173ffffffffffffffffffffffffffffffffffffffff021916908373ffffffffffffffffffffffffffffffffffffffff1602179055505b505050505050565b8060055460646004546119cc919061233d565b6119d691906123ae565b1115611a17576040517f08c379a0000000000000000000000000000000000000000000000000000000008152600401611a0e90612de1565b60405180910390fd5b6000600b54600a5484611a2a919061233d565b611a3491906123ae565b90508060066000828254611a489190612471565b9250508190555060008184600454611a609190612471565b611a6a91906124a5565b9050600081600c54611a7c91906123ae565b90506001811015611ac2576040517f08c379a0000000000000000000000000000000000000000000000000000000008152600401611ab990612e73565b60405180910390fd5b600081600554611ad291906124a5565b90503373ffffffffffffffffffffffffffffffffffffffff166108fc829081150290604051600060405180830381858888f19350505050158015611b1a573d6000803e3d6000fd5b5060011515600360009054906101000a900473ffffffffffffffffffffffffffffffffffffffff1673ffffffffffffffffffffffffffffffffffffffff166323b872dd33308a6040518463ffffffff1660e01b8152600401611b7e93929190612b3c565b6020604051808303816000875af1158015611b9d573d6000803e3d6000fd5b505050506040513d601f19601f82011682018060405250810190611bc191906125cc565b151514611c03576040517f08c379a0000000000000000000000000000000000000000000000000000000008152600401611bfa90612f05565b60405180910390fd5b8060056000828254611c1591906124a5565b9250508190555082600481905550505050505050565b600080600a54600b54915091509091565b611c44611eb0565b600073ffffffffffffffffffffffffffffffffffffffff168173ffffffffffffffffffffffffffffffffffffffff1603611cb3576040517f08c379a0000000000000000000000000000000000000000000000000000000008152600401611caa90612f97565b60405180910390fd5b611cbc81611f2e565b50565b60018054611ccc90612fe6565b80601f0160208091040260200160405190810160405280929190818152602001828054611cf890612fe6565b8015611d455780601f10611d1a57610100808354040283529160200191611d45565b820191906000526020600020905b815481529060010190602001808311611d2857829003601f168201915b505050505081565b600360009054906101000a900473ffffffffffffffffffffffffffffffffffffffff1681565b6009805490508110611dba576040517f08c379a0000000000000000000000000000000000000000000000000000000008152600401611db190613089565b60405180910390fd5b60096001600980549050611dce91906124a5565b81548110611ddf57611dde612841565b5b9060005260206000200160009054906101000a900473ffffffffffffffffffffffffffffffffffffffff1660098281548110611e1e57611e1d612841565b5b9060005260206000200160006101000a81548173ffffffffffffffffffffffffffffffffffffffff021916908373ffffffffffffffffffffffffffffffffffffffff1602179055506009805480611e7857611e776130a9565b5b6001900381819060005260206000200160006101000a81549073ffffffffffffffffffffffffffffffffffffffff0219169055905550565b611eb8611ff2565b73ffffffffffffffffffffffffffffffffffffffff16611ed6611408565b73ffffffffffffffffffffffffffffffffffffffff1614611f2c576040517f08c379a0000000000000000000000000000000000000000000000000000000008152600401611f2390613124565b60405180910390fd5b565b60008060009054906101000a900473ffffffffffffffffffffffffffffffffffffffff169050816000806101000a81548173ffffffffffffffffffffffffffffffffffffffff021916908373ffffffffffffffffffffffffffffffffffffffff1602179055508173ffffffffffffffffffffffffffffffffffffffff168173ffffffffffffffffffffffffffffffffffffffff167f8be0079c531659141344cd1fd0a4f28419497f9722a3daafe3b4186f6b6457e060405160405180910390a35050565b600033905090565b600080fd5b6000819050919050565b61201281611fff565b811461201d57600080fd5b50565b60008135905061202f81612009565b92915050565b60006020828403121561204b5761204a611ffa565b5b600061205984828501612020565b91505092915050565b6000806040838503121561207957612078611ffa565b5b600061208785828601612020565b925050602061209885828601612020565b9150509250929050565b6000806000606084860312156120bb576120ba611ffa565b5b60006120c986828701612020565b93505060206120da86828701612020565b92505060406120eb86828701612020565b9150509250925092565b600073ffffffffffffffffffffffffffffffffffffffff82169050919050565b6000612120826120f5565b9050919050565b61213081612115565b82525050565b600060208201905061214b6000830184612127565b92915050565b61215a81611fff565b82525050565b60006040820190506121756000830185612151565b6121826020830184612151565b9392505050565b61219281612115565b811461219d57600080fd5b50565b6000813590506121af81612189565b92915050565b6000602082840312156121cb576121ca611ffa565b5b60006121d9848285016121a0565b91505092915050565b600081519050919050565b600082825260208201905092915050565b60005b8381101561221c578082015181840152602081019050612201565b60008484015250505050565b6000601f19601f8301169050919050565b6000612244826121e2565b61224e81856121ed565b935061225e8185602086016121fe565b61226781612228565b840191505092915050565b6000602082019050818103600083015261228c8184612239565b905092915050565b6000819050919050565b60006122b96122b46122af846120f5565b612294565b6120f5565b9050919050565b60006122cb8261229e565b9050919050565b60006122dd826122c0565b9050919050565b6122ed816122d2565b82525050565b600060208201905061230860008301846122e4565b92915050565b7f4e487b7100000000000000000000000000000000000000000000000000000000600052601160045260246000fd5b600061234882611fff565b915061235383611fff565b925082820261236181611fff565b915082820484148315176123785761237761230e565b5b5092915050565b7f4e487b7100000000000000000000000000000000000000000000000000000000600052601260045260246000fd5b60006123b982611fff565b91506123c483611fff565b9250826123d4576123d361237f565b5b828204905092915050565b7f45786365656420746865206d61785f65786368616e67655f72617465206f662060008201527f746f6b656e2e0000000000000000000000000000000000000000000000000000602082015250565b600061243b6026836121ed565b9150612446826123df565b604082019050919050565b6000602082019050818103600083015261246a8161242e565b9050919050565b600061247c82611fff565b915061248783611fff565b925082820190508082111561249f5761249e61230e565b5b92915050565b60006124b082611fff565b91506124bb83611fff565b92508282039050818111156124d3576124d261230e565b5b92915050565b7f4e6f74206861766520656e6f75676820746f6b656e20696e2074686520706f6f60008201527f6c20746f20737761702e00000000000000000000000000000000000000000000602082015250565b6000612535602a836121ed565b9150612540826124d9565b604082019050919050565b6000602082019050818103600083015261256481612528565b9050919050565b60006040820190506125806000830185612127565b61258d6020830184612151565b9392505050565b60008115159050919050565b6125a981612594565b81146125b457600080fd5b50565b6000815190506125c6816125a0565b92915050565b6000602082840312156125e2576125e1611ffa565b5b60006125f0848285016125b7565b91505092915050565b7f43616e6e6f74207472616e7366657220746f6b656e20746f207468652075736560008201527f722e000000000000000000000000000000000000000000000000000000000000602082015250565b60006126556022836121ed565b9150612660826125f9565b604082019050919050565b6000602082019050818103600083015261268481612648565b9050919050565b7f4e6f74206861766520656e6f7567682045544820696e2074686520706f6f6c2060008201527f746f2072656d6f76652e00000000000000000000000000000000000000000000602082015250565b60006126e7602a836121ed565b91506126f28261268b565b604082019050919050565b60006020820190508181036000830152612716816126da565b9050919050565b7f4e6f74206861766520656e6f75676820746f6b656e20696e2074686520706f6f60008201527f6c20746f2072656d6f76652e0000000000000000000000000000000000000000602082015250565b6000612779602c836121ed565b91506127848261271d565b604082019050919050565b600060208201905081810360008301526127a88161276c565b9050919050565b7f46616c6c2062656c6f7720746865206d696e5f65786368616e67655f7261746560008201527f206f6620746f6b656e2e00000000000000000000000000000000000000000000602082015250565b600061280b602a836121ed565b9150612816826127af565b604082019050919050565b6000602082019050818103600083015261283a816127fe565b9050919050565b7f4e487b7100000000000000000000000000000000000000000000000000000000600052603260045260246000fd5b600061287b82611fff565b91507fffffffffffffffffffffffffffffffffffffffffffffffffffffffffffffffff82036128ad576128ac61230e565b5b600182019050919050565b7f546f6b656e20726573657276657320776173206e6f7420300000000000000000600082015250565b60006128ee6018836121ed565b91506128f9826128b8565b602082019050919050565b6000602082019050818103600083015261291d816128e1565b9050919050565b7f45544820726573657276657320776173206e6f7420302e000000000000000000600082015250565b600061295a6017836121ed565b915061296582612924565b602082019050919050565b600060208201905081810360008301526129898161294d565b9050919050565b7f4e6565642065746820746f2063726561746520706f6f6c2e0000000000000000600082015250565b60006129c66018836121ed565b91506129d182612990565b602082019050919050565b600060208201905081810360008301526129f5816129b9565b9050919050565b600081519050612a0b81612009565b92915050565b600060208284031215612a2757612a26611ffa565b5b6000612a35848285016129fc565b91505092915050565b7f4e6f74206861766520656e6f75676820746f6b656e7320746f2063726561746560008201527f2074686520706f6f6c0000000000000000000000000000000000000000000000602082015250565b6000612a9a6029836121ed565b9150612aa582612a3e565b604082019050919050565b60006020820190508181036000830152612ac981612a8d565b9050919050565b7f4e65656420746f6b656e7320746f2063726561746520706f6f6c2e0000000000600082015250565b6000612b06601b836121ed565b9150612b1182612ad0565b602082019050919050565b60006020820190508181036000830152612b3581612af9565b9050919050565b6000606082019050612b516000830186612127565b612b5e6020830185612127565b612b6b6040830184612151565b949350505050565b7f496e76616c696420616d6f756e74206f662045544820746f2072656d6f76652e600082015250565b6000612ba96020836121ed565b9150612bb482612b73565b602082019050919050565b60006020820190508181036000830152612bd881612b9c565b9050919050565b7f55736572206e6f74206861766520656e6f7567682045544820746f2072656d6f60008201527f76652e0000000000000000000000000000000000000000000000000000000000602082015250565b6000612c3b6023836121ed565b9150612c4682612bdf565b604082019050919050565b60006020820190508181036000830152612c6a81612c2e565b9050919050565b7f496e76616c696420616d6f756e74206f662045544820746f206164642e000000600082015250565b6000612ca7601d836121ed565b9150612cb282612c71565b602082019050919050565b60006020820190508181036000830152612cd681612c9a565b9050919050565b7f43616e6e6f74207472616e7366657220746f6b656e2066726f6d20746865207560008201527f7365720000000000000000000000000000000000000000000000000000000000602082015250565b6000612d396023836121ed565b9150612d4482612cdd565b604082019050919050565b60006020820190508181036000830152612d6881612d2c565b9050919050565b7f45786365656420746865206d61785f65786368616e67655f72617465206f662060008201527f4554482e00000000000000000000000000000000000000000000000000000000602082015250565b6000612dcb6024836121ed565b9150612dd682612d6f565b604082019050919050565b60006020820190508181036000830152612dfa81612dbe565b9050919050565b7f4e6f74206861766520656e6f7567682045544820696e2074686520706f6f6c2060008201527f746f20737761702e000000000000000000000000000000000000000000000000602082015250565b6000612e5d6028836121ed565b9150612e6882612e01565b604082019050919050565b60006020820190508181036000830152612e8c81612e50565b9050919050565b7f43616e6e6f74207472616e7366657220746f6b656e2066726f6d20746865207560008201527f7365722e00000000000000000000000000000000000000000000000000000000602082015250565b6000612eef6024836121ed565b9150612efa82612e93565b604082019050919050565b60006020820190508181036000830152612f1e81612ee2565b9050919050565b7f4f776e61626c653a206e6577206f776e657220697320746865207a65726f206160008201527f6464726573730000000000000000000000000000000000000000000000000000602082015250565b6000612f816026836121ed565b9150612f8c82612f25565b604082019050919050565b60006020820190508181036000830152612fb081612f74565b9050919050565b7f4e487b7100000000000000000000000000000000000000000000000000000000600052602260045260246000fd5b60006002820490506001821680612ffe57607f821691505b60208210810361301157613010612fb7565b5b50919050565b7f73706563696669656420696e646578206973206c6172676572207468616e207460008201527f6865206e756d626572206f66206c707300000000000000000000000000000000602082015250565b60006130736030836121ed565b915061307e82613017565b604082019050919050565b600060208201905081810360008301526130a281613066565b9050919050565b7f4e487b7100000000000000000000000000000000000000000000000000000000600052603160045260246000fd5b7f4f776e61626c653a2063616c6c6572206973206e6f7420746865206f776e6572600082015250565b600061310e6020836121ed565b9150613119826130d8565b602082019050919050565b6000602082019050818103600083015261313d81613101565b905091905056fea2646970667358221220b9d6aa7ee91177272ebc72ecf30aa453a945e2d65ab5b3c31837567959ee497464736f6c63430008110033",
  "linkReferences": {},
  "deployedLinkReferences": {}
}