{
  "_format": "hh-sol-artifact-1",
  "contractName": "Token",
  "sourceName": "contracts/token.sol",
  "abi": [
    {
      "inputs": [],
      "stateMutability": "nonpayable",
      "type": "constructor"
    },
    {
      "anonymous": false,
      "inputs": [
        {
          "indexed": true,
          "internalType": "address",
          "name": "owner",
          "type": "address"
        },
        {
          "indexed": true,
          "internalType": "address",
          "name": "spender",
          "type": "address"
        },
        {
          "indexed": false,
          "internalType": "uint256",
          "name": "value",
          "type": "uint256"
        }
      ],
      "name": "Approval",
      "type": "event"
    },
    {
      "anonymous": false,
      "inputs": [
        {
          "indexed": true,
          "internalType": "address",
          "name": "previousOwner",
          "type": "address"
        },
        {
          "indexed": true,
          "internalType": "address",
          "name": "newOwner",
          "type": "address"
        }
      ],
      "name": "OwnershipTransferred",
      "type": "event"
    },
    {
      "anonymous": false,
      "inputs": [
        {
          "indexed": true,
          "internalType": "address",
          "name": "from",
          "type": "address"
        },
        {
          "indexed": true,
          "internalType": "address",
          "name": "to",
          "type": "address"
        },
        {
          "indexed": false,
          "internalType": "uint256",
          "name": "value",
          "type": "uint256"
        }
      ],
      "name": "Transfer",
      "type": "event"
    },
    {
      "inputs": [
        {
          "internalType": "address",
          "name": "owner",
          "type": "address"
        },
        {
          "internalType": "address",
          "name": "spender",
          "type": "address"
        }
      ],
      "name": "allowance",
      "outputs": [
        {
          "internalType": "uint256",
          "name": "",
          "type": "uint256"
        }
      ],
      "stateMutability": "view",
      "type": "function"
    },
    {
      "inputs": [
        {
          "internalType": "address",
          "name": "spender",
          "type": "address"
        },
        {
          "internalType": "uint256",
          "name": "amount",
          "type": "uint256"
        }
      ],
      "name": "approve",
      "outputs": [
        {
          "internalType": "bool",
          "name": "",
          "type": "bool"
        }
      ],
      "stateMutability": "nonpayable",
      "type": "function"
    },
    {
      "inputs": [
        {
          "internalType": "address",
          "name": "account",
          "type": "address"
        }
      ],
      "name": "balanceOf",
      "outputs": [
        {
          "internalType": "uint256",
          "name": "",
          "type": "uint256"
        }
      ],
      "stateMutability": "view",
      "type": "function"
    },
    {
      "inputs": [],
      "name": "decimals",
      "outputs": [
        {
          "internalType": "uint8",
          "name": "",
          "type": "uint8"
        }
      ],
      "stateMutability": "view",
      "type": "function"
    },
    {
      "inputs": [
        {
          "internalType": "address",
          "name": "spender",
          "type": "address"
        },
        {
          "internalType": "uint256",
          "name": "subtractedValue",
          "type": "uint256"
        }
      ],
      "name": "decreaseAllowance",
      "outputs": [
        {
          "internalType": "bool",
          "name": "",
          "type": "bool"
        }
      ],
      "stateMutability": "nonpayable",
      "type": "function"
    },
    {
      "inputs": [],
      "name": "disable_mint",
      "outputs": [],
      "stateMutability": "nonpayable",
      "type": "function"
    },
    {
      "inputs": [
        {
          "internalType": "address",
          "name": "spender",
          "type": "address"
        },
        {
          "internalType": "uint256",
          "name": "addedValue",
          "type": "uint256"
        }
      ],
      "name": "increaseAllowance",
      "outputs": [
        {
          "internalType": "bool",
          "name": "",
          "type": "bool"
        }
      ],
      "stateMutability": "nonpayable",
      "type": "function"
    },
    {
      "inputs": [
        {
          "internalType": "uint256",
          "name": "amount",
          "type": "uint256"
        }
      ],
      "name": "mint",
      "outputs": [],
      "stateMutability": "nonpayable",
      "type": "function"
    },
    {
      "inputs": [],
      "name": "name",
      "outputs": [
        {
          "internalType": "string",
          "name": "",
          "type": "string"
        }
      ],
      "stateMutability": "view",
      "type": "function"
    },
    {
      "inputs": [],
      "name": "owner",
      "outputs": [
        {
          "internalType": "address",
          "name": "",
          "type": "address"
        }
      ],
      "stateMutability": "view",
      "type": "function"
    },
    {
      "inputs": [],
      "name": "renounceOwnership",
      "outputs": [],
      "stateMutability": "nonpayable",
      "type": "function"
    },
    {
      "inputs": [],
      "name": "symbol",
      "outputs": [
        {
          "internalType": "string",
          "name": "",
          "type": "string"
        }
      ],
      "stateMutability": "view",
      "type": "function"
    },
    {
      "inputs": [],
      "name": "totalSupply",
      "outputs": [
        {
          "internalType": "uint256",
          "name": "",
          "type": "uint256"
        }
      ],
      "stateMutability": "view",
      "type": "function"
    },
    {
      "inputs": [
        {
          "internalType": "address",
          "name": "to",
          "type": "address"
        },
        {
          "internalType": "uint256",
          "name": "amount",
          "type": "uint256"
        }
      ],
      "name": "transfer",
      "outputs": [
        {
          "internalType": "bool",
          "name": "",
          "type": "bool"
        }
      ],
      "stateMutability": "nonpayable",
      "type": "function"
    },
    {
      "inputs": [
        {
          "internalType": "address",
          "name": "from",
          "type": "address"
        },
        {
          "internalType": "address",
          "name": "to",
          "type": "address"
        },
        {
          "internalType": "uint256",
          "name": "amount",
          "type": "uint256"
        }
      ],
      "name": "transferFrom",
      "outputs": [
        {
          "internalType": "bool",
          "name": "",
          "type": "bool"
        }
      ],
      "stateMutability": "nonpayable",
      "type": "function"
    },
    {
      "inputs": [
        {
          "internalType": "address",
          "name": "newOwner",
          "type": "address"
        }
      ],
      "name": "transferOwnership",
      "outputs": [],
      "stateMutability": "nonpayable",
      "type": "function"
    }
  ],
  "bytecode": "0x60806040526000600660006101000a81548160ff0219169083151502179055503480156200002c57600080fd5b506040518060400160405280600481526020017f626f6261000000000000000000000000000000000000000000000000000000008152506040518060400160405280600481526020017f424f424100000000000000000000000000000000000000000000000000000000815250620000b9620000ad620000e560201b60201c565b620000ed60201b60201c565b8160049081620000ca91906200042b565b508060059081620000dc91906200042b565b50505062000512565b600033905090565b60008060009054906101000a900473ffffffffffffffffffffffffffffffffffffffff169050816000806101000a81548173ffffffffffffffffffffffffffffffffffffffff021916908373ffffffffffffffffffffffffffffffffffffffff1602179055508173ffffffffffffffffffffffffffffffffffffffff168173ffffffffffffffffffffffffffffffffffffffff167f8be0079c531659141344cd1fd0a4f28419497f9722a3daafe3b4186f6b6457e060405160405180910390a35050565b600081519050919050565b7f4e487b7100000000000000000000000000000000000000000000000000000000600052604160045260246000fd5b7f4e487b7100000000000000000000000000000000000000000000000000000000600052602260045260246000fd5b600060028204905060018216806200023357607f821691505b602082108103620002495762000248620001eb565b5b50919050565b60008190508160005260206000209050919050565b60006020601f8301049050919050565b600082821b905092915050565b600060088302620002b37fffffffffffffffffffffffffffffffffffffffffffffffffffffffffffffffff8262000274565b620002bf868362000274565b95508019841693508086168417925050509392505050565b6000819050919050565b6000819050919050565b60006200030c620003066200030084620002d7565b620002e1565b620002d7565b9050919050565b6000819050919050565b6200032883620002eb565b62000340620003378262000313565b84845462000281565b825550505050565b600090565b6200035762000348565b620003648184846200031d565b505050565b5b818110156200038c57620003806000826200034d565b6001810190506200036a565b5050565b601f821115620003db57620003a5816200024f565b620003b08462000264565b81016020851015620003c0578190505b620003d8620003cf8562000264565b83018262000369565b50505b505050565b600082821c905092915050565b60006200040060001984600802620003e0565b1980831691505092915050565b60006200041b8383620003ed565b9150826002028217905092915050565b6200043682620001b1565b67ffffffffffffffff811115620004525762000451620001bc565b5b6200045e82546200021a565b6200046b82828562000390565b600060209050601f831160018114620004a357600084156200048e578287015190505b6200049a85826200040d565b8655506200050a565b601f198416620004b3866200024f565b60005b82811015620004dd57848901518255600182019150602085019450602081019050620004b6565b86831015620004fd5784890151620004f9601f891682620003ed565b8355505b6001600288020188555050505b505050505050565b61190a80620005226000396000f3fe608060405234801561001057600080fd5b50600436106101005760003560e01c80638da5cb5b11610097578063a8b7818d11610066578063a8b7818d146102b1578063a9059cbb146102bb578063dd62ed3e146102eb578063f2fde38b1461031b57610100565b80638da5cb5b1461022957806395d89b4114610247578063a0712d6814610265578063a457c2d71461028157610100565b8063313ce567116100d3578063313ce567146101a157806339509351146101bf57806370a08231146101ef578063715018a61461021f57610100565b806306fdde0314610105578063095ea7b31461012357806318160ddd1461015357806323b872dd14610171575b600080fd5b61010d610337565b60405161011a9190610fba565b60405180910390f35b61013d60048036038101906101389190611075565b6103c9565b60405161014a91906110d0565b60405180910390f35b61015b6103ec565b60405161016891906110fa565b60405180910390f35b61018b60048036038101906101869190611115565b6103f6565b60405161019891906110d0565b60405180910390f35b6101a9610425565b6040516101b69190611184565b60405180910390f35b6101d960048036038101906101d49190611075565b61042e565b6040516101e691906110d0565b60405180910390f35b6102096004803603810190610204919061119f565b610465565b60405161021691906110fa565b60405180910390f35b6102276104ae565b005b6102316104c2565b60405161023e91906111db565b60405180910390f35b61024f6104eb565b60405161025c9190610fba565b60405180910390f35b61027f600480360381019061027a91906111f6565b61057d565b005b61029b60048036038101906102969190611075565b6105e8565b6040516102a891906110d0565b60405180910390f35b6102b961065f565b005b6102d560048036038101906102d09190611075565b610684565b6040516102e291906110d0565b60405180910390f35b61030560048036038101906103009190611223565b6106a7565b60405161031291906110fa565b60405180910390f35b6103356004803603810190610330919061119f565b61072e565b005b60606004805461034690611292565b80601f016020809104026020016040519081016040528092919081815260200182805461037290611292565b80156103bf5780601f10610394576101008083540402835291602001916103bf565b820191906000526020600020905b8154815290600101906020018083116103a257829003601f168201915b5050505050905090565b6000806103d46107b1565b90506103e18185856107b9565b600191505092915050565b6000600354905090565b6000806104016107b1565b905061040e858285610982565b610419858585610a0e565b60019150509392505050565b60006012905090565b6000806104396107b1565b905061045a81858561044b85896106a7565b61045591906112f2565b6107b9565b600191505092915050565b6000600160008373ffffffffffffffffffffffffffffffffffffffff1673ffffffffffffffffffffffffffffffffffffffff168152602001908152602001600020549050919050565b6104b6610c87565b6104c06000610d05565b565b60008060009054906101000a900473ffffffffffffffffffffffffffffffffffffffff16905090565b6060600580546104fa90611292565b80601f016020809104026020016040519081016040528092919081815260200182805461052690611292565b80156105735780601f1061054857610100808354040283529160200191610573565b820191906000526020600020905b81548152906001019060200180831161055657829003601f168201915b5050505050905090565b610585610c87565b60001515600660009054906101000a900460ff161515146105db576040517f08c379a00000000000000000000000000000000000000000000000000000000081526004016105d290611372565b60405180910390fd5b6105e53382610dc9565b50565b6000806105f36107b1565b9050600061060182866106a7565b905083811015610646576040517f08c379a000000000000000000000000000000000000000000000000000000000815260040161063d90611404565b60405180910390fd5b61065382868684036107b9565b60019250505092915050565b610667610c87565b6001600660006101000a81548160ff021916908315150217905550565b60008061068f6107b1565b905061069c818585610a0e565b600191505092915050565b6000600260008473ffffffffffffffffffffffffffffffffffffffff1673ffffffffffffffffffffffffffffffffffffffff16815260200190815260200160002060008373ffffffffffffffffffffffffffffffffffffffff1673ffffffffffffffffffffffffffffffffffffffff16815260200190815260200160002054905092915050565b610736610c87565b600073ffffffffffffffffffffffffffffffffffffffff168173ffffffffffffffffffffffffffffffffffffffff16036107a5576040517f08c379a000000000000000000000000000000000000000000000000000000000815260040161079c90611496565b60405180910390fd5b6107ae81610d05565b50565b600033905090565b600073ffffffffffffffffffffffffffffffffffffffff168373ffffffffffffffffffffffffffffffffffffffff1603610828576040517f08c379a000000000000000000000000000000000000000000000000000000000815260040161081f90611528565b60405180910390fd5b600073ffffffffffffffffffffffffffffffffffffffff168273ffffffffffffffffffffffffffffffffffffffff1603610897576040517f08c379a000000000000000000000000000000000000000000000000000000000815260040161088e906115ba565b60405180910390fd5b80600260008573ffffffffffffffffffffffffffffffffffffffff1673ffffffffffffffffffffffffffffffffffffffff16815260200190815260200160002060008473ffffffffffffffffffffffffffffffffffffffff1673ffffffffffffffffffffffffffffffffffffffff168152602001908152602001600020819055508173ffffffffffffffffffffffffffffffffffffffff168373ffffffffffffffffffffffffffffffffffffffff167f8c5be1e5ebec7d5bd14f71427d1e84f3dd0314c0f7b2291e5b200ac8c7c3b9258360405161097591906110fa565b60405180910390a3505050565b600061098e84846106a7565b90507fffffffffffffffffffffffffffffffffffffffffffffffffffffffffffffffff8114610a0857818110156109fa576040517f08c379a00000000000000000000000000000000000000000000000000000000081526004016109f190611626565b60405180910390fd5b610a0784848484036107b9565b5b50505050565b600073ffffffffffffffffffffffffffffffffffffffff168373ffffffffffffffffffffffffffffffffffffffff1603610a7d576040517f08c379a0000000000000000000000000000000000000000000000000000000008152600401610a74906116b8565b60405180910390fd5b600073ffffffffffffffffffffffffffffffffffffffff168273ffffffffffffffffffffffffffffffffffffffff1603610aec576040517f08c379a0000000000000000000000000000000000000000000000000000000008152600401610ae39061174a565b60405180910390fd5b610af7838383610f20565b6000600160008573ffffffffffffffffffffffffffffffffffffffff1673ffffffffffffffffffffffffffffffffffffffff16815260200190815260200160002054905081811015610b7e576040517f08c379a0000000000000000000000000000000000000000000000000000000008152600401610b75906117dc565b60405180910390fd5b818103600160008673ffffffffffffffffffffffffffffffffffffffff1673ffffffffffffffffffffffffffffffffffffffff1681526020019081526020016000208190555081600160008573ffffffffffffffffffffffffffffffffffffffff1673ffffffffffffffffffffffffffffffffffffffff168152602001908152602001600020600082825401925050819055508273ffffffffffffffffffffffffffffffffffffffff168473ffffffffffffffffffffffffffffffffffffffff167fddf252ad1be2c89b69c2b068fc378daa952ba7f163c4a11628f55a4df523b3ef84604051610c6e91906110fa565b60405180910390a3610c81848484610f25565b50505050565b610c8f6107b1565b73ffffffffffffffffffffffffffffffffffffffff16610cad6104c2565b73ffffffffffffffffffffffffffffffffffffffff1614610d03576040517f08c379a0000000000000000000000000000000000000000000000000000000008152600401610cfa90611848565b60405180910390fd5b565b60008060009054906101000a900473ffffffffffffffffffffffffffffffffffffffff169050816000806101000a81548173ffffffffffffffffffffffffffffffffffffffff021916908373ffffffffffffffffffffffffffffffffffffffff1602179055508173ffffffffffffffffffffffffffffffffffffffff168173ffffffffffffffffffffffffffffffffffffffff167f8be0079c531659141344cd1fd0a4f28419497f9722a3daafe3b4186f6b6457e060405160405180910390a35050565b600073ffffffffffffffffffffffffffffffffffffffff168273ffffffffffffffffffffffffffffffffffffffff1603610e38576040517f08c379a0000000000000000000000000000000000000000000000000000000008152600401610e2f906118b4565b60405180910390fd5b610e4460008383610f20565b8060036000828254610e5691906112f2565b9250508190555080600160008473ffffffffffffffffffffffffffffffffffffffff1673ffffffffffffffffffffffffffffffffffffffff168152602001908152602001600020600082825401925050819055508173ffffffffffffffffffffffffffffffffffffffff16600073ffffffffffffffffffffffffffffffffffffffff167fddf252ad1be2c89b69c2b068fc378daa952ba7f163c4a11628f55a4df523b3ef83604051610f0891906110fa565b60405180910390a3610f1c60008383610f25565b5050565b505050565b505050565b600081519050919050565b600082825260208201905092915050565b60005b83811015610f64578082015181840152602081019050610f49565b60008484015250505050565b6000601f19601f8301169050919050565b6000610f8c82610f2a565b610f968185610f35565b9350610fa6818560208601610f46565b610faf81610f70565b840191505092915050565b60006020820190508181036000830152610fd48184610f81565b905092915050565b600080fd5b600073ffffffffffffffffffffffffffffffffffffffff82169050919050565b600061100c82610fe1565b9050919050565b61101c81611001565b811461102757600080fd5b50565b60008135905061103981611013565b92915050565b6000819050919050565b6110528161103f565b811461105d57600080fd5b50565b60008135905061106f81611049565b92915050565b6000806040838503121561108c5761108b610fdc565b5b600061109a8582860161102a565b92505060206110ab85828601611060565b9150509250929050565b60008115159050919050565b6110ca816110b5565b82525050565b60006020820190506110e560008301846110c1565b92915050565b6110f48161103f565b82525050565b600060208201905061110f60008301846110eb565b92915050565b60008060006060848603121561112e5761112d610fdc565b5b600061113c8682870161102a565b935050602061114d8682870161102a565b925050604061115e86828701611060565b9150509250925092565b600060ff82169050919050565b61117e81611168565b82525050565b60006020820190506111996000830184611175565b92915050565b6000602082840312156111b5576111b4610fdc565b5b60006111c38482850161102a565b91505092915050565b6111d581611001565b82525050565b60006020820190506111f060008301846111cc565b92915050565b60006020828403121561120c5761120b610fdc565b5b600061121a84828501611060565b91505092915050565b6000806040838503121561123a57611239610fdc565b5b60006112488582860161102a565b92505060206112598582860161102a565b9150509250929050565b7f4e487b7100000000000000000000000000000000000000000000000000000000600052602260045260246000fd5b600060028204905060018216806112aa57607f821691505b6020821081036112bd576112bc611263565b5b50919050565b7f4e487b7100000000000000000000000000000000000000000000000000000000600052601160045260246000fd5b60006112fd8261103f565b91506113088361103f565b92508282019050808211156113205761131f6112c3565b5b92915050565b7f4d696e7420686173206265656e2064697361626c656400000000000000000000600082015250565b600061135c601683610f35565b915061136782611326565b602082019050919050565b6000602082019050818103600083015261138b8161134f565b9050919050565b7f45524332303a2064656372656173656420616c6c6f77616e63652062656c6f7760008201527f207a65726f000000000000000000000000000000000000000000000000000000602082015250565b60006113ee602583610f35565b91506113f982611392565b604082019050919050565b6000602082019050818103600083015261141d816113e1565b9050919050565b7f4f776e61626c653a206e6577206f776e657220697320746865207a65726f206160008201527f6464726573730000000000000000000000000000000000000000000000000000602082015250565b6000611480602683610f35565b915061148b82611424565b604082019050919050565b600060208201905081810360008301526114af81611473565b9050919050565b7f45524332303a20617070726f76652066726f6d20746865207a65726f2061646460008201527f7265737300000000000000000000000000000000000000000000000000000000602082015250565b6000611512602483610f35565b915061151d826114b6565b604082019050919050565b6000602082019050818103600083015261154181611505565b9050919050565b7f45524332303a20617070726f766520746f20746865207a65726f20616464726560008201527f7373000000000000000000000000000000000000000000000000000000000000602082015250565b60006115a4602283610f35565b91506115af82611548565b604082019050919050565b600060208201905081810360008301526115d381611597565b9050919050565b7f45524332303a20696e73756666696369656e7420616c6c6f77616e6365000000600082015250565b6000611610601d83610f35565b915061161b826115da565b602082019050919050565b6000602082019050818103600083015261163f81611603565b9050919050565b7f45524332303a207472616e736665722066726f6d20746865207a65726f20616460008201527f6472657373000000000000000000000000000000000000000000000000000000602082015250565b60006116a2602583610f35565b91506116ad82611646565b604082019050919050565b600060208201905081810360008301526116d181611695565b9050919050565b7f45524332303a207472616e7366657220746f20746865207a65726f206164647260008201527f6573730000000000000000000000000000000000000000000000000000000000602082015250565b6000611734602383610f35565b915061173f826116d8565b604082019050919050565b6000602082019050818103600083015261176381611727565b9050919050565b7f45524332303a207472616e7366657220616d6f756e742065786365656473206260008201527f616c616e63650000000000000000000000000000000000000000000000000000602082015250565b60006117c6602683610f35565b91506117d18261176a565b604082019050919050565b600060208201905081810360008301526117f5816117b9565b9050919050565b7f4f776e61626c653a2063616c6c6572206973206e6f7420746865206f776e6572600082015250565b6000611832602083610f35565b915061183d826117fc565b602082019050919050565b6000602082019050818103600083015261186181611825565b9050919050565b7f45524332303a206d696e7420746f20746865207a65726f206164647265737300600082015250565b600061189e601f83610f35565b91506118a982611868565b602082019050919050565b600060208201905081810360008301526118cd81611891565b905091905056fea2646970667358221220f1725f9676951912e4dffdf7e3f09d24f7e5d9d6d6ab895ee1f44b1e0388454f64736f6c63430008110033",
  "linkReferences": {},
  "deployedLinkReferences": {}
}